:100000000C944D000C9457000C9457000C9457001E
:100010000C9457000C9457000C9457000C94570004
:100020000C9457000C9457000C9457000C945700F4
:100030000C9457000C9457000C9457000C945700E4
:100040000C9457000C9457000C9457000C945700D4
:100050000C9457000C9457000C9457000C945700C4
:100060000C9457000C9457003E3E205553432045B6
:10007000453435394C203C3C373839303132333413
:10008000003E3E2061743332382D352E6320203CF3
:100090003C37383930313233340011241FBECFEFB2
:1000A000D8E0DEBFCDBF0E94E6000C94F7000C94B0
:1000B00000009BB19F709BB99BB1807F892B8BB94E
:1000C00085B1837F85B92A9A2A9A2A980895CF9371
:1000D000C82F0E9459008C2F8295807FCF910C945D
:1000E00059002C980E9467008FE39FE10197F1F778
:1000F00000C0000008958295880F880F807C860FCD
:1001000080680C9471002C9A0E9467008FE39FE135
:100110000197F1F700C000000895CF93DF93EC0141
:10012000FE0184912196811103C0DF91CF91089542
:100130000E948300F5CFCF93DF93EC018991811169
:1001400003C0DF91CF9108950E948300CE01F5CFC7
:100150008AB1806F8AB984B18C6184B92C988FE59B
:100160009AEE0197F1F700C0000080E30E94590069
:100170008FE19EE40197F1F700C0000080E30E9448
:1001800059008FED91E00197F1F700C0000080E386
:100190000E9459008FE39FE10197F1F700C0000032
:1001A00080E20E9459008FE39FE10197F1F700C0C0
:1001B000000088E20E9471008FE00C9471008FE3D0
:1001C0009FE10197F1F700C0000008950E94A80088
:1001D00080E80E94710081E890E00E948D0080EC30
:1001E0000E94710088E690E00E948D00FFCFF89495
:0201F000FFCF3F
:00000001FF
