:100000000C944D000C9462000C9462000C946200FD
:100010000C9462000C9462000C9462000C946200D8
:100020000C9462000C9462000C9462000C946200C8
:100030000C9462000C9462000C9462000C946200B8
:100040000C9462000C9462000C9462000C946200A8
:100050000C9462000C9462000C9462000C94620098
:100060000C9462000C9462003E3E2055534520459E
:10007000453435394C203C3C373839303132333413
:10008000003E3E2061743332382D352E6320203CF3
:100090003C37383930313233340011241FBECFEFB2
:1000A000D8E0DEBFCDBF11E0A0E0B1E0E2E6FEE0C7
:1000B00002C005900D92AA39B107D9F70E94D60265
:1000C0000C942F070C9400003F924F925F926F9216
:1000D0007F928F929F92AF92BF92CF92DF92EF92D8
:1000E000FF920F931F93CF93DF937C0181E00E94D7
:1000F0001201F70101900020E9F731972F014E1806
:100100005F08712C612CD0E0C0E0D12CC12C34E10F
:10011000332E641475040CF052C0F4E0CF16D104F1
:100120000CF04DC04701860C971CF401830105C0FB
:100130000F5F1F4F4016510619F081918032C1F7B1
:10014000C801861997098C0F9D1F45974CF08FEFBA
:10015000C81AD80AE4E0CE16D10489F1D0E0C0E094
:10016000C601959587956C2F389E600D11248C2DB6
:1001700081700E941B01CE19DF095E01A618B70825
:10018000E501C80DD91DC4018E199F09801791077B
:1001900084F0F701E00FF11F8081803241F4C43117
:1001A000D1052CF40E94230121960F5F1F4F3801C7
:1001B000B0CFF40181914F010E942301E1CFDF9183
:1001C000CF911F910F91FF90EF90DF90CF90BF9054
:1001D000AF909F908F907F906F905F904F903F90E7
:1001E0000895009709F40895E3E3F7E03197F1F7F4
:1001F0000197F7CF9BB19F709BB99BB1807F892BF3
:100200008BB985B1837F85B92A9A2A9A2A9808954D
:10021000CF93C82F0E94FA008C2F8295807FCF91B8
:100220000C94FA002C980E94080186E69EE0019743
:10023000F1F7000008958295880F880F807C860F63
:1002400080680C9412012C9A0E94080186E69EE0B8
:100250000197F1F700000895CF93DF93EC01FE01C1
:1002600084912196811103C0DF91CF9108950E945E
:100270002301F5CFCF93DF93EC018991811103C066
:10028000DF91CF9108950E942301F7CF8AB1806F4B
:100290008AB984B18C6184B92C988FEF9BE6019761
:1002A000F1F700C0000080E30E94FA008FEF93E2B4
:1002B0000197F1F700C0000080E30E94FA008DED85
:1002C00090E00197F1F780E30E94FA0086E69EE055
:1002D0000197F1F7000080E20E94FA0086E69EE0B6
:1002E0000197F1F7000088E20E9412018FE00C9460
:1002F000120186E69EE00197F1F7000008950F9342
:100300001F93A82F0000000000000000000041150E
:10031000510509F468C084EA8093BC008091BC0058
:1003200087FFFCCF8091B900887F883031F58A2F14
:100330008E7F8093BB0084E88093BC008091BC00DA
:1003400087FFFCCF8091B900887F8831C9F0803267
:10035000A1F494E99093BC0010C081918093BB00FC
:100360006093BC008091BC0087FFFCCF8091B900F6
:10037000887F883249F0803361F31F910F9108958F
:10038000FB01460F571F64E84E175F0731F740E146
:100390000115110569F514C0F90194EC013011053E
:1003A00089F484E88093BC008091BC0087FFFCCF77
:1003B0008091B900887F883501F78091BB008083E8
:1003C00080E0C7CF9093BC008091BC0087FFFCCF3A
:1003D0008091B900887F01501109803571F68091B4
:1003E000BB008193DBCF80E00115110531F248E0BD
:1003F00084EA8093BC008091BC0087FFFCCF809191
:10040000B900887F4813B9CFA160A093BB0084E8EE
:100410008093BC008091BC0087FFFCCF8091B90025
:10042000887F803409F4B8CF883409F0A6CF91CF03
:100430001092B9008093B80008950F931F93CF9343
:10044000DF93CDB7DEB763970FB6F894DEBF0FBE6C
:10045000CDBF80EA8A8B83E08B8B10E000E030E038
:1004600020E042E050E0BE016E5E7F4F80910001CF
:100470000E947F01182F8823E9F060E082E00E944B
:100480001B011F921F938AE791E09F938F931F9206
:1004900081E18F938E010F5F1F4F1F930F930E9477
:1004A0004A04C8010E943A010FB6F894DEBF0FBE9D
:1004B000CDBFFFCF63960FB6F894DEBF0FBECDBFA2
:1004C000DF91CF911F910F9108950F931F93CF93B9
:1004D000DF93CDB7DEB766970FB6F894DEBF0FBED9
:1004E000CDBF22E383EB92E0215080409040E1F7C2
:1004F00000C000C084EB8E8B1A8A1B8A1C8A1D8A5E
:1005000004E010E09E012E5E3F4F41E050E0BE014E
:100510006A5E7F4F809100010E947F01182F88231F
:10052000A1F160E082E00E941B011F921F938BE803
:1005300091E09F938F931F9281E18F938E010F5FC4
:100540001F4F1F930F930E944A04C8010E943A0153
:100550002FEF8FEF9CE2215080409040E1F700C0E8
:1005600000000FB6F894DEBF0FBECDBF60E070E0B4
:1005700080E89FEB66960FB6F894DEBF0FBECDBF46
:10058000DF91CF911F910F9108956A897B898C89A2
:100590009D89681B790B90E080E00E94260327EE7E
:1005A0003DE147E25EE30E948C03E4CF0E944601F6
:1005B0000E941D0281E091E00E94640080ED97E0BE
:1005C0000E94F1000E9465026B017C0120E030E096
:1005D00040EA50E40E94210387FF25C08EE091E0AD
:1005E0000E9464000E9465024B015C0120E030E043
:1005F00040EA50E4C701B6010E94210320E030E048
:1006000040EA50E487FF12C0C501B4010E9487038D
:10061000181694F487E691E00E94640080ED97E05C
:100620000E94F100FFCF89E391E0DACFC501B40168
:100630000E94210387FDEECF88EE93E00E94F10037
:10064000D1CF0E94630308F481E00895E89409C0C3
:1006500097FB3EF490958095709561957F4F8F4FF5
:100660009F4F9923A9F0F92F96E9BB279395F6950B
:10067000879577956795B795F111F8CFFAF4BB0F89
:1006800011F460FF1BC06F5F7F4F8F4F9F4F16C0ED
:10069000882311F096E911C0772321F09EE8872F77
:1006A000762F05C0662371F096E8862F70E060E033
:1006B0002AF09A95660F771F881FDAF7880F9695AC
:1006C000879597F90895990F0008550FAA0BE0E850
:1006D000FEEF16161706E807F907C0F01216130604
:1006E000E407F50798F0621B730B840B950B39F444
:1006F0000A2661F0232B242B252B21F408950A26AA
:1007000009F4A140A6958FEF811D811D08950E94D7
:10071000630308F48FEF08950E949F030C94100464
:100720000E94020438F00E94090420F0952311F081
:100730000C94F9030C94FF0311240C9444040E94BC
:10074000210470F3959FC1F3950F50E0551F629FF0
:10075000F001729FBB27F00DB11D639FAA27F00D1A
:10076000B11DAA1F649F6627B00DA11D661F829F41
:100770002227B00DA11D621F739FB00DA11D621F26
:10078000839FA00D611D221F749F3327A00D611D43
:10079000231F849F600D211D822F762F6A2F112425
:1007A0009F5750409AF0F1F088234AF0EE0FFF1F58
:1007B000BB1F661F771F881F91505040A9F79E3FAF
:1007C000510580F00C94F9030C9444045F3FE4F36A
:1007D000983ED4F3869577956795B795F795E79505
:1007E0009F5FC1F7FE2B880F911D9695879597F90E
:1007F000089597F99F6780E870E060E008959FEFA3
:1008000080EC089500240A941616170618060906A7
:10081000089500240A941216130614060506089576
:10082000092E0394000C11F4882352F0BB0F40F4FE
:10083000BF2B11F460FF04C06F5F7F4F8F4F9F4F3E
:10084000089557FD9058440F551F59F05F3F71F0C0
:100850004795880F97FB991F61F09F3F79F0879527
:100860000895121613061406551FF2CF4695F1DFB0
:1008700008C0161617061806991FF1CF8695710540
:10088000610508940895E894BB2766277727CB0174
:1008900097F90895AEE0B0E0E0E5F4E00C940607C7
:1008A0000D891E898F89988D26E02C831A830983F0
:1008B00097FF02C080E090E801979E838D83AE0190
:1008C000455E5F4F698D7A8DCE0101960E947A0454
:1008D0004D815E8157FD0AC02F813885421753072D
:1008E0000CF49A01020F131FF80110822E96E4E017
:1008F0000C942207ABE0B0E0E0E8F4E00C94F806DA
:100900007C013B018A01FC0117821682838181FFF1
:10091000C8C1CE0101965C01F7019381F30193FDFB
:10092000859193FF81913F01882309F453C185325A
:1009300039F493FD859193FF81913F01853229F42C
:10094000B70190E00E946A06E7CF912C212C312C50
:10095000FFE1F31538F08B3211F190F4803209F198
:10096000833229F137FC3CC020ED280F2A3050F5A6
:1009700036FE20C08AE0989E200D1124922E06C0DB
:100980008D3291F0803371F7689430F8F30193FD64
:10099000859193FF81913F018111DACF21C0689445
:1009A00031F8689432F8F2CF689433F8EFCF689456
:1009B00034F8ECCFEAE02E9E200D1124222E68940C
:1009C00035F8E4CF8E3229F436FC04C1689436F849
:1009D000DDCF8C3619F4689437F8D8CF8836B1F269
:1009E000982F9F7D95549330E0F08336A1F18337A3
:1009F000C1F1833509F063C02801F2E04F0E511CAC
:100A0000F801C080D180692D70E036FC02C06FEF24
:100A10007FEFC6010E9454064C01689437F88201AA
:100A20000AC00C5F1F4FFFE3F98388248394912C45
:100A30006501E89437F833FE2DC0522C81149104DF
:100A400071F5552009F468CFB70180E290E00E946B
:100A50006A065A94F6CFF801808189830E5F1F4F92
:100A6000E4CF2801F2E04F0E511CF801C080D18084
:100A7000692D70E036FC02C06FEF7FEFC6010E9467
:100A80005F064C018201D5CFB70180E290E00E9461
:100A90006A062A942814190409F0B0F7CECFF6019B
:100AA00037FC859137FE81916F01B70190E00E947C
:100AB0006A0651105A94F1E08F1A9108BFCF84361C
:100AC00019F0893609F077C0F80137FE6BC06081F4
:100AD0007181828193810C5F1F4FF32DFF763F2E32
:100AE00097FF09C090958095709561957F4F8F4FC6
:100AF0009F4F689437F82AE030E0A5010E949A06DB
:100B0000C82ECA188C2C432C36FE0CC0E89440F832
:100B1000C91440F434FE05C032FC03C0F32DFE7E40
:100B20004F2E892C44FE95C0FE01EC0DF11D8081F5
:100B3000803309F087C0242D297E422E842D8870B1
:100B4000582E43FC95C040FE8FC09C2C821418F494
:100B50002C0C922C981844FE91C0B70180E390E0D1
:100B60000E946A0642FE09C088E790E041FE02C08A
:100B700088E590E0B7010E946A06C91408F48AC0AB
:100B8000CA94D12C9FEFC91AD90ACA0CDB1CF601F2
:100B900082916F01B70190E00E946A06AC14BD0417
:100BA000B1F74FCF60817181072E000C880B990B34
:100BB0000E5F1F4F92CFD32CE894D4F82AE030E098
:100BC000853739F1232D297FD22E8F3601F148F454
:100BD0008835A9F0F701868197812B96E2E10C9484
:100BE0001407803749F08837A9F7D4FE02C068940B
:100BF000D2F820E130E00DC06894D4F8F6CF34FE8E
:100C000003C0822F8660D82E20E132E002C028E0A7
:100C100030E0F801D7FE0FC060817181828193813D
:100C20000C5F1F4FA5010E949A06C82ECA183D2CC2
:100C3000E89437F867CF6081718190E080E00E5FC3
:100C40001F4FF0CF42FC02C0839478CF83948394EB
:100C500075CF842D867809F471CFF6CFB70180E285
:100C600090E00E946A0683948214C0F3512C73CFE3
:100C7000522C5818821408F46ECFF8CF842D867841
:100C800009F47BCF8BE241FE80E247FC8DE2B701A5
:100C900090E071CFB70180E390E00E946A069A94D9
:100CA0006CCF8FEF9FEF99CFFC01059061507040A2
:100CB0000110D8F7809590958E0F9F1F0895FC0125
:100CC0006150704001900110D8F7809590958E0F7B
:100CD0009F1F08950F931F93CF93DF93182F092F12
:100CE000EB018B8181FD09C01FEF0FEF812F902F4A
:100CF000DF91CF911F910F91089582FF14C02E8133
:100D00003F818C819D81281739073CF4E881F98166
:100D1000CF0101969983888310838E819F810196EC
:100D20009F838E83E3CFE885F985812F0995892BF1
:100D3000A1F3DACFFA01AA27283051F1203181F14D
:100D4000E8946F936E7F6E5F7F4F8F4F9F4FAF4FD3
:100D5000B1E03ED0B4E03CD0670F781F891F9A1FE6
:100D6000A11D680F791F8A1F911DA11D6A0F711D9A
:100D7000811D911DA11D20D009F468943F912AE0A6
:100D8000269F11243019305D3193DEF6CF0108958E
:100D9000462F4770405D4193B3E00FD0C9F7F6CFBF
:100DA000462F4F70405D4A3318F0495D31FD405287
:100DB000419302D0A9F7EACFB4E0A695979587951D
:100DC00077956795BA95C9F70097610571050895FC
:100DD0009B01AC010A2E06945795479537952795A8
:100DE000BA95C9F7620F731F841F951FA01D089540
:100DF0002F923F924F925F926F927F928F929F922B
:100E0000AF92BF92CF92DF92EF92FF920F931F9318
:100E1000CF93DF93CDB7DEB7CA1BDB0B0FB6F894C9
:100E2000DEBF0FBECDBF09942A88398848885F8409
:100E30006E847D848C849B84AA84B984C884DF807A
:100E4000EE80FD800C811B81AA81B981CE0FD11D5E
:100E50000FB6F894DEBF0FBECDBFED010895F89434
:020E6000FFCFC2
:100E62005257616B696E672075702E2E2E00497481
:100E7200277320746F6F206461726B20696E206823
:100E820065726521205475726E206F6E20746865DC
:100E9200206C69676874732E004974277320746F1D
:100EA2006F2062726967687420696E206865726576
:100EB20021205475726E206F666620746865206CFE
:100EC20069676874732E0041682C20746861742706
:100ED20073206265747465722E00456E61626C6582
:100EE200204572723A2025303258005265616420E2
:0A0EF2004572723A20253032580094
:00000001FF
