:100000000C94D2020C94EF020C94EF020C94EF02C9
:100010000C94C1040C94EF020C94EF020C94EF02C8
:100020000C94EF020C94EF020C94EF020C94EF028C
:100030000C94EF020C94EF020C94EF020C94EF027C
:100040000C94EF020C94EF020C94EF020C94EF026C
:100050000C94EF020C94EF020C94EF020C94EF025C
:100060000C94EF020C94EF024E414E494E49545904
:10007000494E46CDCCCC3D0AD7233C17B7D1387773
:10008000CC2B329595E6241FB14F0A000020410089
:1000900000C84200401C4620BCBE4CCA1B0E5AAED3
:1000A000C59D749604C503F5022D026F01AF004093
:1000B000011401E500B90000005468616E6B2079FD
:1000C0006F752E204E6F7720676F206C69766520E4
:1000D000736F6D657468696E6720626561757469B8
:1000E00066756C2E004C65742074686520746964B4
:1000F00065206361727279206D652077686572652D
:100100002049206E6576657220676F7420746F20B9
:10011000676F2E0049206E657665722073617720C7
:10012000746865206F6365616E2C20627574204968
:1001300020647265616D6564206F662069742E00AD
:1001400057656C6C20646F6E652120436F6E746917
:100150006E7565206D792073746F727920627920D5
:100160007072657373696E67204E4558542E00FE99
:1001700001DE01AA0179010000496620796F752727
:100180007265207374696C6C206C697374656E6938
:100190006E672C206D617962652049276D2073742C
:1001A000696C6C20686572652E00427574206D6103
:1001B000796265207468697320697320656E6F7554
:1001C00067682E204120736D616C6C206C696768D4
:1001D000742C20706173736564206F6E2E0049204B
:1001E0007573656420746F2066656172206265694D
:1001F0006E6720666F72676F7474656E2E00576548
:100200006C6C20646F6E652120436F6E74696E752F
:1002100065206D792073746F727920627920707215
:10022000657373696E67204E4558542E00C6029E52
:1002300002690237020000596F7527726520616CF0
:100240006976652E2054686174277320616C6C2078
:10025000746865207065726D697373696F6E20795B
:100260006F75206E6565642E00446F206F6E65208B
:100270007468696E6720666F72206D652E20446F0A
:100280006E2774207761697420666F722061202761
:100290006265747465722074696D652E270049204B
:1002A0006D6973736564206D6F72652073756E730D
:1002B000657473207468616E20492063616E2063E9
:1002C0006F756E742E0057656C6C20646F6E6521BF
:1002D00020436F6E74696E7565206D792073746F3D
:1002E0007279206279207072657373696E67204E2F
:1002F0004558542E00960357033003FF0200005464
:100300006861742773207768792049206D6164657E
:1003100020746869732E20546F206D6F7665207786
:1003200068656E204920636F756C646E27742E00BB
:10033000492066656C74207374696C6C2E204C695E
:100340006B6520492068616420616C726561647925
:10035000206C6566742E005768656E207468652091
:10036000646F63746F7220736169642027746572AF
:100370006D696E616C2C272049206A757374207337
:1003800074617265642061742074686520636569B6
:100390006C696E672E0057656C6C20646F6E65210A
:1003A00020436F6E74696E7565206D792073746F6C
:1003B0007279206279207072657373696E67204E5E
:1003C0004558542E0067042D04F403CF0300005752
:1003D00068656E206C6F76652066696E647320793F
:1003E0006F752C20646F6E2774207761737465209D
:1003F00069742E00576520647265616D6564206FB5
:100400006620736565696E672074686520776F7212
:100410006C642C206275742074696D6520676F743C
:1004200020696E20746865207761792E0049206DFF
:10043000657420736F6D656F6E65206F6E63652EDA
:10044000205468657920736D656C6C6564206C69F7
:100450006B65206F6C6420706170657220616E64E2
:1004600020686F70652E0057656C6C20646F6E6538
:100470002120436F6E74696E7565206D79207374E9
:100480006F7279206279207072657373696E67206C
:100490004E4558542E004A051F05E604BE04A2042A
:1004A000000057696C6C20796F752068656C70204E
:1004B0006D652066696E6973682069743F005468D1
:1004C0006973206A6F75726E616C2069732074683D
:1004D00065206C617374207468696E6720492062BE
:1004E00075696C742E0049207573656420746F20E3
:1004F00074616B6520617061727420636C6F636BF3
:1005000073206A75737420746F2073656520686F3B
:10051000772074686579207469636B65642E005771
:1005200068656E20492077617320796F756E672C3E
:100530002049206C6F766564206275696C64696E11
:1005400067207468696E67732E004865792E2E2EB9
:1005500020796F752772652068657265212054685F
:1005600065206A6F75726E616C20776F726B65645F
:1005700021003E3E205553452045453435394C2019
:100580003C3C3738393031323334003E3E206174E0
:100590003332382D352E6320203C3C37383930310A
:1005A0003233340011241FBECFEFD8E0DEBFCDBF01
:1005B00014E0A0E0B1E0E0E2FDE202C005900D929F
:1005C000A038B107D9F725E0A0E8B4E001C01D923A
:1005D000AD38B207E1F70E94DB0A0C948E160C943A
:1005E00000000F931F93CF93DF93EC018B0181E009
:1005F0000E941D05088319831B821A821D821C829A
:100600001F821E82188610923601DF91CF911F91B2
:100610000F9108958091840491E0811190E090936E
:100620008404811108C041E050E06EE170E088EE82
:1006300093E00C94E10608951F93CF93DF93EC01B0
:100640008885811154C02A813B81E881F981E20FBC
:10065000F31F8081882309F44AC0DF0190E080E025
:100660004D914F7D09F049C04E815F81840F951FE8
:1006700044973CF08C819D811F821E8201969D8350
:100680008C838C819D81843091058CF52F5F3F4F49
:100690003B832A8310816E817F81103219F46115AA
:1006A000710539F19C0197FF02C02F5F3F4F3595CF
:1006B0002795562F44E1249F500D1124252F62E0E9
:1006C00070E00E94FF0E622F0E942605812F0E947B
:1006D0002E058E819F8101969F838E831F7D1154ED
:1006E0001A3138F4DF91CF911F910C940A0381E005
:1006F0008887DF91CF911F9108950196B1CF87B17F
:10070000807F87B988B18F6088B9E8E6F0E08081A2
:1007100082608083ECE6F0E080818F608083789453
:1007200008959C01AB01DC0190E080E0FA01E80F44
:10073000F91FE491EE2331F001968034910539F4EC
:100740008FE390E0280F391FF90110820895ED938F
:10075000EDCF0F931F93CF93DF93EC018B0181E0DB
:100760000E941D05B8018BEC94E00E9491038BEC74
:1007700094E0998388831B821A821D821C821F82C7
:100780001E82188610923601DF91CF911F910F9132
:100790000895A2EBB4E0EC91F0E0EE0FFF1FED55F1
:1007A000FF4F259134911696EC91F0E0EE0FFF1F6C
:1007B000E20FF31F659174910C94A903CF93DF931B
:1007C000CDB7DEB728970FB6F894DEBF0FBECDBF0A
:1007D000A2EBB4E01C921092B4041092B3041092F5
:1007E000B5041092B7041092B6041092B804109297
:1007F000BA040E9470066D837E838F83988760930E
:10080000BB047093BC048093BD049093BE0410920B
:10081000BF040E94380869837A838B839C83698133
:100820007A818B819C810E9420107093C104609317
:10083000C004A2EBB4E0EC91F0E0EE0FFF1FED5529
:10084000FF4F85919491FC016591749182EC94E045
:1008500028960FB6F894DEBF0FBECDBFDF91CF91C3
:100860000C94A90380913601882369F18091B30427
:100870009091B4048130910509F069C0E091B2040F
:100880002091B6043091B704E1111EC02115310545
:10089000D9F420E030E040EA50E46091BB0470916C
:1008A000BC048091BD049091BE040E9401116FEAC6
:1008B00071E0181614F06FEC71E082EC94E00E9485
:1008C000F1021092360108956091040170910501C2
:1008D0002630310591F360910201709103012430BB
:1008E000310559F360910001709101012530310506
:1008F00021F32230310511F160F48E2F90E0232B8B
:10090000A1F4880F991FFC01E65DFE4F60817181A3
:10091000D4CF23303105A9F686E0E89FF0011124F9
:10092000EA5FFE4F64817581C8CF26E0289FF00101
:10093000299FF00D1124EA5FFE4FE8CF86E0E89F83
:10094000F0011124EA5FFE4F62817381B6CF892BDB
:1009500009F0B7CFE091B204F0E0EE0FFF1FED55C4
:10096000FF4F85919491E091B804F0E0EE0FFF1FE6
:10097000E80FF91F6591749182EC94E00E94A9033D
:10098000A0CF1F921FB61F9211248F939F9332996D
:1009900003C081E080938304319903C081E0809398
:1009A0008204309903C081E080938104339903C0AD
:1009B00081E0809380048091830481110CC0809138
:1009C0008204811108C080918104811104C080914A
:1009D00080048823A1F08FEF93E20197F1F700C024
:1009E0000000329BFECF319BFCCF309BFACF339B74
:1009F000F8CF8FEF93E20197F1F700C000009F91CD
:100A00008F911F901FBE1F9018959BB19F709BB92F
:100A10009BB1807F892B8BB985B1837F85B92A9A59
:100A20002A9A2A980895CF93C82F0E9405058C2FE3
:100A30008295807FCF910C9405052C980E94130518
:100A400086E69EE00197F1F7000008958295880FF1
:100A5000880F807C860F80680C941D052C9A0E945C
:100A6000130586E69EE00197F1F700000895CF9305
:100A7000DF93EC01FE0184912196811103C0DF9187
:100A8000CF9108950E942E05F5CFCF93DF93EC010F
:100A90008991811103C0DF91CF9108950E942E05A5
:100AA000F7CF8AB1806F8AB984B18C6184B92C98F0
:100AB0008FEF9BE60197F1F700C0000080E30E94F2
:100AC00005058FEF93E20197F1F700C0000080E386
:100AD0000E9405058DED90E00197F1F780E30E94FB
:100AE000050586E69EE00197F1F7000080E20E948E
:100AF000050586E69EE00197F1F7000088E20E9476
:100B00001D058FE00C941D0586E69EE00197F1F728
:100B1000000008950F931F93A82F0000000000000D
:100B2000000000004115510509F468C084EA809373
:100B3000BC008091BC0087FFFCCF8091B900887F0A
:100B4000883031F58A2F8E7F8093BB0084E88093B4
:100B5000BC008091BC0087FFFCCF8091B900887FEA
:100B60008831C9F08032A1F494E99093BC0010C0A0
:100B700081918093BB006093BC008091BC0087FF93
:100B8000FCCF8091B900887F883249F0803361F3CF
:100B90001F910F910895FB01460F571F64E84E17F0
:100BA0005F0731F740E10115110569F514C0F9013E
:100BB00094EC0130110589F484E88093BC008091A5
:100BC000BC0087FFFCCF8091B900887F883501F792
:100BD0008091BB00808380E0C7CF9093BC00809160
:100BE000BC0087FFFCCF8091B900887F01501109BC
:100BF000803571F68091BB008193DBCF80E00115D9
:100C0000110531F248E084EA8093BC008091BC0079
:100C100087FFFCCF8091B900887F4813B9CFA160CE
:100C2000A093BB0084E88093BC008091BC0087FF48
:100C3000FCCF8091B900887F803409F4B8CF883424
:100C400009F0A6CF91CF1092B9008093B800089513
:100C50000F931F93CF93DF93CDB7DEB763970FB694
:100C6000F894DEBF0FBECDBF80EA8A8B83E08B8B0A
:100C700010E000E030E020E042E050E0BE016E5EB7
:100C80007F4F809137010E948A05182F8823E9F051
:100C900060E082E00E9426051F921F938AE194E0A3
:100CA0009F938F931F9281E18F938E010F5F1F4F50
:100CB0001F930F930E94C011C8010E9445050FB6F3
:100CC000F894DEBF0FBECDBFFFCF63960FB6F8948A
:100CD000DEBF0FBECDBFDF91CF911F910F91089561
:100CE0000F931F93CF93DF93CDB7DEB766970FB601
:100CF000F894DEBF0FBECDBF22E383EB92E021501C
:100D000080409040E1F700C000C084EB8E8B1A8ACF
:100D10001B8A1C8A1D8A04E010E09E012E5E3F4F54
:100D200041E050E0BE016A5E7F4F809137010E9432
:100D30008A05182F8823A1F160E082E00E94260531
:100D40001F921F938BE294E09F938F931F9281E1F8
:100D50008F938E010F5F1F4F1F930F930E94C0113F
:100D6000C8010E9445052FEF8FEF9CE22150804083
:100D70009040E1F700C000000FB6F894DEBF0FBE50
:100D8000CDBF60E070E080E89FEB66960FB6F89408
:100D9000DEBF0FBECDBFDF91CF911F910F910895A0
:100DA0006A897B898C899D89681B790B90E080E03A
:100DB0000E944F1027EE3DE147E25EE30E940611DC
:100DC000E4CF0F931F93CF93DF938B01EA01209120
:100DD0009C0430919D042230310519F442305105B4
:100DE00031F5219A20E42093800029E020938100AE
:100DF000B0E0A0E09C01AD01220F331F441F551F3E
:100E000060E070E880E790E00E94130F2150310904
:100E1000309389002093880010939F0400939E04D0
:100E200081E08093A004D0939D04C0939C04DF9143
:100E3000CF911F910F910895109280001092810020
:100E400029981092A00410929D0410929C04089579
:100E50002091A004222379F020919E0430919F04D8
:100E60008217930710F00C941C07281B390B309342
:100E70009F0420939E040895219A29980895109222
:100E8000A20482E090E090939D0480939C0481E012
:100E90008093A104E8E3F1E06281738142E050E0D5
:100EA000808191810C94E1060E9428078091A10421
:100EB0008823D9F08091A004811117C0E091A20489
:100EC000EF5FE093A204E43070F484E0E89FF00167
:100ED0001124E85CFE4F6281738142E050E0808122
:100EE00091810C94E1061092A104089584B1816867
:100EF00084B9529A0895289A2F9A5A9A0895289850
:100F00002F985A980895EF92FF920F931F93CF93C3
:100F10008C018091A304882369F18091A5049091AC
:100F2000A604A091A704B091A804800F911FA11D51
:100F3000B11D803127E29207A105B10570F48093BD
:100F4000A5049093A604A093A704B093A804CF91FE
:100F50001F910F91FF90EF9008951092A5041092A9
:100F6000A6041092A7041092A8041092A404109250
:100F7000A304EDCFC091A40483E0C89FF001112425
:100F8000E85BFE4FE180F2808081882381F00E943F
:100F90007B078091A9049091AA04800F911F8E1560
:100FA0009F0540F49093AA048093A904D0CF0E9497
:100FB0007F07EFCF1092AA041092A904CF5FC093CD
:100FC000A404C23220F20E947F0781E08093A30430
:100FD000BECF0F931F93CF93DF9300D0CDB7DEB773
:100FE00086E2898388EB8A8310E000E030E020E02D
:100FF00042E050E0BE016F5F7F4F80EC0E948A05A7
:10100000882379F060E081E00E9426058AE394E07D
:101010000E9445050F900F90DF91CF911F910F9186
:1010200008958FE19EE40197F1F700C0000089EB7D
:101030008A8310E000E030E020E042E050E0BE01B2
:101040006F5F7F4F80EC0E948A05882339F060E053
:1010500081E00E9426058BE494E0DACF9FEF24E341
:101060008CE0915020408040E1F700C00000D2CFDA
:101070000F931F93CF93DF93CDB7DEB728970FB6AB
:10108000F894DEBF0FBECDBF81E08C8303E010E09B
:101090009E012F5F3F4F41E050E0BE016C5F7F4FEC
:1010A00080EC0E948A058823D9F060E081E00E94EC
:1010B00026058CE594E00E9445056D837E838F8331
:1010C00098876D817E818F81988528960FB6F894D8
:1010D000DEBF0FBECDBFDF91CF911F910F9108955D
:1010E000898190E0B0E0A0E02AE0880F991FAA1F54
:1010F000BB1F2A95D1F74A8150E070E060E032E0F2
:10110000440F551F661F771F3A95D1F7842B952BF7
:10111000A62BB72B2B812295269526952370AC0103
:10112000BD01422B4D835E836F837887CB01BA016B
:101130000E945110C2CF0F931F93CF93DF9300D023
:1011400000D000D00F92CDB7DEB784E08B8302E0F1
:1011500010E09E012F5F3F4F41E050E0BE016D5F08
:101160007F4F80EC0E948A058823F9F060E081E0DF
:101170000E9426058DE694E00E94450560E070E03F
:101180008AE794EC6C837D838E839F836C817D8161
:101190008E819F8127960FB6F894DEBF0FBECDBF1C
:1011A000DF91CF911F910F91089589819A8198279E
:1011B0008927982724E0959587952A95E1F79C0142
:1011C000990F440B550B2C833D834E835F83CA01DB
:1011D000B9010E94511020E030E040E85DE36C83EB
:1011E0007D838E839F836C817D818E819F810E9410
:1011F0000611C8CF0F931F93CF93DF9300D0CDB7C5
:10120000DEB780E2898387E58A8310E000E030E082
:1012100020E042E050E0BE016F5F7F4F80E30E941C
:101220008A050F900F90DF91CF911F910F91089534
:10123000EF92FF920F931F93CF93DF9300D000D0D4
:1012400000D01F92CDB7DEB77C0188EA8F839E0164
:101250002F5F3F4F86E0F90111928A95E9F706E08A
:1012600010E041E050E0BE01695F7F4F80E30E94E3
:101270008A058823A1F0F701158214821382128255
:101280001182108227960FB6F894DEBF0FBECDBF35
:10129000DF91CF911F910F91FF90EF900895898179
:1012A0009A8126E0959587952A95E1F7F701918334
:1012B00080838B819C8136E0959587953A95E1F7FF
:1012C000938382838D819E8146E0959587954A958B
:1012D000E1F795838483D6CF9C014091AC04509173
:1012E000AD049093AD048093AC048091AB0488234B
:1012F00031F09FEF980F9093AB0480E00895241B8A
:10130000350B225E3F4F2D33310520F08AE080936C
:10131000AB0481E008955B9A08955B980895539A11
:101320000C948D091092C5008FE28093C40088E16F
:101330008093C10086E08093C20008958091C00030
:1013400087FFFCCF8091C60008951092AF041092E1
:10135000AE040E949E092091AE043091AF048A3001
:1013600029F4255F3A4FF901108208952F3731058E
:1013700084F7A9014F5F5F4F5093AF044093AE04D1
:10138000255F3A4FF9018083E4CF2F923F924F922D
:101390005F926F927F928F929F92AF92BF92CF9205
:1013A000DF92EF92FF920F931F93CF93DF93CDB70E
:1013B000DEB7A4970FB6F894DEBF0FBECDBF7C0199
:1013C0001B015CA34BA346E050E060EF71E00E947C
:1013D0007C11892B51F046E050E067EF71E0C701C6
:1013E0000E947C11892B09F0C9C080E16E0121E1C6
:1013F000C20ED11CF601282F11922A95E9F78E0111
:101400000F5F1F4FF80111928A95E9F76EE774E0BC
:10141000C7010E947711FEE4F9A3F12CE12C00979B
:1014200019F425E42AA32CC02FEFE21AF20AE3E014
:10143000EE16F10439F44FE050E0BC01C6010E9401
:101440008A1107C0F4E0EF16F10451F4FC01F081B9
:10145000F9A36EE774E090E080E00E947711DFCF9F
:1014600025E0E216F10429F44FE050E0BC01C80188
:10147000E6CFE6E0EE16F10461F7FC01F081FAA395
:10148000C6010E9473112B013C01C8010E94731117
:101490004B015C0120E030E048EC52E4C301B201B2
:1014A0000E94A70F0E9419106B0184E68C9DB00169
:1014B0008D9D700D1124072E000C880B990B0E9436
:1014C00051109B01AC01C301B2010E94350F20E015
:1014D00030E040E752E40E94A70F2B013C01B60127
:1014E000DD0C880B990B0E9451109B01AC01C301CC
:1014F000B2010E94360FE9A1E33509F458C0F101A9
:10150000608371838283938320E030E048EC52E46F
:10151000C501B4010E94A70F0E9419106B0184E657
:101520008C9DB0018D9D700D1124072E000C880B31
:10153000990B0E9451109B01AC01C501B4010E949E
:10154000350F20E030E040E752E40E94A70F2B0166
:101550003C01B601DD0C880B990B0E9451109B01D8
:10156000AC01C301B2010E94360FFAA1F73509F1AF
:10157000EBA1FCA16083718382839383A4960FB651
:10158000F894DEBF0FBECDBFDF91CF911F910F91B9
:10159000FF90EF90DF90CF90BF90AF909F908F9093
:1015A0007F906F905F904F903F902F90089590584C
:1015B000A6CF9058DDCFCDB7DEB7A0970FB6F89481
:1015C000DEBF0FBECDBF88E40E9423060E945105F6
:1015D0000E943C070E9476070E9428060E94E907A5
:1015E0000E94FA080E947F030E948F090E94DE0376
:1015F00010E000E03324339454E0452E512C66244F
:101600006394712C78E2C72ED12CEDEEAE2EE1E082
:10161000BE2E9E012F5F3F4F490180918304882396
:1016200069F08091B9041092830491E0811190E0F7
:101630009093B9048111E0C00E94DE038091B90447
:10164000882359F3909180048091B204992349F141
:101650002091B3043091B404109280042115310517
:1016600009F0D9C09091CA049923D9F0E82FF0E08D
:10167000EE0FFF1FED55FF4F259134919091B80467
:10168000E92FF0E03196EE0FFF1FE20FF31F2591D7
:101690003491232B09F4B4C09F5F9093B804309227
:1016A0003601909182042091B3043091B4049923BF
:1016B000F1F01092820421303105C9F49091BF04F9
:1016C00041E0911140E04093BF0450E040E09111AF
:1016D00008C09091B50446E050E0992311F041E034
:1016E00050E05093B7044093B60430923601909185
:1016F0008104992309F451C31092810421303105EA
:1017000009F03FC32091B6043091B704A9014250BB
:1017100051094230510508F0C2C0215031093093BF
:10172000B7042093B604309236018111D1C0809164
:10173000BA0481116FC10E947006F62EE72E282E82
:1017400098A38091BB049091BC04A091BD04B0917A
:10175000BE048C8F9D8FAE8FBF8F20E030E040EABB
:1017600050E4BC01CD010E94011118168CF420E058
:1017700030E040EA50E4F88EE98E2A8E98A19B8FE3
:10178000688D798D8A8D9B8D0E94A20F87FD1EC06A
:1017900020E030E040EA50E46C8D7D8D8E8D9F8D91
:1017A0000E94A20F87FF94C020E030E040EA50E49E
:1017B000F88EE98E2A8EA8A1AB8F688D798D8A8DDF
:1017C0009B8D0E94011118160CF082C00E943F07E9
:1017D0003092BA041092B4041092B3048091B2040F
:1017E0008F5F8093B2041092B8041092BF0482EC11
:1017F00094E00E94C9036CC081E00E941D051ECFC9
:101800007092B4046092B3041092B7041092B604BC
:101810001092BA0444CF2130310509F042CF9091A3
:10182000BF04992309F43DCF2091B6043091B70449
:101830002630310529F45092B7044092B6042FCFD8
:101840002430310571F42091B504233008F027CFFE
:101850002F5F2093B50430E03093B7042093B60493
:101860001ECFA901415051094330510508F017CF4F
:101870009091B5044FEF420F50E04F5F5F4F9417C8
:10188000150621F01CF02F5F3F4FE6CF933098F202
:10189000A5E0B0E0B093B704A093B60400CF213028
:1018A000310531F0A901445051094330510538F454
:1018B0001092B7041092B6041092BF0434CF232BB9
:1018C00009F033CF1092B4041092B3043092360171
:1018D000F090B204B1E0FB1248C08091B304909143
:1018E000B404019709F0F9C08091BA048111F5C0E0
:1018F00089E190E00E9483070E949B0820E030E08D
:1019000040EC51E4688F798F8A8F9B8F688D798D39
:101910008A8D9B8D0E94011118163CF50E943F078D
:10192000F092BA041092B4041092B3048091B204FD
:101930008F5F8093B2041092B8041092BF0482ECBF
:1019400094E00E94C9030E947F070E943808688FB4
:10195000798F8A8F9B8F688D798D8A8D9B8D0E9460
:1019600020107093C1046093C0048091B20482304F
:1019700009F050C08091B3049091B404019709F02C
:10198000ACC08091BA048111A8C00E943808688F49
:10199000798F8A8F9B8F688D798D8A8D9B8D0E9420
:1019A0002010462F572F8091C0049091C1047A01D6
:1019B000E81AF90AFF92EF92BF92AF921F9221E1CB
:1019C0002F939F928F920E94C0116BE080E00E9443
:1019D0002605C4010E9445050FB6F894DEBF0FBE70
:1019E000CDBF9AE0E916F104ACF00E943F073092B7
:1019F000BA041092B4041092B3048091B2048F5FC1
:101A00008093B2041092B8041092BF0482EC94E068
:101A10000E94C9038091B204833009F05EC08091B6
:101A2000B3049091B404019709F057C08091BA04AF
:101A3000811153C08091B6049091B704892B09F0AD
:101A40004CC0CE0142960E9418098E899F890E943F
:101A50006C09882311F00F5F1F4F80919B048F5FEB
:101A6000883208F09FC180939B04209199043091A3
:101A70009A0420173107C9F02017310708F09BC1DD
:101A8000C8010A96B6010E94EB0E862F6AE0600F2D
:101A9000A8E2A89F601911240E9426058EE20E94E8
:101AA0002E0510939A040093990405341105A8F0AB
:101AB0000E943F073092BA041092B4041092B3040B
:101AC0008091B2048F5F8093B2041092B804109298
:101AD000BF0482EC94E00E94C9038091B204853077
:101AE00009F000C18091B3049091B404019709F00A
:101AF00033C18091BA0481112FC18091B6049091B5
:101B0000B704892B09F028C10E94A50946E050E0DE
:101B100060EF71E08BE095E00E947C11892B59F019
:101B200046E050E067EF71E08BE095E00E947C11A9
:101B3000892B09F0D7C041E954E065E974E08BE0F6
:101B400095E00E94C5098091950490919604A0911A
:101B50009704B0919804888F998FAA8FBB8F20E04B
:101B600030E0A901BC01CD010E94A20F882309F435
:101B7000B9C08091910490919204A0919304B09186
:101B800094048C8F9D8FAE8FBF8F20E030E0A90131
:101B9000BC01CD010E94A20F882309F4A3C080914B
:101BA0009004811120C0888D998DAA8DBB8D809362
:101BB0008C0490938D04A0938E04B0938F042CEB2F
:101BC00034E743E95CE36C8D7D8D8E8D9F8D0E94A3
:101BD000360F609388047093890480938A049093ED
:101BE0008B043092900420918C0430918D044091AC
:101BF0008E0450918F04688D798D8A8D9B8D0E9403
:101C0000350F462F572FBC01488F598F6A8F7B8F16
:101C100020E030E0A901688D798D8A8D9B8D0E942E
:101C2000A20F87FF09C0888D998DAA8DBB8DB058F2
:101C3000888F998FAA8FBB8F209188043091890457
:101C400040918A0450918B046C8D7D8D8E8D9F8D7B
:101C50000E94350F462F572FBC014C8F5D8F6E8F22
:101C60007F8F20E030E0A9016C8D7D8D8E8D9F8D62
:101C70000E94A20F87FF09C08C8D9D8DAE8DBF8DF8
:101C8000B0588C8F9D8FAE8FBF8F2FE632E143E02F
:101C90005AE3688D798D8A8D9B8D0E94A20F87FFF4
:101CA00021C02FE632E143E05AE36C8D7D8D8E8DAD
:101CB0009F8D0E94A20F87FF15C00E943F073092A0
:101CC000BA041092B4041092B3048091B2048F5FEE
:101CD0008093B2041092B8041092BF0482EC94E096
:101CE0000E94C9038091B2048430B1F58091B3049D
:101CF0009091B404019781F58091BA0481112CC0B0
:101D00008091B6049091B704892B31F580918704B6
:101D1000811104C00E948B09309287048091850450
:101D20009091860401969093860480938504803573
:101D3000910590F00E948D0981E00E941D0510928E
:101D4000B904109287049FEFAFE3B2E09150A04036
:101D5000B040E1F700C000008091CA04811104C0C6
:101D600082EC94E00E941C030E94320489E190E01E
:101D70000E9454078FEF93EB0197F1F700C000002A
:101D80004CCC232B09F0A4CD8091B804882309F40E
:101D90009FCD81508093B80499CD2130310509F051
:101DA00097CDC3CC10929B040115110509F45DCEAB
:101DB000015011095ACEC9010A96B6010E94EB0ED4
:101DC000862F6AE0620FB8E2B89F601911240E9462
:101DD000260580E264CEAA1BBB1B51E107C0AA1FE7
:101DE000BB1FA617B70710F0A61BB70B881F991FBC
:101DF0005A95A9F780959095BC01CD01089597FB60
:101E0000072E16F4009407D077FD09D00E94EB0E40
:101E100007FC05D03EF4909581959F4F08957095ED
:101E200061957F4F0895A1E21A2EAA1BBB1BFD01ED
:101E30000DC0AA1FBB1FEE1FFF1FA217B307E407A9
:101E4000F50720F0A21BB30BE40BF50B661F771F01
:101E5000881F991F1A9469F76095709580959095E1
:101E60009B01AC01BD01CF0108955058BB27AA27A3
:101E70000E944D0F0C94C7100E94B91038F00E94B8
:101E8000C01020F039F49F3F19F426F40C94B610DA
:101E90000EF4E095E7FB0C94B010E92F0E94D810E7
:101EA00058F3BA17620773078407950720F079F48F
:101EB000A6F50C94FA100EF4E0950B2EBA2FA02D77
:101EC0000B01B90190010C01CA01A0011124FF27E7
:101ED000591B99F0593F50F4503E68F11A16F040E2
:101EE000A22F232F342F4427585FF3CF46953795E1
:101EF0002795A795F0405395C9F77EF41F16BA0BA6
:101F0000620B730B840BBAF09150A1F0FF0FBB1F53
:101F1000661F771F881FC2F70EC0BA0F621F731F9C
:101F2000841F48F4879577956795B795F7959E3FF9
:101F300008F0B0CF9395880F08F09927EE0F97958A
:101F4000879508950E948C1008F481E008950E94FE
:101F5000BB0F0C94C7100E94C01058F00E94B9101B
:101F600040F029F45F3F29F00C94B01051110C940B
:101F7000FB100C94B6100E94D81068F39923B1F3AB
:101F8000552391F3951B550BBB27AA27621773079F
:101F9000840738F09F5F5F4F220F331F441FAA1F33
:101FA000A9F335D00E2E3AF0E0E832D091505040EF
:101FB000E695001CCAF72BD0FE2F29D0660F771F9D
:101FC000881FBB1F261737074807AB07B0E809F083
:101FD000BB0B802DBF01FF2793585F4F3AF09E3F08
:101FE000510578F00C94B0100C94FB105F3FE4F3B3
:101FF000983ED4F3869577956795B795F7959F5F4B
:10200000C9F7880F911D9695879597F90895E1E096
:10201000660F771F881FBB1F621773078407BA07F5
:1020200020F0621B730B840BBA0BEE1F88F7E09550
:1020300008950E9420106894B1110C94FB1008952B
:102040000E94E01088F09F5798F0B92F9927B75158
:10205000B0F0E1F0660F771F881F991F1AF0BA954C
:10206000C9F714C0B13091F00E94FA10B1E00895A0
:102070000C94FA10672F782F8827B85F39F0B93F92
:10208000CCF3869577956795B395D9F73EF49095FF
:102090008095709561957F4F8F4F9F4F0895E8947D
:1020A00009C097FB3EF490958095709561957F4FA0
:1020B0008F4F9F4F9923A9F0F92F96E9BB2793954E
:1020C000F695879577956795B795F111F8CFFAF45E
:1020D000BB0F11F460FF1BC06F5F7F4F8F4F9F4F8F
:1020E00016C0882311F096E911C0772321F09EE8ED
:1020F000872F762F05C0662371F096E8862F70E053
:1021000060E02AF09A95660F771F881FDAF7880F2C
:102110009695879597F90895990F0008550FAA0B82
:10212000E0E8FEEF16161706E807F907C0F01216EA
:102130001306E407F50798F0621B730B840B950BED
:1021400039F40A2661F0232B242B252B21F4089542
:102150000A2609F4A140A6958FEF811D811D0895DF
:1021600097F99F6780E870E060E008959FEF80EC4A
:10217000089500240A9416161706180609060895ED
:1021800000240A9412161306140605060895092E53
:102190000394000C11F4882352F0BB0F40F4BF2BC2
:1021A00011F460FF04C06F5F7F4F8F4F9F4F089502
:1021B00057FD9058440F551F59F05F3F71F04795F8
:1021C000880F97FB991F61F09F3F79F087950895DD
:1021D000121613061406551FF2CF4695F1DF08C0FC
:1021E000161617061806991FF1CF86957105610519
:1021F00008940895E894BB2766277727CB0197F9C1
:1022000008950E948C1008F48FEF08950E94191110
:102210000C94C7100E94B91038F00E94C01020F032
:10222000952311F00C94B0100C94B61011240C945A
:10223000FB100E94D81070F3959FC1F3950F50E0EA
:10224000551F629FF001729FBB27F00DB11D639F68
:10225000AA27F00DB11DAA1F649F6627B00DA11D0E
:10226000661F829F2227B00DA11D621F739FB00DB4
:10227000A11D621F839FA00D611D221F749F332724
:10228000A00D611D231F849F600D211D822F762FBD
:102290006A2F11249F5750409AF0F1F088234AF09A
:1022A000EE0FFF1FBB1F661F771F881F9150504006
:1022B000A9F79E3F510580F00C94B0100C94FB10D0
:1022C0005F3FE4F3983ED4F3869577956795B7958D
:1022D000F795E7959F5FC1F7FE2B880F911D9695A7
:1022E000879597F90895662777270C94C81340EBD4
:1022F00054E00E9499110895FB01DC0141505040C7
:1023000030F08D910190801919F40020B9F7881BE5
:10231000990B0895FB01DC014150504048F00190B9
:102320000D920020C9F701C01D9241505040E0F7C6
:102330000895FA01A191B081009719F41097E1F086
:10234000CD01DC01CD010D90002011F4C00113C0BE
:10235000FB012191222319F02015D9F7F3CFFB01BE
:102360002191201519F41E92119606C02223C1F75F
:102370000D900020A1F7D001FA01A193B083089538
:10238000AEE0B0E0E6ECF1E10C9456160D891E8942
:102390008F89988D26E02C831A83098397FF02C0CA
:1023A00080E090E801979E838D83AE01455E5F4F8C
:1023B000698D7A8DCE0101960E94F0114D815E816A
:1023C00057FD0AC02F813885421753070CF49A0134
:1023D000020F131FF80110822E96E4E00C9472167F
:1023E000AFE0B0E0E6EFF1E10C9448167C013B0170
:1023F0008A01DC0117961C921E92169713968C91F7
:1024000081FFC3C19AE0292EFE0131964F01D70109
:1024100013969C91F30193FD859193FF81913F0168
:10242000882309F448C1853239F493FD859193FFDF
:1024300081913F01853229F4B70190E00E94AC15EB
:10244000E6CFB12C412C512CBFE1B51538F08B32C1
:1024500009F188F4803201F1833221F157FC3AC04E
:1024600020ED280F2A3040F556FE1FC0B29C200DEB
:102470001124B22E06C08D3291F0803379F7689422
:1024800050F8F30193FD859193FF81913F018111F4
:10249000DBCF20C0689451F8689452F8F2CF68946A
:1024A00053F8EFCF689454F8ECCF429C200D1124E0
:1024B000422E689455F8E5CF8E3229F456FCFBC0C5
:1024C000689456F8DECF8C3619F4689457F8D9CF53
:1024D0008836B9F2982F9F7D95549330C0F083369B
:1024E000A1F18337C1F1833509F05BC0D801CD90EC
:1024F000DD908D016B2D70E056FC02C06FEF7FEF19
:10250000C6010E9496155C01689457F80AC00C5FDA
:102510001F4FEFE3E983AA24A394B12C6401E8944C
:1025200057F853FC04C04A141B0409F018F5342C66
:10253000A114B10431F5332009F469CFB70180E269
:1025400090E00E94AC153A94F6CFD8018C91898323
:102550000E5F1F4FE0CFF801C190D1908F016B2D1E
:1025600070E056FC02C06FEF7FEFC6010E94A1151C
:102570005C01D5CFB70180E290E00E94AC154A948F
:10258000D2CFF60157FC859157FE81916F01B701BB
:1025900090E00E94AC1531103A94B1E0AB1AB1084A
:1025A000C7CF843619F0893609F074C0F80157FE98
:1025B0006AC061917191819191918F01E52DEF76C2
:1025C000DE2E97FF09C090958095709561957F4F9D
:1025D0008F4F9F4F6894D7F82AE030E0A4010E9403
:1025E000DC15C82EC818AC2C5D2CD6FE0CC0E894A7
:1025F00050F8CB1440F4D4FE05C0D2FC03C05D2DCE
:102600005E7E552EAB2C54FE98C0FE01EC0DF11DE4
:102610008081803309F08AC0652D697E562E752D24
:102620007870372E53FC98C050FE92C0BC2CA41476
:1026300018F44C0CB42CBA1854FE94C0B70180E3C3
:1026400090E00E94AC1552FE09C088E790E051FE70
:1026500002C088E590E0B7010E94AC15CB1408F4E5
:102660008DC0CA94D12C8FEFC81AD80AC80CD91CB7
:10267000D6018E916D01B70190E00E94AC158C14CB
:102680009D04B1F758CF61917191072E000C880B12
:10269000990B93CFD52CE894D4F82AE030E0853715
:1026A00039F1F52DF97FDF2E8037A9F058F4883500
:1026B000A9F08F36D9F0F701868197812F96E2E154
:1026C0000C9464168837B9F7D4FE02C06894D2F827
:1026D00020E130E00DC06894D4F8F6CF54FE03C07A
:1026E0002F2F2660D22E20E132E002C028E030E019
:1026F000F801D7FE15C041915191619171914C87BC
:102700005D876E877F878F01A4016C857D858E85AF
:102710009F850E94DC15C82EC818E894D7F863CFAF
:1027200081919191AC0170E060E0E9CF52FC02C070
:10273000A39475CFA394A39472CF852D867809F4C2
:102740006ECFF6CFB70180E290E00E94AC15A39463
:10275000A414C0F3312C70CF342C3A18A41408F40C
:102760006BCFF8CF852D867809F478CF8BE251FEB8
:1027700080E257FC8DE2B70190E06ECFB70180E3B5
:1027800090E00E94AC15BA9469CF8FEF9FEF96CF7F
:10279000A8E0B0E0EEECF3E10C9450168D839E833C
:1027A0006B016115710529F0ED81FE81DB01ED936F
:1027B000FC93ED80FE8097012F5F3F4F3E832D837A
:1027C000D7010C91802F90E00E9475155C01892B38
:1027D00081F70D32D9F5ED81FE81008197012E5FE1
:1027E0003F4F3E832D8311E0ED80FE80F1E0EF1A34
:1027F000F10843E050E060E770E0C7010E947E15F9
:10280000892B79F5ED80FE8022E0E20EF11C45E097
:1028100050E06BE670E0C7010E947E15892B29F419
:10282000ED80FE8037E0E30EF11CC114D10419F0F5
:10283000D601ED92FC9220E030E040E85FE7112302
:1028400039F120E030E040E85FEF22C00B3239F48C
:10285000AD81BE810C91F7013296FE83ED8310E0CD
:10286000C3CF43E050E068E670E0C7010E947E15E8
:10287000892BD1F4C114D10409F42EC1ED81FE815C
:102880003296D601ED93FC9320E030E040EC5FE718
:1028900029833A834B835C8369817A818B819C8114
:1028A0002896EAE00C946C16F12CE12C19821A821D
:1028B0001B821C82F0EDF00FFA30B8F5E12FE260D8
:1028C000812F887012FF0CC0811103C03FEFE31A03
:1028D000F30AAD81BE810D91BE83AD831E2FEACF79
:1028E000882319F041E0E41AF108A5E0B0E029815D
:1028F0003A814B815C810E943D16DC01CB01880F3F
:10290000991FAA1FBB1F9C01AD012F0F311D411D37
:10291000511D29833A834B835C83283939494949BE
:102920005941B8F2E12FE660D4CFFE3F29F413FD00
:1029300025C0E12FE860CDCF0F7D0534F9F4ED819E
:10294000FE8180818D3241F410619F012E5F3F4FE7
:10295000818142E050E009C02D813E818B3209F433
:1029600055C02F5F3F4F41E050E080538A3008F45C
:1029700056C0F901E41BF50BFE83ED8311FF0AC07D
:10298000C114D10439F02D813E8121503109F60165
:102990003183208369817A818B819C810E944F10D1
:1029A000462F572FBC014D835E836F83788713704A
:1029B000133039F4DC01CA01B0588D839E83AF8394
:1029C000B8872D813E814F81588529833A834B8377
:1029D0005C8320E030E0A9016D817E818F81988544
:1029E0000E94A20F882309F457CFF7FE70C0F1941C
:1029F000E194F10847E850E05E834D83CD80DE80AE
:102A000038E1C31AD10800E210E038C02E5F3F4F12
:102A1000AD81BE8111968C919CCF2D813E81F0E8D5
:102A2000AF16FCE0BF065CF4A501440F551F440F30
:102A3000551FA40EB51EAA0CBB1CA80EB11CD901B3
:102A40008D91BE83AD8380538A3038F314FF03C069
:102A5000B194A194B108EA0CFB1C90CF259135915B
:102A60004591549169817A818B819C810E940611E4
:102A700069837A838B839C83E01AF10A89819A8126
:102A8000AB81BC81ED81FE81E016F1063CF7349705
:102A9000FE83ED8315950795EC15FD0579F78A2FD3
:102AA000880F8B2F881F8F3F59F020E030E0A9015D
:102AB00069817A818B819C810E94A20F8111ECCE69
:102AC00082E290E090938C0580938B05E5CE2FE910
:102AD00030E03E832D8392CF80E090E0A0ECBFE712
:102AE00089839A83AB83BC83D7CE91110C943A1619
:102AF000803219F089508550C8F70895FB01DC0138
:102B00004150504088F08D9181341CF08B350CF48D
:102B1000805E659161341CF06B350CF4605E861B41
:102B2000611171F3990B0895881BFCCFFC0105908E
:102B3000615070400110D8F7809590958E0F9F1FBF
:102B40000895FC016150704001900110D8F7809504
:102B500090958E0F9F1F08950F931F93CF93DF9330
:102B6000182F092FEB018B8181FD09C01FEF0FEF9B
:102B7000812F902FDF91CF911F910F91089582FFA8
:102B800014C02E813F818C819D81281739073CF428
:102B9000E881F981CF0101969983888310838E8122
:102BA0009F8101969F838E83E3CFE885F985812FEE
:102BB0000995892BA1F3DACFFA01AA27283051F120
:102BC000203181F1E8946F936E7F6E5F7F4F8F4F5E
:102BD0009F4FAF4FB1E03ED0B4E03CD0670F781FBD
:102BE000891F9A1FA11D680F791F8A1F911DA11DA2
:102BF0006A0F711D811D911DA11D20D009F46894DB
:102C00003F912AE0269F11243019305D3193DEF682
:102C1000CF010895462F4770405D4193B3E00FD038
:102C2000C9F7F6CF462F4F70405D4A3318F0495D23
:102C300031FD4052419302D0A9F7EACFB4E0A69506
:102C40009795879577956795BA95C9F70097610528
:102C5000710508959B01AC010A2E0694579547957E
:102C600037952795BA95C9F7620F731F841F951F73
:102C7000A01D08959927882708950E947F16A59F73
:102C8000900DB49F900DA49F800D911D1124089567
:102C90002F923F924F925F926F927F928F929F926C
:102CA000AF92BF92CF92DF92EF92FF920F931F935A
:102CB000CF93DF93CDB7DEB7CA1BDB0B0FB6F8940B
:102CC000DEBF0FBECDBF09942A88398848885F844B
:102CD0006E847D848C849B84AA84B984C884DF80BC
:102CE000EE80FD800C811B81AA81B981CE0FD11DA0
:102CF0000FB6F894DEBF0FBECDBFED010895A29FC1
:102D0000B001B39FC001A39F700D811D1124911DBF
:102D1000B29F700D811D1124911D0895F894FFCF6D
:102D2000FE010F022D024A0266029202AF02C002A9
:102D3000EA0204031A03290340035C0368038903BE
:102D40009F03C103BD03BD03BD030000D803E2031D
:102D5000ED03FA030A04015226056400200664000C
:102D6000E00696007405C80001C80000C80001C84C
:102D70000000C80001580200C80001C80000580245
:102D800001C80000C80001580200C80001C80000C6
:102D9000580201C80000580201C80000580201583A
:102DA0000200C80001580200C80001C80000C800A5
:102DB00001C80000580201C800007805015802004F
:102DC000C80001580200580201C8000078052250CE
:102DD000757A7A6C652023313A2049742773206212
:102DE000726967687420696E206865726521005099
:102DF000757A7A6C652023313A20497427732064F0
:102E000061726B20696E206865726521002564001F
:102E1000244750524D4300244750474741004E6FCE
:102E200020636C7565732072656D61696E2E00415B
:102E3000726520796F75207375726520796F7520C2
:102E400077616E74206120636C75653F00436C6927
:102E5000636B204E45585420746F20756E6C6F6301
:102E60006B206120636C75652E00596F75206D694C
:102E7000676874206861766520746F2067657420C8
:102E800075702E2E2E00536F6D657468696E672005
:102E9000696E20796F757220726F6F6D20636F6E2F
:102EA00074726F6C73206272696768746E65737395
:102EB000210054727920666C697070696E672061B8
:102EC000206C69676874207377697463682E0044A6
:102ED0006F20796F752073656520746861743F0099
:102EE00049207265636F676E697A652074686174E2
:102EF000207061747465726E2E2E2E204D6F727369
:102F0000652C2072696768743F00446F20617320EC
:102F1000697420736179732120465245455A4520D2
:102F20006D65210054686520736B79206973207486
:102F30006865206C696D6974210053656520616E58
:102F4000792068696C6C733F0050657268617073BA
:102F50002061206C696C27206869676865723F0092
:102F6000497427732061206E69636520646179204C
:102F7000666F7220612077616C6B2E00446F6E2744
:102F8000742073746F70210043616E277420626532
:102F90002073697474696E672027726F756E642080
:102FA000616C6C206461792100596F75206D6967CF
:102FB0006874206E6565642061206D61702E004C20
:102FC0006F6F6B73206C696B65206120646573742F
:102FD000696E6174696F6E20746F206D652E2E2E80
:102FE0000056697369742074686520636F6F72643A
:102FF000696E61746573210050757A7A6C6520235F
:10300000320050757A7A6C652023333A0050757A15
:103010007A6C652023343A202E0050757A7A6C65DC
:1030200020352070726F6D70740050757A7A6C65FF
:1030300020362070726F6D707400456E61626C6531
:10304000204572723A202530325800526561642062
:103050004572723A202530325800416C742E207728
:1030600072697465206572726F7200416C742E20F3
:103070007374617274206572726F720049324320FA
:1030800072656164206572726F7220200054656DF4
:10309000702072656164206572726F7220002C006E
:00000001FF
