:100000000C944D000C946A000C946A000C946A00E5
:100010000C9401010C946A000C946A000C946A0020
:100020000C946A000C946A000C946A000C946A00A8
:100030000C946A000C946A000C946A000C946A0098
:100040000C946A000C946A000C946A000C946A0088
:100050000C946A000C946A000C946A000C946A0078
:100060000C946A000C946A003E3E2055534520458E
:10007000453435394C203C3C373839303132333413
:10008000003E3E2061743332382D352E6320203CF3
:100090003C37383930313233340011241FBECFEFB2
:1000A000D8E0DEBFCDBF13E0A0E0B1E0E2ECF8E1C4
:1000B00002C005900D92A83BB107D9F723E0A8EB49
:1000C000B3E001C01D92A33DB207E1F70E941D06F7
:1000D0000C945F0C0C9400000F931F93CF93DF934D
:1000E000EC018B0181E00E94E801088319831B82E7
:1000F0001A821D821C821F821E8218861092640141
:10010000DF91CF911F910F9108951F93CF93DF93AC
:10011000EC018885811109C08A819B81E881F98180
:10012000E80FF91F2081211106C081E08887DF9147
:10013000CF911F91089501969B838A8310818E81B0
:100140009F8144973CF08C819D811F821E82019685
:100150009D838C838C819D818430910534F79C0133
:1001600097FF02C02F5F3F4F359527953E8144E1B1
:10017000249F300D112462E070E00E940908632F73
:100180000E94F101812F0E94F9018E819F810196C9
:100190009F838E83CCCFCF93DF93CCEBD3E01882B9
:1001A0001A8219821B821D821C821E8218860E945E
:1001B0003B0369877A878B879C871D86E881F0E0FF
:1001C000EE0FFF1FEA5CFE4F0190F081E02D608191
:1001D00071818AEC93E0DF91CF910C946C0087B130
:1001E000807F87B988B18F6088B9E8E6F0E08081C8
:1001F00082608083ECE6F0E080818F608083789479
:1002000008951F921FB61F9211248F939F933299C6
:1002100003C081E08093BB03319903C081E08093E8
:10022000BA03309903C081E08093B903339903C0C6
:1002300081E08093B8038091BB0381110CC0809151
:10024000BA03811108C08091B903811104C0809163
:10025000B8038823A1F08FEF93E20197F1F700C074
:100260000000329BFECF319BFCCF309BFACF339BFB
:10027000F8CF8FEF93E20197F1F700C000009F9154
:100280008F911F901FBE1F90189580916401882345
:1002900009F456C08091BD039091BE038130910551
:1002A00009F06AC0E091BC032091C0033091C10302
:1002B000E1111CC021153105C9F420E030E040EA0D
:1002C00050E46091C5037091C6038091C70390917B
:1002D000C8030E94B90866E671E0181614F06BE7CF
:1002E00071E08AEC93E00E946C0028C060910401E8
:1002F0007091050126303105A1F3609102017091E2
:1003000003012430310569F360910001709101010E
:100310002530310531F322303105E1F060F48E2FC4
:1003200090E0232B71F4880F991FFC01E65DFE4FCE
:1003300060817181D6CF23303105A9F0109264011C
:10034000089526E0289FF001299FF00D1124EA5F0F
:10035000FE4FEECF86E0E89FF0011124EA5FFE4FEA
:1003600062817381BECF86E0E89FF0011124EA5FCD
:10037000FE4F64817581B5CF892B01F7E091BC03F5
:10038000F0E0EE0FFF1FEA5CFE4F8091C20390E0A9
:10039000880F991F20813181820F931FFC01C8CFE4
:1003A0009BB19F709BB99BB1807F892B8BB985B125
:1003B000837F85B92A9A2A9A2A980895CF93C82FBD
:1003C0000E94D0018C2F8295807FCF910C94D00118
:1003D0002C980E94DE0186E69EE00197F1F700006E
:1003E00008958295880F880F807C860F80680C9412
:1003F000E8012C9A0E94DE0186E69EE00197F1F763
:1004000000000895CF93DF93EC01FE0184912196C3
:10041000811103C0DF91CF9108950E94F901F5CFBA
:10042000CF93DF93EC018991811103C0DF91CF91CC
:1004300008950E94F901F7CF8AB1806F8AB984B11B
:100440008C6184B92C988FEF9BE60197F1F700C07F
:10045000000080E30E94D0018FEF93E20197F1F753
:1004600000C0000080E30E94D0018DED90E0019774
:10047000F1F780E30E94D00186E69EE00197F1F754
:10048000000080E20E94D00186E69EE00197F1F72D
:10049000000088E20E94E8018FE00C94E80186E603
:1004A0009EE00197F1F7000008950F931F93A82F86
:1004B000000000000000000000004115510509F493
:1004C00068C084EA8093BC008091BC0087FFFCCFA9
:1004D0008091B900887F883031F58A2F8E7F809394
:1004E000BB0084E88093BC008091BC0087FFFCCFF8
:1004F0008091B900887F8831C9F08032A1F494E9F5
:100500009093BC0010C081918093BB006093BC00AD
:100510008091BC0087FFFCCF8091B900887F883232
:1005200049F0803361F31F910F910895FB01460F4D
:10053000571F64E84E175F0731F740E101151105B9
:1005400069F514C0F90194EC0130110589F484E8CF
:100550008093BC008091BC0087FFFCCF8091B900E4
:10056000887F883501F78091BB00808380E0C7CF0A
:100570009093BC008091BC0087FFFCCF8091B900B4
:10058000887F01501109803571F68091BB008193FD
:10059000DBCF80E00115110531F248E084EA809359
:1005A000BC008091BC0087FFFCCF8091B900887FA0
:1005B0004813B9CFA160A093BB0084E88093BC002E
:1005C0008091BC0087FFFCCF8091B900887F803488
:1005D00009F4B8CF883409F0A6CF91CF1092B900B2
:1005E0008093B80008950F931F93CF93DF93CDB7F7
:1005F000DEB763970FB6F894DEBF0FBECDBF80EABB
:100600008A8B83E08B8B10E000E030E020E042E05A
:1006100050E0BE016E5E7F4F809165010E945502E1
:10062000182F8823E9F060E082E00E94F1011F9218
:100630001F9383E593E09F938F931F9281E18F93A4
:100640008E010F5F1F4F1F930F930E947C09C801FB
:100650000E9410020FB6F894DEBF0FBECDBFFFCFD1
:1006600063960FB6F894DEBF0FBECDBFDF91CF917A
:100670001F910F9108950F931F93CF93DF93CDB7E1
:10068000DEB766970FB6F894DEBF0FBECDBF22E38C
:1006900083EB92E0215080409040E1F700C000C021
:1006A00084EB8E8B1A8A1B8A1C8A1D8A04E010E058
:1006B0009E012E5E3F4F41E050E0BE016A5E7F4FDB
:1006C000809165010E945502182F8823A1F160E0F6
:1006D00082E00E94F1011F921F9384E693E09F93B2
:1006E0008F931F9281E18F938E010F5F1F4F1F9396
:1006F0000F930E947C09C8010E9410022FEF8FEF18
:100700009CE2215080409040E1F700C000000FB60D
:10071000F894DEBF0FBECDBF60E070E080E89FEBD5
:1007200066960FB6F894DEBF0FBECDBFDF91CF91B6
:100730001F910F9108956A897B898C899D89681B17
:10074000790B90E080E00E94580827EE3DE147E2F7
:100750005EE30E94BE08E4CF219A0895299A089585
:1007600029980895CF93DF9300D000D000D0CDB763
:10077000DEB78D839E838D819E819C0150E040E099
:1007800060E472E48FE090E00E941D0829833A83C0
:100790004B835C83CA01B90124E130E040E050E0C2
:1007A0000E941D0890E080E04D815E8184179507CE
:1007B00049F426960FB6F894DEBF0FBECDBFDF9189
:1007C000CF910895299A50E040E04217530741F431
:1007D000299850E040E04217530749F40196E4CFCE
:1007E00068E16A95F1F700C04F5F5F4FEECF68E1B7
:1007F0006A95F1F700C04F5F5F4FEDCF84B181681C
:1008000084B9529A089595B198130AC085B121E030
:1008100030E001C0220F6A95EAF7822B85B908956E
:100820009BB1981309C08BB121E030E001C0220FC9
:100830006A95EAF7822B8BB9089595B198130BC08E
:1008400025B181E090E001C0880F6A95EAF78095B4
:10085000822385B908959BB198130AC02BB181E01A
:1008600090E001C0880F6A95EAF7809582238BB9E2
:1008700008950F931F93CF93DF93C82FD62F8A012C
:100880000E94030490E080E08017910791F46D2F9F
:100890008C2F0E941D04FFEF2FE382E0F1502040D7
:1008A0008040E1F700C00000DF91CF911F910F91D0
:1008B0000895E3E3F7E03197F1F70196E5CF289A41
:1008C0002F9A5A9A089528982F985A9808950E9416
:1008D0005F042FEF8FE794E0215080409040E1F7D4
:1008E00000C000000E9463042FEF8FE794E02150C6
:1008F00080409040E1F700C0000008950E945F042E
:100900002FEF8FE79DE0215080409040E1F700C03D
:1009100000000E9463042FEF8FE794E02150804095
:100920009040E1F700C0000008952FEF8FE79DE0B1
:10093000215080409040E1F700C0000008952FEF63
:100940008FE796E1215080409040E1F700C0000021
:1009500008950E9467040E9467040E947E040E941A
:1009600067042FEF8FE79DE0215080409040E1F732
:1009700000C000000E9467040E947E040E94670479
:100980002FEF8FE79DE0215080409040E1F700C0BD
:1009900000000E9467042FEF8FE79DE02150804008
:1009A0009040E1F700C000000E9467042FEF8FE73E
:1009B0009DE0215080409040E1F700C000000E947F
:1009C0007E040E947E040E9467040E9467042FEF49
:1009D0008FE79DE0215080409040E1F700C000008B
:1009E0000E9467042FEF8FE796E1215080409040EE
:1009F000E1F700C000000E947E040E947E042FEFF9
:100A00008FE79DE0215080409040E1F700C000005A
:100A10000E9467042FEF8FE796E1215080409040BD
:100A2000E1F700C0000008950F931F93CF93DF9369
:100A300000D0CDB7DEB786E2898388EB8A8310E0E9
:100A400000E030E020E042E050E0BE016F5F7F4F09
:100A500080EC0E945502882379F060E081E00E94DA
:100A6000F10183E793E00E9410020F900F90DF9155
:100A7000CF911F910F9108958FE19EE40197F1F7B7
:100A800000C0000089EB8A8310E000E030E020E045
:100A900042E050E0BE016F5F7F4F80EC0E94550244
:100AA000882339F060E081E00E94F10184E893E05E
:100AB000DACF9FEF24E38CE0915020408040E1F7B3
:100AC00000C00000D2CF0F931F93CF93DF93CDB719
:100AD000DEB728970FB6F894DEBF0FBECDBF81E01A
:100AE0008C8303E010E09E012F5F3F4F41E050E018
:100AF000BE016C5F7F4F80EC0E9455028823B9F0E5
:100B000060E081E00E94F10185E993E00E9410021B
:100B10006D817E818F81988528960FB6F894DEBF0F
:100B20000FBECDBFDF91CF911F910F9108958981A5
:100B300090E0B0E0A0E02AE0880F991FAA1FBB1F39
:100B40002A95D1F74A8150E070E060E032E0440F2E
:100B5000551F661F771F3A95D1F7842B952BA62B2F
:100B6000B72B2B812295269526952370AC01BD01CC
:100B7000422B4D835E836F837887CACF0F931F9379
:100B8000CF93DF9300D000D000D00F92CDB7DEB767
:100B900084E08B8302E010E09E012F5F3F4F41E035
:100BA00050E0BE016D5F7F4F80EC0E9455028823AC
:100BB000F9F060E081E00E94F10186EA93E00E9492
:100BC000100260E070E08AE794EC6C837D838E8392
:100BD0009F836C817D818E819F8127960FB6F894CB
:100BE000DEBF0FBECDBFDF91CF911F910F91089552
:100BF00089819A8198278927982724E09595879558
:100C00002A95E1F79C01990F440B550B2C833D83EA
:100C10004E835F83CA01B9010E945A0820E030E088
:100C200040E85DE36C837D838E839F836C817D814F
:100C30008E819F810E94BE08C8CFCDB7DEB72897AE
:100C40000FB6F894DEBF0FBECDBF0E941C020E94FB
:100C5000AC030E94FE030E94F3020E9414050E944E
:100C6000EF000E94CB00DD24D39404E010E0EE24DA
:100C7000E394F12C8091BB03882369F08091C30336
:100C80001092BB0391E0811190E09093C303811116
:100C9000E1C00E94CB008091C303882359F3809167
:100CA000B803882351F18091BD039091BE03109247
:100CB000B803009709F0DBC08091D2038823E9F0E4
:100CC0002091C203E091BC03F0E0EE0FFF1FEA5C4D
:100CD000FE4F822F90E00196880F991F408151812D
:100CE000840F951FDC018D919C91892B09F4B6C06E
:100CF0002F5F2093C203D09264012091BA038091A8
:100D0000BD039091BE032223D1F01092BA0381302B
:100D10009105A9F42091C90331E0211130E030930D
:100D2000C9032111E6C02091BF032111E5C026E0CF
:100D300030E03093C1032093C003D092640120912E
:100D4000B903222309F461C11092B90381309105DE
:100D500009F04FC18091C0039091C1039C012250C2
:100D600031092230310508F0CAC001979093C103C0
:100D70008093C003D09264018091BC039091C4031E
:100D8000892B09F0D5C00E943B03962EA72EB82EC2
:100D9000C92E8091C5039091C603A091C703B0915D
:100DA000C8038D839E83AF83B88720E030E040EA9C
:100DB00050E4BC01CD010E94B908181684F420E06B
:100DC00030E040EA50E49982AA82BB82CC826981F9
:100DD0007A818B819C810E94530887FD1DC020E091
:100DE00030E040EA50E46D817E818F8198850E94D9
:100DF000530887FF9DC020E030E040EA50E499822C
:100E0000AA82BB82CC8269817A818B819C810E947B
:100E1000B90818160CF08CC0D092C4031092BE030F
:100E20001092BD03E091BC03EF5FE093BC0310920E
:100E3000C2031092C903F0E0EE0FFF1FEA5CFE4F01
:100E40000190F081E02D608171818AEC93E00E9435
:100E50006C006EC081E00E94E8011DCFF092BE03DD
:100E6000E092BD031092C1031092C00344CF0197DA
:100E700009F043CF8091C903882309F43ECF8091C4
:100E8000C0039091C1038630910529F41093C103EA
:100E90000093C00330CF8430910571F48091BF037B
:100EA000833008F028CF8F5F8093BF0390E090934A
:100EB000C1038093C0031FCF9C012150310923300F
:100EC000310508F018CF4091BF032FEF280F30E015
:100ED0002F5F3F4F4217130619F014F00196E7CF2A
:100EE0004330A0F2E5E0F0E0F093C103E093C003EB
:100EF00002CF30E020E01DCF21E030E01ACF81307A
:100F0000910531F09C01245031092330310538F42A
:100F10001092C1031092C0031092C9032BCF892BEA
:100F200009F02ACF1092BE031092BD03D092640143
:100F30008091D203811104C08AEC93E00E94850065
:100F40008EE891E00E941002319915C081E00E9464
:100F5000E8018EE991E00E9410029FEFAFEBB1E251
:100F60009150A040B040E1F700C0000081E00E9435
:100F7000E801D09264010E94A90481EB91E00E94F3
:100F800010020E94BE0520E030E040E751E4698392
:100F90007A838B839C8369817A818B819C810E9477
:100FA000530887FF1DC0D092C4031092BE03109255
:100FB000BD03E091BC03EF5FE093BC031092C2035A
:100FC0001092C903F0E0EE0FFF1FEA5CFE4F0190A4
:100FD000F081E02D608171818AEC93E00E946C00C9
:100FE0000E944501EFEFF3EB3197F1F700C00000ED
:100FF00041CE892B09F09CCF8091C203882309F44C
:1010000097CF81508093C20391CF019709F090CF81
:10101000B3CE97FB072E16F4009407D077FD09D0C6
:101020000E943F0807FC05D03EF4909581959F4FA4
:101030000895709561957F4F0895A1E21A2EAA1B1D
:10104000BB1BFD010DC0AA1FBB1FEE1FFF1FA21778
:10105000B307E407F50720F0A21BB30BE40BF50B75
:10106000661F771F881F991F1A9469F760957095FE
:10107000809590959B01AC01BD01CF010895AA1BFD
:10108000BB1B51E107C0AA1FBB1FA617B70710F073
:10109000A61BB70B881F991F5A95A9F780959095A5
:1010A000BC01CD0108950E94950808F481E00895DF
:1010B000E89409C097FB3EF49095809570956195F2
:1010C0007F4F8F4F9F4F9923A9F0F92F96E9BB27A8
:1010D0009395F695879577956795B795F111F8CF24
:1010E000FAF4BB0F11F460FF1BC06F5F7F4F8F4F8F
:1010F0009F4F16C0882311F096E911C0772321F085
:101100009EE8872F762F05C0662371F096E8862F1C
:1011100070E060E02AF09A95660F771F881FDAF773
:10112000880F9695879597F90895990F0008550FA0
:10113000AA0BE0E8FEEF16161706E807F907C0F05D
:1011400012161306E407F50798F0621B730B840B65
:10115000950B39F40A2661F0232B242B252B21F43F
:1011600008950A2609F4A140A6958FEF811D811DDF
:1011700008950E94950808F48FEF08950E94D10801
:101180000C9442090E94340938F00E943B0920F077
:10119000952311F00C942B090C94310911240C9413
:1011A00076090E94530970F3959FC1F3950F50E0A3
:1011B000551F629FF001729FBB27F00DB11D639F09
:1011C000AA27F00DB11DAA1F649F6627B00DA11DAF
:1011D000661F829F2227B00DA11D621F739FB00D55
:1011E000A11D621F839FA00D611D221F749F3327C5
:1011F000A00D611D231F849F600D211D822F762F5E
:101200006A2F11249F5750409AF0F1F088234AF03A
:10121000EE0FFF1FBB1F661F771F881F91505040A6
:10122000A9F79E3F510580F00C942B090C94760988
:101230005F3FE4F3983ED4F3869577956795B7952D
:10124000F795E7959F5FC1F7FE2B880F911D969547
:10125000879597F9089597F99F6780E870E060E0B7
:1012600008959FEF80EC089500240A94161617063F
:1012700018060906089500240A9412161306140687
:1012800005060895092E0394000C11F4882352F0EA
:10129000BB0F40F4BF2B11F460FF04C06F5F7F4FA2
:1012A0008F4F9F4F089557FD9058440F551F59F089
:1012B0005F3F71F04795880F97FB991F61F09F3F43
:1012C00079F087950895121613061406551FF2CF6C
:1012D0004695F1DF08C0161617061806991FF1CFBC
:1012E00086957105610508940895E894BB276627E3
:1012F0007727CB0197F90895AEE0B0E0E2E8F9E096
:101300000C94360C0D891E898F89988D26E02C83CC
:101310001A83098397FF02C080E090E801979E83BB
:101320008D83AE01455E5F4F698D7A8DCE0101964A
:101330000E94AC094D815E8157FD0AC02F8138851E
:10134000421753070CF49A01020F131FF801108281
:101350002E96E4E00C94520CAFE0B0E0E2EBF9E042
:101360000C94280C7C013B018A01DC0117961C922D
:101370001E92169713968C9181FFC3C19AE0292E75
:10138000FE0131964F01D70113969C91F30193FD15
:10139000859193FF81913F01882309F448C18532EB
:1013A00039F493FD859193FF81913F01853229F4B2
:1013B000B70190E00E949A0BE6CFB12C412C512C42
:1013C000BFE1B51538F08B3209F188F4803201F1B4
:1013D000833221F157FC3AC020ED280F2A3040F526
:1013E00056FE1FC0B29C200D1124B22E06C08D32B5
:1013F00091F0803379F7689450F8F30193FD85916B
:1014000093FF81913F018111DBCF20C0689451F897
:10141000689452F8F2CF689453F8EFCF689454F878
:10142000ECCF429C200D1124422E689455F8E5CF54
:101430008E3229F456FCFBC0689456F8DECF8C3609
:1014400019F4689457F8D9CF8836B9F2982F9F7D50
:1014500095549330C0F08336A1F18337C1F18335C1
:1014600009F05BC0D801CD90DD908D016B2D70E04F
:1014700056FC02C06FEF7FEFC6010E94840B5C0137
:10148000689457F80AC00C5F1F4FEFE3E983AA2462
:10149000A394B12C6401E89457F853FC04C04A1497
:1014A0001B0409F018F5342CA114B10431F53320D4
:1014B00009F469CFB70180E290E00E949A0B3A9458
:1014C000F6CFD8018C9189830E5F1F4FE0CFF801D2
:1014D000C190D1908F016B2D70E056FC02C06FEF70
:1014E0007FEFC6010E948F0B5C01D5CFB70180E270
:1014F00090E00E949A0B4A94D2CFF60157FC859156
:1015000057FE81916F01B70190E00E949A0B311054
:101510003A94B1E0AB1AB108C7CF843619F08936D6
:1015200009F074C0F80157FE6AC061917191819110
:1015300091918F01E52DEF76DE2E97FF09C09095F2
:101540008095709561957F4F8F4F9F4F6894D7F826
:101550002AE030E0A4010E94CA0BC82EC818AC2CA7
:101560005D2CD6FE0CC0E89450F8CB1440F4D4FEA9
:1015700005C0D2FC03C05D2D5E7E552EAB2C54FE03
:1015800098C0FE01EC0DF11D8081803309F08AC006
:10159000652D697E562E752D7870372E53FC98C0B8
:1015A00050FE92C0BC2CA41418F44C0CB42CBA18E5
:1015B00054FE94C0B70180E390E00E949A0B52FE63
:1015C00009C088E790E051FE02C088E590E0B701CD
:1015D0000E949A0BCB1408F48DC0CA94D12C8FEFC3
:1015E000C81AD80AC80CD91CD6018E916D01B70152
:1015F00090E00E949A0B8C149D04B1F758CF619132
:101600007191072E000C880B990B93CFD52CE89481
:10161000D4F82AE030E0853739F1F52DF97FDF2E57
:101620008037A9F058F48835A9F08F36D9F0F70142
:10163000868197812F96E2E10C94440C8837B9F7A4
:10164000D4FE02C06894D2F820E130E00DC0689466
:10165000D4F8F6CF54FE03C02F2F2660D22E20E1FF
:1016600032E002C028E030E0F801D7FE15C0419119
:101670005191619171914C875D876E877F878F0152
:10168000A4016C857D858E859F850E94CA0BC82E1E
:10169000C818E894D7F863CF81919191AC0170E0BC
:1016A00060E0E9CF52FC02C0A39475CFA394A39449
:1016B00072CF852D867809F46ECFF6CFB70180E220
:1016C00090E00E949A0BA394A414C0F3312C70CF25
:1016D000342C3A18A41408F46BCFF8CF852D8678F3
:1016E00009F478CF8BE251FE80E257FC8DE2B7011E
:1016F00090E06ECFB70180E390E00E949A0BBA941D
:1017000069CF8FEF9FEF96CFFC010590615070403D
:101710000110D8F7809590958E0F9F1F0895FC01BA
:101720006150704001900110D8F7809590958E0F10
:101730009F1F08950F931F93CF93DF93182F092FA7
:10174000EB018B8181FD09C01FEF0FEF812F902FDF
:10175000DF91CF911F910F91089582FF14C02E81C8
:101760003F818C819D81281739073CF4E881F981FC
:10177000CF0101969983888310838E819F81019682
:101780009F838E83E3CFE885F985812F0995892B87
:10179000A1F3DACFFA01AA27283051F1203181F1E3
:1017A000E8946F936E7F6E5F7F4F8F4F9F4FAF4F69
:1017B000B1E03ED0B4E03CD0670F781F891F9A1F7C
:1017C000A11D680F791F8A1F911DA11D6A0F711D30
:1017D000811D911DA11D20D009F468943F912AE03C
:1017E000269F11243019305D3193DEF6CF01089524
:1017F000462F4770405D4193B3E00FD0C9F7F6CF55
:10180000462F4F70405D4A3318F0495D31FD40521C
:10181000419302D0A9F7EACFB4E0A69597958795B2
:1018200077956795BA95C9F7009761057105089591
:101830009B01AC010A2E069457954795379527953D
:10184000BA95C9F7620F731F841F951FA01D0895D5
:101850002F923F924F925F926F927F928F929F92C0
:10186000AF92BF92CF92DF92EF92FF920F931F93AE
:10187000CF93DF93CDB7DEB7CA1BDB0B0FB6F8945F
:10188000DEBF0FBECDBF09942A88398848885F849F
:101890006E847D848C849B84AA84B984C884DF8010
:1018A000EE80FD800C811B81AA81B981CE0FD11DF4
:1018B0000FB6F894DEBF0FBECDBFED010895F894CA
:0218C000FFCF58
:1018C200C301D401F2010F022B02570274027B0200
:1018D200820274027B02820274027B02820274021E
:1018E2007B02820274027B02820200008902990258
:1018F200A902B902C90260015A0154014E0148010C
:101902004201D902E8020000F902E80200000803DD
:10191200E80200001703E802000026033503000076
:101922004603000001524974277320627269676896
:101932007420696E206865726521004974277320DE
:101942006461726B20696E20686572652100456E64
:10195200746572656420696E206865726500486905
:101962006E743A204974277320636F6C642E2E2E96
:101972000053686F756C642062652072756E6E69C3
:101982006E67004E6F20636C7565732072656D61C2
:10199200696E2E0041726520796F752073757265CC
:1019A20020796F752077616E74206120636C756594
:1019B2003F00436C69636B204E45585420746F207E
:1019C200756E6C6F636B206120636C75652E0059B8
:1019D2006F75206D69676874206861766520746F21
:1019E200206765742075702E2E2E00536F6D6574FE
:1019F20068696E6720696E20796F757220726F6FE9
:101A02006D20636F6E74726F6C73206272696768A7
:101A1200746E657373210054727920666C697070FC
:101A2200696E672061206C696768742073776974D6
:101A320063682E00436C7565203100436C75652028
:101A42003200436C756520330050757A7A6C6520DC
:101A5200322070726F6D70740050757A7A6C6520E6
:101A6200332070726F6D70740050757A7A6C6520D5
:101A7200342070726F6D70740050757A7A6C6520C4
:101A8200352070726F6D70740050757A7A6C6520B3
:101A9200362070726F6D70740050757A7A6C6520A2
:101AA2003620696E74726F004D6F726520646961D1
:101AB2006C6F6775652E2E2E0050757A7A6C6520D4
:101AC2003520696E74726F0050757A7A6C652034B5
:101AD20020696E74726F0053746172742050757A4B
:101AE2007A6C6520330053746172742050757A7A6F
:101AF2006C652032006279207072657373696E675B
:101B0200206E6578740057616B696E672075702E60
:101B12002E2E00456E61626C65204572723A202558
:101B22003032580052656164204572723A20253085
:101B3200325800416C742E20777269746520657288
:101B4200726F7200416C742E20737461727420651E
:101B520072726F720049324320726561642065724D
:101B6200726F7220200054656D702072656164206E
:081B72006572726F7220000021
:00000001FF
