:100000000C944D000C946A000C946A000C946A00E5
:100010000C949A010C946A000C946A000C946A0087
:100020000C946A000C946A000C946A000C946A00A8
:100030000C946A000C946A000C946A000C946A0098
:100040000C946A000C946A000C946A000C946A0088
:100050000C946A000C946A000C946A000C946A0078
:100060000C946A000C946A003E3E2055534520458E
:10007000453435394C203C3C373839303132333413
:10008000003E3E2061743332382D352E6320203CF3
:100090003C37383930313233340011241FBECFEFB2
:1000A000D8E0DEBFCDBF17E0A0E0B1E0EAEEF6E1B8
:1000B00002C005900D92A63CB107D9F727E0A6EC47
:1000C000B7E001C01D92A93EB207E1F70E945F05AB
:1000D0000C94730B0C9400000F931F93CF93DF933A
:1000E000EC018B0181E00E94F801198308831B82D7
:1000F0001A821D821C821F821E8218861092800125
:10010000DF91CF911F910F9108951F93CF93DF93AC
:10011000FC01808581110AC0A081B18122813381D7
:10012000A20FB31F8C91ED01811106C081E0808781
:10013000DF91CF911F910895CE018A1B9B0B4991AE
:100140004F7DD1F746815781840F951F44973CF02E
:100150008481958117821682019695838483848198
:1001600095818430910514F72F5F3F4F33832283AD
:100170001C9166817781103219F461157105C1F205
:100180009C0197FF02C02F5F3F4FEF0135952795E8
:10019000562F44E1249F500D1124252F62E070E07A
:1001A0000E941B07622F0E940102812F0E940902F8
:1001B0008E819F8101969F838E83BACFCF93DF93E9
:1001C000C2EDD7E018821A8219821B821D821C821E
:1001D0001E8218860E944B0369877A878B879C87CB
:1001E0001D86E881F0E0EE0FFF1FEA5CFE4F0190F4
:1001F000F081E02D6081718180EE97E0DF91CF91F9
:100200000C946C0087B1807F87B988B18F6088B902
:10021000E8E6F0E0808182608083ECE6F0E08081B7
:100220008F6080837894089580918001882309F4F9
:100230004BC08091D3079091D4078130910509F08C
:1002400065C0E091D2078091D6079091D707E11160
:100250001BC00097C9F420E030E040EA50E4609110
:10026000DB077091DC078091DD079091DE070E942B
:10027000CB0769EE71E0181614F069E072E080EEC9
:1002800097E00E946C001EC060910401709105010E
:1002900086309105A1F360910201709103018430D1
:1002A000910569F36091000170910101853091051C
:1002B00031F38130910589F040F082309105A1F051
:1002C0000397D9F0109280010895F0E0EE0FFF1F20
:1002D000E65DFE4F60817181D2CF86E0E89FF0013C
:1002E0001124EA5FFE4FF6CF86E0E89FF00111246B
:1002F000EA5FFE4F62817381C2CF86E0E89FF00122
:100300001124EA5FFE4F64817581B9CF892BD1F644
:10031000E091D207F0E0EE0FFF1FEA5CFE4F809104
:10032000D80790E0880F991F20813181820F931F99
:10033000FC01D0CF1F920F920FB60F9211248F9312
:100340009F93329903C081E08093C907319903C01C
:1003500081E08093C807309903C081E08093C7078C
:10036000339903C081E08093C6078091C90781114A
:100370000CC08091C807811108C08091C707811106
:1003800004C08091C6078823A1F08FEF93E2019704
:10039000F1F700C00000329BFECF319BFCCF309BB9
:1003A000FACF339BF8CF8FEF93E20197F1F700C0BC
:1003B00000009F918F910F900FBE0F901F90189586
:1003C0009BB19F709BB99BB1807F892B8BB985B105
:1003D000837F85B92A9A2A9A2A980895CF93C82F9D
:1003E0000E94E0018C2F8295807FCF910C94E001D8
:1003F0002C980E94EE0186E69EE00197F1F700003E
:1004000008958295880F880F807C860F80680C94F1
:10041000F8012C9A0E94EE0186E69EE00197F1F722
:1004200000000895CF93DF93EC01FE0184912196A3
:10043000811103C0DF91CF9108950E940902F5CF89
:10044000CF93DF93EC018991811103C0DF91CF91AC
:1004500008950E940902F7CF8AB1806F8AB984B1EA
:100460008C6184B92C988FEF9BE60197F1F700C05F
:10047000000080E30E94E0018FEF93E20197F1F723
:1004800000C0000080E30E94E0018DED90E0019744
:10049000F1F780E30E94E00186E69EE00197F1F724
:1004A000000080E20E94E00186E69EE00197F1F7FD
:1004B000000088E20E94F8018FE00C94F80186E6C3
:1004C0009EE00197F1F7000008950F931F93A82F66
:1004D000000000000000000000004115510509F473
:1004E00068C084EA8093BC008091BC0087FFFCCF89
:1004F0008091B900887F883031F58A2F8E7F809374
:10050000BB0084E88093BC008091BC0087FFFCCFD7
:100510008091B900887F8831C9F08032A1F494E9D4
:100520009093BC0010C081918093BB006093BC008D
:100530008091BC0087FFFCCF8091B900887F883212
:1005400049F0803361F31F910F910895FB01460F2D
:10055000571F64E84E175F0731F740E10115110599
:1005600069F514C0F90194EC0130110589F484E8AF
:100570008093BC008091BC0087FFFCCF8091B900C4
:10058000887F883501F78091BB00808380E0C7CFEA
:100590009093BC008091BC0087FFFCCF8091B90094
:1005A000887F01501109803571F68091BB008193DD
:1005B000DBCF80E00115110531F248E084EA809339
:1005C000BC008091BC0087FFFCCF8091B900887F80
:1005D0004813B9CFA160A093BB0084E88093BC000E
:1005E0008091BC0087FFFCCF8091B900887F803468
:1005F00009F4B8CF883409F0A6CF91CF1092B90092
:100600008093B80008950F931F93CF93DF93CDB7D6
:10061000DEB763970FB6F894DEBF0FBECDBF80EA9A
:100620008A8B83E08B8B10E000E030E020E042E03A
:1006300050E0BE016E5E7F4F809181010E94650295
:10064000182F8823E9F060E082E00E9401021F92E7
:100650001F9381E697E09F938F931F9281E18F9381
:100660008E010F5F1F4F1F930F930E948E08C801CA
:100670000E9420020FB6F894DEBF0FBECDBFFFCFA1
:1006800063960FB6F894DEBF0FBECDBFDF91CF915A
:100690001F910F9108950F931F93CF93DF93CDB7C1
:1006A000DEB766970FB6F894DEBF0FBECDBF22E36C
:1006B00083EB92E0215080409040E1F700C000C001
:1006C00084EB8E8B1A8A1B8A1C8A1D8A04E010E038
:1006D0009E012E5E3F4F41E050E0BE016A5E7F4FBB
:1006E000809181010E946502182F8823A1F160E0AA
:1006F00082E00E9401021F921F9382E797E09F937E
:100700008F931F9281E18F938E010F5F1F4F1F9375
:100710000F930E948E08C8010E9420022FEF8FEFD6
:100720009CE2215080409040E1F700C000000FB6ED
:10073000F894DEBF0FBECDBF60E070E080E89FEBB5
:1007400066960FB6F894DEBF0FBECDBFDF91CF9196
:100750001F910F9108956A897B898C899D89681BF7
:10076000790B90E080E00E946A0727EE3DE147E2C6
:100770005EE30E94D007E4CF219A0895299A089554
:1007800029980895CF93DF9300D000D000D0CDB743
:10079000DEB78D839E838D819E819C0150E040E079
:1007A00060E472E48FE090E00E942F0729833A838F
:1007B0004B835C83CA01B90124E130E040E050E0A2
:1007C0000E942F0790E080E04D815E81841795079D
:1007D00049F426960FB6F894DEBF0FBECDBFDF9169
:1007E000CF910895299A50E040E04217530741F411
:1007F000299850E040E04217530749F40196E4CFAE
:1008000068E16A95F1F700C04F5F5F4FEECF68E196
:100810006A95F1F700C04F5F5F4FEDCF84B18168FB
:1008200084B9529A0895289A2F9A5A9A0895289826
:100830002F985A980895EF92FF920F931F93CF939A
:100840008C018091CA07882369F18091CC0790912F
:10085000CD07A091CE07B091CF07800F911FA11DAA
:10086000B11D803127E29207A105B10570F4809394
:10087000CC079093CD07A093CE07B093CF07CF912D
:100880001F910F91FF90EF9008951092CC07109256
:10089000CD071092CE071092CF071092CB0710927F
:1008A000CA07EDCFC091CB0783E0C89FF0011124A8
:1008B000EE57FE4FE180F2808081882381F00E9414
:1008C00013048091D0079091D107800F911F8E154E
:1008D0009F0540F49093D1078093D007D0CF0E941A
:1008E0001704EFCF1092D1071092D007CF5FC093BB
:1008F000CB07C23220F20E94170481E08093CA071E
:10090000BECF0F931F93CF93DF9300D0CDB7DEB749
:1009100086E2898388EB8A8310E000E030E020E003
:1009200042E050E0BE016F5F7F4F80EC0E946502A5
:10093000882379F060E081E00E94010281E897E07D
:100940000E9420020F900F90DF91CF911F910F9185
:1009500008958FE19EE40197F1F700C0000089EB54
:100960008A8310E000E030E020E042E050E0BE0189
:100970006F5F7F4F80EC0E946502882339F060E052
:1009800081E00E94010282E997E0DACF9FEF24E341
:100990008CE0915020408040E1F700C00000D2CFB1
:1009A0000F931F93CF93DF9300D000D0CDB7DEB766
:1009B00081E08C8303E010E09E012F5F3F4F41E018
:1009C00050E0BE016C5F7F4F80EC0E94650288237F
:1009D00089F060E081E00E94010283EA97E00E94D2
:1009E00020020F900F900F900F90DF91CF911F91E9
:1009F0000F910895698170E090E080E02AE0660F31
:100A0000771F881F991F2A95D1F70A8110E030E0DF
:100A100020E042E0000F111F221F331F4A95D1F73B
:100A2000602B712B822B932B2B812295269526955B
:100A30002370622BD6CF0F931F93CF93DF9300D0F9
:100A40001F92CDB7DEB784E08B8302E010E09E01F9
:100A50002F5F3F4F41E050E0BE016D5F7F4F80EC64
:100A60000E9465028823A1F060E081E00E940102FB
:100A700084EB97E00E94200260E070E08AE794EC4B
:100A80000F900F900F90DF91CF911F910F910895CC
:100A900069817A8176276727762784E0759567953F
:100AA0008A95E1F7072E000C880B990B0E946C07C2
:100AB00020E030E040E85DE30E94D007E1CF0E94F3
:100AC0002C020E94BC030E940E040E9403030E9499
:100AD00081040E9402010E94DE00DD24D394C5E05F
:100AE000D0E004E010E0EE24E394F12C8091C907FB
:100AF000882369F08091D9071092C90791E081118C
:100B000090E09093D90781111DC10E94DE00809171
:100B1000D907882359F38091C6074091D2078823CB
:100B200049F18091D3079091D4071092C60700979E
:100B300009F017C18091E8078823E1F02091D807D8
:100B4000E42FF0E0EE0FFF1FEA5CFE4F822F90E0F3
:100B50000196880F991F60817181860F971FFC0194
:100B600080819181892B09F4F1C02F5F2093D807F0
:100B7000D09280012091C8078091D3079091D4072B
:100B80002223D9F01092C80781309105B1F4209149
:100B9000DF0731E0211130E03093DF07211121C15F
:100BA0002091D507222309F41FC121E030E03093C2
:100BB000D7072093D607D09280012091C707222320
:100BC000C1F01092C7078130910509F028C18091CA
:100BD000D6079091D7079C01225031092230310568
:100BE00008F005C101979093D7078093D607D0925C
:100BF00080018091D3079091D407019709F057C0E5
:100C0000411155C08091DA0781118BC00E944B03BE
:100C10004B015C014090DB075090DC076090DD07E2
:100C20007090DE0720E030E040EA50E4C301B201FA
:100C30000E94CB07181654F420E030E040EA50E45C
:100C4000C501B4010E94650787FD14C020E030E0B3
:100C500040EA50E4C301B2010E94650787FF27C044
:100C600020E030E040EA50E4C501B4010E94CB0727
:100C70001816ECF4D092DA071092D4071092D3072A
:100C8000E091D207EF5FE093D2071092D80710925D
:100C9000DF07F0E0EE0FFF1FEA5CFE4F0190F081EE
:100CA000E02D6081718180EE97E00E946C00C09021
:100CB000D207F1E0CF1235C08091D3079091D407CD
:100CC000019779F58091DA0781112BC089E190E0D5
:100CD0000E941B040E941B0520E030E040EC51E420
:100CE0000E94CB071816ECF4C092DA071092D407D2
:100CF0001092D307E091D207EF5FE093D2071092F2
:100D0000D8071092DF07F0E0EE0FFF1FEA5CFE4FFE
:100D10000190F081E02D6081718180EE97E00E946A
:100D20006C008091E807811104C080EE97E00E947A
:100D300085000E9414018FEF93EB0197F1F700C03B
:100D40000000D4CE81E00E94F801E1CEF092D407F9
:100D5000E092D3071092D7071092D6071092DA07C5
:100D600007CF019709F006CF8091DF07882309F4A8
:100D700001CF8091D6079091D7078630910529F44D
:100D80001093D7070093D607F3CE8430910571F402
:100D90008091D507833008F0EBCE8F5F8093D50725
:100DA00090E09093D7078093D607E2CE9C01215024
:100DB00031092330310508F0DBCE5091D5072FEFF4
:100DC000280F30E02F5F3F4F5217130619F014F031
:100DD0000196E7CF5330A0F2D093D707C093D60740
:100DE000C7CE30E020E0E3CE26E030E0E0CE813038
:100DF000910531F09C01245031092330310538F43C
:100E00001092D7071092D6071092DF07F0CE892BE9
:100E100009F0EFCE1092D4071092D307E8CE892BB9
:100E200009F0E7CE8091D807882309F4E2CE8150FB
:100E30008093D807DCCE97FB072E16F4009407D0DA
:100E400077FD09D00E94510707FC05D03EF490952C
:100E500081959F4F0895709561957F4F0895A1E208
:100E60001A2EAA1BBB1BFD010DC0AA1FBB1FEE1F24
:100E7000FF1FA217B307E407F50720F0A21BB30B6F
:100E8000E40BF50B661F771F881F991F1A9469F7EB
:100E900060957095809590959B01AC01BD01CF0147
:100EA0000895AA1BBB1B51E107C0AA1FBB1FA617B1
:100EB000B70710F0A61BB70B881F991F5A95A9F703
:100EC00080959095BC01CD0108950E94A70708F474
:100ED00081E00895E89409C097FB3EF490958095D1
:100EE000709561957F4F8F4F9F4F9923A9F0F92FF0
:100EF00096E9BB279395F695879577956795B7956E
:100F0000F111F8CFFAF4BB0F11F460FF1BC06F5F53
:100F10007F4F8F4F9F4F16C0882311F096E911C065
:100F2000772321F09EE8872F762F05C0662371F086
:100F300096E8862F70E060E02AF09A95660F771F9A
:100F4000881FDAF7880F9695879597F90895990F76
:100F50000008550FAA0BE0E8FEEF16161706E80783
:100F6000F907C0F012161306E407F50798F0621BA4
:100F7000730B840B950B39F40A2661F0232B242B79
:100F8000252B21F408950A2609F4A140A6958FEF98
:100F9000811D811D08950E94A70708F48FEF089511
:100FA0000E94E3070C9454080E94460838F00E94FF
:100FB0004D0820F0952311F00C943D080C94430843
:100FC00011240C9488080E94650870F3959FC1F362
:100FD000950F50E0551F629FF001729FBB27F00DE7
:100FE000B11D639FAA27F00DB11DAA1F649F66273C
:100FF000B00DA11D661F829F2227B00DA11D621F8B
:10100000739FB00DA11D621F839FA00D611D221F44
:10101000749F3327A00D611D231F849F600D211D28
:10102000822F762F6A2F11249F5750409AF0F1F0AB
:1010300088234AF0EE0FFF1FBB1F661F771F881F14
:1010400091505040A9F79E3F510580F00C943D0807
:101050000C9488085F3FE4F3983ED4F38695779527
:101060006795B795F795E7959F5FC1F7FE2B880FBA
:10107000911D9695879597F9089597F99F6780E850
:1010800070E060E008959FEF80EC089500240A94DA
:101090001616170618060906089500240A94121653
:1010A0001306140605060895092E0394000C11F486
:1010B000882352F0BB0F40F4BF2B11F460FF04C033
:1010C0006F5F7F4F8F4F9F4F089557FD9058440F8C
:1010D000551F59F05F3F71F04795880F97FB991F97
:1010E00061F09F3F79F08795089512161306140654
:1010F000551FF2CF4695F1DF08C0161617061806E1
:10110000991FF1CF86957105610508940895E894BB
:10111000BB2766277727CB0197F90895AEE0B0E0AB
:10112000E4E9F8E00C944A0B0D891E898F89988DAB
:1011300026E02C831A83098397FF02C080E090E8A1
:1011400001979E838D83AE01455E5F4F698D7A8DD9
:10115000CE0101960E94BE084D815E8157FD0AC0F6
:101160002F813885421753070CF49A01020F131F81
:10117000F80110822E96E4E00C94660BABE0B0E030
:10118000E4ECF8E00C943C0B7C013B018A01FC018F
:1011900017821682838181FFC8C1CE0101965C014E
:1011A000F7019381F30193FD859193FF81913F01B5
:1011B000882309F453C1853239F493FD859193FF57
:1011C00081913F01853229F4B70190E00E94AE0A77
:1011D000E7CF912C212C312CFFE1F31538F08B3225
:1011E00011F190F4803209F1833229F137FC3CC0CF
:1011F00020ED280F2A3050F536FE20C08AE0989E58
:10120000200D1124922E06C08D3291F0803371F79B
:10121000689430F8F30193FD859193FF81913F012C
:101220008111DACF21C0689431F8689432F8F2CF96
:10123000689433F8EFCF689434F8ECCFEAE02E9E50
:10124000200D1124222E689435F8E4CF8E3229F433
:1012500036FC04C1689436F8DDCF8C3619F46894F6
:1012600037F8D8CF8836B1F2982F9F7D95549330B8
:10127000E0F08336A1F18337C1F1833509F063C013
:101280002801F2E04F0E511CF801C080D180692D79
:1012900070E036FC02C06FEF7FEFC6010E94980A33
:1012A0004C01689437F882010AC00C5F1F4FFFE3BE
:1012B000F98388248394912C6501E89437F833FEF0
:1012C0002DC0522C8114910471F5552009F468CF7A
:1012D000B70180E290E00E94AE0A5A94F6CFF8017E
:1012E000808189830E5F1F4FE4CF2801F2E04F0E0B
:1012F000511CF801C080D180692D70E036FC02C01D
:101300006FEF7FEFC6010E94A30A4C018201D5CF87
:10131000B70180E290E00E94AE0A2A9428141904D2
:1013200009F0B0F7CECFF60137FC859137FE8191F9
:101330006F01B70190E00E94AE0A51105A94F1E09B
:101340008F1A9108BFCF843619F0893609F077C01B
:10135000F80137FE6BC060817181828193810C5FDF
:101360001F4FF32DFF763F2E97FF09C09095809574
:10137000709561957F4F8F4F9F4F689437F82AE0A3
:1013800030E0A5010E94DE0AC82ECA188C2C432C1E
:1013900036FE0CC0E89440F8C91440F434FE05C091
:1013A00032FC03C0F32DFE7E4F2E892C44FE95C0E7
:1013B000FE01EC0DF11D8081803309F087C0242DE2
:1013C000297E422E842D8870582E43FC95C040FE05
:1013D0008FC09C2C821418F42C0C922C981844FE6C
:1013E00091C0B70180E390E00E94AE0A42FE09C0BE
:1013F00088E790E041FE02C088E590E0B7010E94D6
:10140000AE0AC91408F48AC0CA94D12C9FEFC91A35
:10141000D90ACA0CDB1CF60182916F01B70190E07A
:101420000E94AE0AAC14BD04B1F74FCF6081718148
:10143000072E000C880B990B0E5F1F4F92CFD32CF9
:10144000E894D4F82AE030E0853739F1232D297F5C
:10145000D22E8F3601F148F48835A9F0F701868144
:1014600097812B96E2E10C94580B803749F088372E
:10147000A9F7D4FE02C06894D2F820E130E00DC094
:101480006894D4F8F6CF34FE03C0822F8660D82E3D
:1014900020E132E002C028E030E0F801D7FE0FC0C2
:1014A00060817181828193810C5F1F4FA5010E9431
:1014B000DE0AC82ECA183D2CE89437F867CF608141
:1014C000718190E080E00E5F1F4FF0CF42FC02C0C0
:1014D000839478CF8394839475CF842D867809F490
:1014E00071CFF6CFB70180E290E00E94AE0A8394FC
:1014F0008214C0F3512C73CF522C5818821408F464
:101500006ECFF8CF842D867809F47BCF8BE241FE35
:1015100080E247FC8DE2B70190E071CFB70180E334
:1015200090E00E94AE0A9A946CCF8FEF9FEF99CF14
:10153000FC010590615070400110D8F7809590959E
:101540008E0F9F1F0895FC016150704001900110A3
:10155000D8F7809590958E0F9F1F08950F931F9336
:10156000CF93DF93182F092FEB018B8181FD09C0E9
:101570001FEF0FEF812F902FDF91CF911F910F91D0
:10158000089582FF14C02E813F818C819D81281790
:1015900039073CF4E881F981CF010196998388836A
:1015A00010838E819F8101969F838E83E3CFE88590
:1015B000F985812F0995892BA1F3DACFFA01AA27A2
:1015C000283051F1203181F1E8946F936E7F6E5F86
:1015D0007F4F8F4F9F4FAF4FB1E03ED0B4E03CD034
:1015E000670F781F891F9A1FA11D680F791F8A1F17
:1015F000911DA11D6A0F711D811D911DA11D20D07E
:1016000009F468943F912AE0269F11243019305D37
:101610003193DEF6CF010895462F4770405D419328
:10162000B3E00FD0C9F7F6CF462F4F70405D4A3375
:1016300018F0495D31FD4052419302D0A9F7EACF3D
:10164000B4E0A6959795879577956795BA95C9F76C
:1016500000976105710508959B01AC010A2E06945F
:101660005795479537952795BA95C9F7620F731F18
:10167000841F951FA01D08952F923F924F925F9255
:101680006F927F928F929F92AF92BF92CF92DF9292
:10169000EF92FF920F931F93CF93DF93CDB7DEB7F7
:1016A000CA1BDB0B0FB6F894DEBF0FBECDBF09948B
:1016B0002A88398848885F846E847D848C849B84E2
:1016C000AA84B984C884DF80EE80FD800C811B81F0
:1016D000AA81B981CE0FD11D0FB6F894DEBF0FBE1F
:0A16E000CDBFED010895F894FFCF8F
:1016EA0027023802560273028F02BB02D802E902AD
:1016FA0013032D0334033B032D0334033B032D0350
:10170A0034033B032D0334033B03000042034C0321
:10171A005C036C037C0374016A01600156014C018D
:10172A0042018C03BB03E703160400008C03420446
:10173A006204990400008C03CA04F204270500001D
:10174A008C0359059805BF0500008C03F3052D0687
:10175A00660600008B06B906E4061D074507000069
:10176A00015201C80000C80001C80000C8000158A1
:10177A000200C80001C80000580201C80000C800E1
:10178A0001580200C80001C80000580201C8000040
:10179A00580201C80000580201580200C800015846
:1017AA000200C80001C80000C80001C800005802B1
:1017BA0001C80000780501580200C800015802005B
:1017CA00580201C8000078052250757A7A6C6520A3
:1017DA0023313A204974277320627269676874203A
:1017EA00696E2068657265210050757A7A6C652089
:1017FA0023313A2049742773206461726B20696E21
:10180A00206865726521004E6F20636C75657320D0
:10181A0072656D61696E2E0041726520796F75205F
:10182A007375726520796F752077616E74206120F7
:10183A00636C75653F00436C69636B204E45585471
:10184A0020746F20756E6C6F636B206120636C75FA
:10185A00652E00596F75206D696768742068617616
:10186A006520746F206765742075702E2E2E0053C4
:10187A006F6D657468696E6720696E20796F75721D
:10188A0020726F6F6D20636F6E74726F6C7320625B
:10189A0072696768746E6573732100547279206681
:1018AA006C697070696E672061206C696768742062
:1018BA007377697463682E00446F20796F7520739B
:1018CA00656520746861743F0049207265636F67BB
:1018DA006E697A65207468617420706174746572C7
:1018EA006E2E2E2E204D6F7273652C2072696768DA
:1018FA00743F00446F2061732069742073617973A7
:10190A002120465245455A45206D652100436C7594
:10191A0065203100436C7565203200436C75652083
:10192A00330050757A7A6C652023320050757A7AC2
:10193A006C6520332070726F6D70740050757A7AFE
:10194A006C6520342070726F6D70740050757A7AED
:10195A006C6520352070726F6D70740050757A7ADC
:10196A006C6520362070726F6D70740057656C6CF0
:10197A0020646F6E652120436F6E74696E756520F1
:10198A006D792073746F7279206279207072657331
:10199A0073696E67204E4558542E0049206E65764D
:1019AA0065722073617720746865206F6365616E64
:1019BA002C20627574204920647265616D6564200B
:1019CA006F662069742E004C6574207468652074F3
:1019DA00696465206361727279206D652077686534
:1019EA0072652049206E6576657220676F7420746F
:1019FA006F20676F2E005468616E6B20796F752EA9
:101A0A00204E6F7720676F206C69766520736F6D43
:101A1A00657468696E672062656175746966756C5C
:101A2A002E0049207573656420746F2066656172A3
:101A3A00206265696E6720666F72676F7474656E7F
:101A4A002E00427574206D6179626520746869732D
:101A5A0020697320656E6F75676820E28094206143
:101A6A0020736D616C6C206C696768742C207061DE
:101A7A0073736564206F6E2E00496620796F75272F
:101A8A007265207374696C6C206C697374656E6915
:101A9A006E672C206D617962652049276D20737409
:101AAA00696C6C20686572652E0049206D697373D4
:101ABA006564206D6F72652073756E73657473202B
:101ACA007468616E20492063616E20636F756E745D
:101ADA002E00446F206F6E65207468696E672066F9
:101AEA006F72206D652E20446F6E277420776169AE
:101AFA007420666F72206120276265747465722093
:101B0A0074696D652E2700596F7527726520616C9F
:101B1A006976652E2054686174277320616C6C2085
:101B2A00746865207065726D697373696F6E207968
:101B3A006F75206E6565642E005768656E2074683F
:101B4A006520646F63746F722073616964202774FF
:101B5A0065726D696E616C2C272049206A757374F1
:101B6A0020737461726564206174207468652063EF
:101B7A0065696C696E672E00492066656C7420730E
:101B8A0074696C6C2E204C696B652049206861640D
:101B9A0020616C7265616479206C6566742E0054EC
:101BAA006861742773207768792049206D616465BC
:101BBA00207468697320E2809420746F206D6F76B8
:101BCA0065207768656E204920636F756C646E279F
:101BDA00742E0049206D657420736F6D656F6E6594
:101BEA00206F6E63652E205468657920736D656C6D
:101BFA006C6564206C696B65206F6C642070617021
:101C0A00657220616E6420686F70652E00576520CA
:101C1A00647265616D6564206F6620736565696EBF
:101C2A00672074686520776F726C642C2062757403
:101C3A002074696D6520676F7420696E2074686509
:101C4A00207761792E005768656E206C6F76652063
:101C5A0066696E647320796F752C20646F6E2774C1
:101C6A002077617374652069742E0057616B696E01
:101C7A00672075702E2E2E20796F75277265206861
:101C8A006572652120546865206A6F75726E616C91
:101C9A0020776F726B656421005768656E20492052
:101CAA0077617320796F756E672C2049206C6F7687
:101CBA006564206275696C64696E67207468696E10
:101CCA0067732E0049207573656420746F207461F0
:101CDA006B6520617061727420636C6F636B732033
:101CEA006A75737420746F2073656520686F772036
:101CFA0074686579207469636B65642E0054686939
:101D0A0073206A6F75726E616C20697320746865DE
:101D1A00206C617374207468696E6720492062754B
:101D2A00696C742E0057696C6C20796F7520686530
:101D3A006C70206D652066696E6973682069743FEE
:101D4A0000456E61626C65204572723A2025303218
:101D5A00580052656164204572723A202530325823
:101D6A0000416C742E207772697465206572726FF7
:101D7A007200416C742E20737461727420657272E1
:101D8A006F72004932432072656164206572726F16
:101D9A007220200054656D7020726561642065723E
:061DAA00726F72200000C0
:00000001FF
