:100000000C944D000C946A000C946A000C946A00E5
:100010000C94B5010C946A000C946A000C946A006C
:100020000C946A000C946A000C946A000C946A00A8
:100030000C946A000C946A000C946A000C946A0098
:100040000C946A000C946A000C946A000C946A0088
:100050000C946A000C946A000C946A000C946A0078
:100060000C946A000C946A003E3E2055534520458E
:10007000453435394C203C3C373839303132333413
:10008000003E3E2061743332382D352E6320203CF3
:100090003C37383930313233340011241FBECFEFB2
:1000A000D8E0DEBFCDBF17E0A0E0B1E0EAEBF7E1BA
:1000B00002C005900D92A03DB107D9F727E0A0ED51
:1000C000B7E001C01D92AB3FB207E1F70E94BD054A
:1000D0000C94DB0B0C9400000F931F93CF93DF93D2
:1000E000EC018B0181E00E941302198308831B82BB
:1000F0001A821D821C821F821E8218861092800125
:10010000DF91CF911F910F9108958091D40791E0D5
:10011000811190E09093D407811108C041E050E034
:100120006EE170E088EE93E00C94D70308951F937E
:10013000CF93DF93FC01808581110AC0A081B1813A
:1001400022813381A20FB31F8C91ED01811106C072
:1001500081E08087DF91CF911F910895CE018A1BA6
:100160009B0B49914F7DD1F746815781840F951F95
:1001700044973CF08481958117821682019695837D
:100180008483848195818430910514F72F5F3F4FDC
:10019000338322831C9166817781103219F46115B3
:1001A0007105C1F29C0197FF02C02F5F3F4FEF0125
:1001B00035952795562F44E1249F500D1124252F66
:1001C00062E070E00E948307622F0E941C02812F70
:1001D0000E9424028E819F8101969F838E831F7DC2
:1001E00011541A3108F0B6CFDF91CF911F910C94C2
:1001F0008500CF93DF93C4EED7E018821A8219826C
:100200001B821D821C821E8218860E9466036987DB
:100210007A878B879C871D86E881F0E0EE0FFF1FB1
:10022000EA5CFE4F0190F081E02D6081718182EFE8
:1002300097E0DF91CF910C946C0087B1807F87B9F4
:1002400088B18F6088B9E8E6F0E0808182608083C1
:10025000ECE6F0E080818F6080837894089580914F
:100260008001882309F44BC08091E5079091E6074F
:100270008130910509F065C0E091E4078091E807BD
:100280009091E907E1111BC00097C9F420E030E02C
:1002900040EA50E46091ED077091EE078091EF071E
:1002A0009091F0070E94330869EF71E0181614F07E
:1002B00069E172E082EF97E00E946C001EC06091DD
:1002C00004017091050186309105A1F3609102014E
:1002D000709103018430910569F360910001709180
:1002E00001018530910531F38130910589F040F0AD
:1002F00082309105A1F00397D9F010928001089502
:10030000F0E0EE0FFF1FE65DFE4F60817181D2CFFE
:1003100086E0E89FF0011124EA5FFE4FF6CF86E009
:10032000E89FF0011124EA5FFE4F62817381C2CF22
:1003300086E0E89FF0011124EA5FFE4F6481758139
:10034000B9CF892BD1F6E091E407F0E0EE0FFF1F63
:10035000EA5CFE4F8091EA0790E0880F991F2081A8
:100360003181820F931FFC01D0CF1F920F920FB6E5
:100370000F9211248F939F93329903C081E0809351
:10038000D307319903C081E08093D207309903C02D
:1003900081E08093D107339903C081E08093D00737
:1003A0008091D30781110CC08091D207811108C0C0
:1003B0008091D107811104C08091D0078823A1F0DA
:1003C0008FEF93E20197F1F700C00000329BFECF60
:1003D000319BFCCF309BFACF339BF8CF8FEF93E26A
:1003E0000197F1F700C000009F918F910F900FBE11
:1003F0000F901F9018959BB19F709BB99BB1807F08
:10040000892B8BB985B1837F85B92A9A2A9A2A9834
:100410000895CF93C82F0E94FB018C2F8295807F77
:10042000CF910C94FB012C980E94090286E69EE075
:100430000197F1F7000008958295880F880F807C5E
:10044000860F80680C9413022C9A0E94090286E69B
:100450009EE00197F1F700000895CF93DF93EC0140
:10046000FE0184912196811103C0DF91CF910895FF
:100470000E942402F5CFCF93DF93EC018991811183
:1004800003C0DF91CF9108950E942402F7CF8AB173
:10049000806F8AB984B18C6184B92C988FEF9BE608
:1004A0000197F1F700C0000080E30E94FB018FEF8D
:1004B00093E20197F1F700C0000080E30E94FB0186
:1004C0008DED90E00197F1F780E30E94FB0186E655
:1004D0009EE00197F1F7000080E20E94FB0186E6B2
:1004E0009EE00197F1F7000088E20E9413028FE07E
:1004F0000C94130286E69EE00197F1F70000089540
:100500000F931F93A82F00000000000000000000C0
:100510004115510509F468C084EA8093BC008091BC
:10052000BC0087FFFCCF8091B900887F883031F50F
:100530008A2F8E7F8093BB0084E88093BC008091DB
:10054000BC0087FFFCCF8091B900887F8831C9F05B
:100550008032A1F494E99093BC0010C08191809303
:10056000BB006093BC008091BC0087FFFCCF8091F2
:10057000B900887F883249F0803361F31F910F9171
:100580000895FB01460F571F64E84E175F0731F7C8
:1005900040E10115110569F514C0F90194EC013031
:1005A000110589F484E88093BC008091BC0087FF2A
:1005B000FCCF8091B900887F883501F78091BB001E
:1005C000808380E0C7CF9093BC008091BC0087FF00
:1005D000FCCF8091B900887F01501109803571F6F8
:1005E0008091BB008193DBCF80E00115110531F2D2
:1005F00048E084EA8093BC008091BC0087FFFCCF78
:100600008091B900887F4813B9CFA160A093BB0047
:1006100084E88093BC008091BC0087FFFCCF809170
:10062000B900887F803409F4B8CF883409F0A6CFA8
:1006300091CF1092B9008093B80008950F931F9343
:10064000CF93DF93CDB7DEB763970FB6F894DEBFD5
:100650000FBECDBF80EA8A8B83E08B8B10E000E079
:1006600030E020E042E050E0BE016E5E7F4F8091BE
:1006700081010E948002182F8823E9F060E082E067
:100680000E941C021F921F938BE697E09F938F930B
:100690001F9281E18F938E010F5F1F4F1F930F9366
:1006A0000E94F608C8010E943B020FB6F894DEBF14
:1006B0000FBECDBFFFCF63960FB6F894DEBF0FBE5F
:1006C000CDBFDF91CF911F910F9108950F931F938D
:1006D000CF93DF93CDB7DEB766970FB6F894DEBF42
:1006E0000FBECDBF22E383EB92E0215080409040CB
:1006F000E1F700C000C084EB8E8B1A8A1B8A1C8A2B
:100700001D8A04E010E09E012E5E3F4F41E050E064
:10071000BE016A5E7F4F809181010E948002182F86
:100720008823A1F160E082E00E941C021F921F93C7
:100730008CE797E09F938F931F9281E18F938E01B7
:100740000F5F1F4F1F930F930E94F608C8010E946E
:100750003B022FEF8FEF9CE2215080409040E1F769
:1007600000C000000FB6F894DEBF0FBECDBF60E042
:1007700070E080E89FEB66960FB6F894DEBF0FBE80
:10078000CDBFDF91CF911F910F9108956A897B8929
:100790008C899D89681B790B90E080E00E94D207CC
:1007A00027EE3DE147E25EE30E943808E4CF0F9375
:1007B0001F93CF93DF938B01EA012091D5073091EE
:1007C000D6072230310519F44230510531F5219A0E
:1007D00020E42093800029E020938100B0E0A0E095
:1007E0009C01AD01220F331F441F551F60E070E8CC
:1007F00080E790E00E9497072150310930938900EB
:10080000209388001093D8070093D70781E0809346
:10081000D907D093D607C093D507DF91CF911F9109
:100820000F910895109280001092810029981092E3
:10083000D9071092D6071092D50708952091D907AD
:10084000222379F02091D7073091D8078217930798
:1008500010F00C941204281B390B3093D807209306
:10086000D7070895219A299808951092DB0782E00E
:1008700090E09093D6078093D50781E08093DA07C4
:10088000E2E8F1E06281738142E050E08081918191
:100890000C94D7030E941E048091DA078823D9F0B4
:1008A0008091D907811117C0E091DB07EF5FE093DA
:1008B000DB07E43070F484E0E89FF0011124EE5788
:1008C000FE4F6281738142E050E0808191810C94FF
:1008D000D7031092DA07089584B1816884B9529AD7
:1008E0000895289A2F9A5A9A089528982F985A98D6
:1008F0000895EF92FF920F931F93CF938C018091F5
:10090000DC07882369F18091DE079091DF07A091D1
:10091000E007B091E107800F911FA11DB11D80314B
:1009200027E29207A105B10570F48093DE0790934A
:10093000DF07A093E007B093E107CF911F910F91DC
:10094000FF90EF9008951092DE071092DF0710924B
:10095000E0071092E1071092DD071092DC07EDCF5F
:10096000C091DD0783E0C89FF0011124EE56FE4FD1
:10097000E180F2808081882381F00E94710480915F
:10098000E2079091E307800F911F8E159F0540F4B9
:100990009093E3078093E207D0CF0E947504EFCFD6
:1009A0001092E3071092E207CF5FC093DD07C232D7
:1009B00020F20E94750481E08093DC07BECF0F9384
:1009C0001F93CF93DF9300D0CDB7DEB786E2898344
:1009D00088EB8A8310E000E030E020E042E050E065
:1009E000BE016F5F7F4F80EC0E948002882379F008
:1009F00060E081E00E941C028BE897E00E943B02CD
:100A00000F900F90DF91CF911F910F9108958FE17B
:100A10009EE40197F1F700C0000089EB8A8310E0A3
:100A200000E030E020E042E050E0BE016F5F7F4F29
:100A300080EC0E948002882339F060E081E00E940F
:100A40001C028CE997E0DACF9FEF24E38CE0915011
:100A500020408040E1F700C00000D2CF0F931F93E9
:100A6000CF93DF9300D000D0CDB7DEB781E08C8389
:100A700003E010E09E012F5F3F4F41E050E0BE01D8
:100A80006C5F7F4F80EC0E948002882389F060E0D9
:100A900081E00E941C028DEA97E00E943B020F90C9
:100AA0000F900F900F90DF91CF911F910F910895AC
:100AB000698170E090E080E02AE0660F771F881F70
:100AC000991F2A95D1F70A8110E030E020E042E03A
:100AD000000F111F221F331F4A95D1F7602B712B76
:100AE000822B932B2B812295269526952370622BA2
:100AF000D6CF0F931F93CF93DF9300D01F92CDB724
:100B0000DEB784E08B8302E010E09E012F5F3F4F51
:100B100041E050E0BE016D5F7F4F80EC0E9480029B
:100B20008823A1F060E081E00E941C028EEB97E038
:100B30000E943B0260E070E08AE794EC0F900F9017
:100B40000F90DF91CF911F910F91089569817A8164
:100B500076276727762784E0759567958A95E1F76C
:100B6000072E000C880B990B0E94D40720E030E080
:100B700040E85DE30E943808E1CF0E9447020E94EE
:100B800032040E946C040E941E030E94DF040E9433
:100B90001D010E94F900DD24D394C5E0D0E004E0FB
:100BA00010E0EE24E394F12C8091D307882369F0C0
:100BB0008091EB071092D30791E0811190E0909320
:100BC000EB07811127C10E94F9008091EB07882370
:100BD00059F38091D0074091E407882349F180912F
:100BE000E5079091E6071092D007009709F021C120
:100BF0008091FA078823E1F02091EA07E42FF0E0E2
:100C0000EE0FFF1FEA5CFE4F822F90E00196880FE7
:100C1000991F60817181860F971FFC0180819181EE
:100C2000892B09F4FBC02F5F2093EA07D092800143
:100C30002091D2078091E5079091E6072223D9F011
:100C40001092D20781309105B1F42091F10731E083
:100C5000211130E03093F10721112BC12091E707DA
:100C6000222309F429C121E030E03093E9072093E1
:100C7000E807D09280012091D1072223C1F0109281
:100C8000D1078130910509F032C18091E807909138
:100C9000E9079C01225031092230310508F00FC1CB
:100CA00001979093E9078093E807D09280018091A3
:100CB000E5079091E607019709F059C0411157C027
:100CC0008091EC07811191C00E9466034B015C0189
:100CD0004090ED075090EE076090EF077090F0079E
:100CE00020E030E040EA50E4C301B2010E94330842
:100CF000181654F420E030E040EA50E4C501B40195
:100D00000E94CD0787FD14C020E030E040EA50E4A7
:100D1000C301B2010E94CD0787FF29C020E030E067
:100D200040EA50E4C501B4010E9433081816FCF4EF
:100D30000E943504D092EC071092E6071092E50766
:100D4000E091E407EF5FE093E4071092EA07109266
:100D5000F107F0E0EE0FFF1FEA5CFE4F0190F0811B
:100D6000E02D6081718182EF97E00E946C00C0905D
:100D7000E407F1E0CF1239C08091E5079091E607D2
:100D8000019799F58091EC0781112FC089E190E0DE
:100D90000E9479040E94790520E030E040EC51E4A3
:100DA0000E94330818160CF50E9435040E94750441
:100DB000C092EC071092E6071092E507E091E40775
:100DC000EF5FE093E4071092EA071092F107F0E07A
:100DD000EE0FFF1FEA5CFE4F0190F081E02D608175
:100DE000718182EF97E00E946C008091FA07811177
:100DF00004C082EF97E00E9497000E942F0189E1D2
:100E000090E00E944A048FEF93EB0197F1F700C046
:100E10000000CACE81E00E941302D7CEF092E6070E
:100E2000E092E5071092E9071092E8071092EC07AC
:100E3000FDCE019709F0FCCE8091F107882309F4DB
:100E4000F7CE8091E8079091E9078630910529F463
:100E50001093E9070093E807E9CE8430910571F417
:100E60008091E707833008F0E1CE8F5F8093E7073A
:100E700090E09093E9078093E807D8CE9C01215039
:100E800031092330310508F0D1CE5091E7072FEF1B
:100E9000280F30E02F5F3F4F5217130619F014F060
:100EA0000196E7CF5330A0F2D093E907C093E8074B
:100EB000BDCE30E020E0D9CE26E030E0D6CE813085
:100EC000910531F09C01245031092330310538F46B
:100ED0001092E9071092E8071092F107E6CE892BED
:100EE00009F0E5CE1092E6071092E507DECE892BD9
:100EF00009F0DDCE8091EA07882309F4D8CE81502D
:100F00008093EA07D2CE97FB072E16F4009407D001
:100F100077FD09D00E94B90707FC05D03EF49095F3
:100F200081959F4F0895709561957F4F0895A1E237
:100F30001A2EAA1BBB1BFD010DC0AA1FBB1FEE1F53
:100F4000FF1FA217B307E407F50720F0A21BB30B9E
:100F5000E40BF50B661F771F881F991F1A9469F71A
:100F600060957095809590959B01AC01BD01CF0176
:100F70000895AA1BBB1B51E107C0AA1FBB1FA617E0
:100F8000B70710F0A61BB70B881F991F5A95A9F732
:100F900080959095BC01CD0108950E940F0808F43A
:100FA00081E00895E89409C097FB3EF49095809500
:100FB000709561957F4F8F4F9F4F9923A9F0F92F1F
:100FC00096E9BB279395F695879577956795B7959D
:100FD000F111F8CFFAF4BB0F11F460FF1BC06F5F83
:100FE0007F4F8F4F9F4F16C0882311F096E911C095
:100FF000772321F09EE8872F762F05C0662371F0B6
:1010000096E8862F70E060E02AF09A95660F771FC9
:10101000881FDAF7880F9695879597F90895990FA5
:101020000008550FAA0BE0E8FEEF16161706E807B2
:10103000F907C0F012161306E407F50798F0621BD3
:10104000730B840B950B39F40A2661F0232B242BA8
:10105000252B21F408950A2609F4A140A6958FEFC7
:10106000811D811D08950E940F0808F48FEF0895D7
:101070000E944B080C94BC080E94AE0838F00E94F5
:10108000B50820F0952311F00C94A5080C94AB083A
:1010900011240C94F0080E94CD0870F3959FC1F3C1
:1010A000950F50E0551F629FF001729FBB27F00D16
:1010B000B11D639FAA27F00DB11DAA1F649F66276B
:1010C000B00DA11D661F829F2227B00DA11D621FBA
:1010D000739FB00DA11D621F839FA00D611D221F74
:1010E000749F3327A00D611D231F849F600D211D58
:1010F000822F762F6A2F11249F5750409AF0F1F0DB
:1011000088234AF0EE0FFF1FBB1F661F771F881F43
:1011100091505040A9F79E3F510580F00C94A508CE
:101120000C94F0085F3FE4F3983ED4F386957795EE
:101130006795B795F795E7959F5FC1F7FE2B880FE9
:10114000911D9695879597F9089597F99F6780E87F
:1011500070E060E008959FEF80EC089500240A9409
:101160001616170618060906089500240A94121682
:101170001306140605060895092E0394000C11F4B5
:10118000882352F0BB0F40F4BF2B11F460FF04C062
:101190006F5F7F4F8F4F9F4F089557FD9058440FBB
:1011A000551F59F05F3F71F04795880F97FB991FC6
:1011B00061F09F3F79F08795089512161306140683
:1011C000551FF2CF4695F1DF08C016161706180610
:1011D000991FF1CF86957105610508940895E894EB
:1011E000BB2766277727CB0197F90895AEE0B0E0DB
:1011F000ECEFF8E00C94B20B0D891E898F89988D65
:1012000026E02C831A83098397FF02C080E090E8D0
:1012100001979E838D83AE01455E5F4F698D7A8D08
:10122000CE0101960E9426094D815E8157FD0AC0BC
:101230002F813885421753070CF49A01020F131FB0
:10124000F80110822E96E4E00C94CE0BABE0B0E0F7
:10125000ECE2F9E00C94A40B7C013B018A01FC0157
:1012600017821682838181FFC8C1CE0101965C017D
:10127000F7019381F30193FD859193FF81913F01E4
:10128000882309F453C1853239F493FD859193FF86
:1012900081913F01853229F4B70190E00E94160B3D
:1012A000E7CF912C212C312CFFE1F31538F08B3254
:1012B00011F190F4803209F1833229F137FC3CC0FE
:1012C00020ED280F2A3050F536FE20C08AE0989E87
:1012D000200D1124922E06C08D3291F0803371F7CB
:1012E000689430F8F30193FD859193FF81913F015C
:1012F0008111DACF21C0689431F8689432F8F2CFC6
:10130000689433F8EFCF689434F8ECCFEAE02E9E7F
:10131000200D1124222E689435F8E4CF8E3229F462
:1013200036FC04C1689436F8DDCF8C3619F4689425
:1013300037F8D8CF8836B1F2982F9F7D95549330E7
:10134000E0F08336A1F18337C1F1833509F063C042
:101350002801F2E04F0E511CF801C080D180692DA8
:1013600070E036FC02C06FEF7FEFC6010E94000BF9
:101370004C01689437F882010AC00C5F1F4FFFE3ED
:10138000F98388248394912C6501E89437F833FE1F
:101390002DC0522C8114910471F5552009F468CFA9
:1013A000B70180E290E00E94160B5A94F6CFF80144
:1013B000808189830E5F1F4FE4CF2801F2E04F0E3A
:1013C000511CF801C080D180692D70E036FC02C04C
:1013D0006FEF7FEFC6010E940B0B4C018201D5CF4E
:1013E000B70180E290E00E94160B2A942814190499
:1013F00009F0B0F7CECFF60137FC859137FE819129
:101400006F01B70190E00E94160B51105A94F1E061
:101410008F1A9108BFCF843619F0893609F077C04A
:10142000F80137FE6BC060817181828193810C5F0E
:101430001F4FF32DFF763F2E97FF09C090958095A3
:10144000709561957F4F8F4F9F4F689437F82AE0D2
:1014500030E0A5010E94460BC82ECA188C2C432CE4
:1014600036FE0CC0E89440F8C91440F434FE05C0C0
:1014700032FC03C0F32DFE7E4F2E892C44FE95C016
:10148000FE01EC0DF11D8081803309F087C0242D11
:10149000297E422E842D8870582E43FC95C040FE34
:1014A0008FC09C2C821418F42C0C922C981844FE9B
:1014B00091C0B70180E390E00E94160B42FE09C084
:1014C00088E790E041FE02C088E590E0B7010E9405
:1014D000160BC91408F48AC0CA94D12C9FEFC91AFC
:1014E000D90ACA0CDB1CF60182916F01B70190E0AA
:1014F0000E94160BAC14BD04B1F74FCF608171810F
:10150000072E000C880B990B0E5F1F4F92CFD32C28
:10151000E894D4F82AE030E0853739F1232D297F8B
:10152000D22E8F3601F148F48835A9F0F701868173
:1015300097812B96E2E10C94C00B803749F08837F5
:10154000A9F7D4FE02C06894D2F820E130E00DC0C3
:101550006894D4F8F6CF34FE03C0822F8660D82E6C
:1015600020E132E002C028E030E0F801D7FE0FC0F1
:1015700060817181828193810C5F1F4FA5010E9460
:10158000460BC82ECA183D2CE89437F867CF608107
:10159000718190E080E00E5F1F4FF0CF42FC02C0EF
:1015A000839478CF8394839475CF842D867809F4BF
:1015B00071CFF6CFB70180E290E00E94160B8394C2
:1015C0008214C0F3512C73CF522C5818821408F493
:1015D0006ECFF8CF842D867809F47BCF8BE241FE65
:1015E00080E247FC8DE2B70190E071CFB70180E364
:1015F00090E00E94160B9A946CCF8FEF9FEF99CFDB
:10160000FC010590615070400110D8F780959095CD
:101610008E0F9F1F0895FC016150704001900110D2
:10162000D8F7809590958E0F9F1F08950F931F9365
:10163000CF93DF93182F092FEB018B8181FD09C018
:101640001FEF0FEF812F902FDF91CF911F910F91FF
:10165000089582FF14C02E813F818C819D812817BF
:1016600039073CF4E881F981CF0101969983888399
:1016700010838E819F8101969F838E83E3CFE885BF
:10168000F985812F0995892BA1F3DACFFA01AA27D1
:10169000283051F1203181F1E8946F936E7F6E5FB5
:1016A0007F4F8F4F9F4FAF4FB1E03ED0B4E03CD063
:1016B000670F781F891F9A1FA11D680F791F8A1F46
:1016C000911DA11D6A0F711D811D911DA11D20D0AD
:1016D00009F468943F912AE0269F11243019305D67
:1016E0003193DEF6CF010895462F4770405D419358
:1016F000B3E00FD0C9F7F6CF462F4F70405D4A33A5
:1017000018F0495D31FD4052419302D0A9F7EACF6C
:10171000B4E0A6959795879577956795BA95C9F79B
:1017200000976105710508959B01AC010A2E06948E
:101730005795479537952795BA95C9F7620F731F47
:10174000841F951FA01D08952F923F924F925F9284
:101750006F927F928F929F92AF92BF92CF92DF92C1
:10176000EF92FF920F931F93CF93DF93CDB7DEB726
:10177000CA1BDB0B0FB6F894DEBF0FBECDBF0994BA
:101780002A88398848885F846E847D848C849B8411
:10179000AA84B984C884DF80EE80FD800C811B811F
:1017A000AA81B981CE0FD11D0FB6F894DEBF0FBE4E
:0A17B000CDBFED010895F894FFCFBE
:1017BA0037024802660283029F02CB02E802F9025C
:1017CA0023033D0344034B033D0344034B033D03FF
:1017DA0044034B033D0344034B03000052035C03E1
:1017EA006C037C038C0374016A01600156014C018D
:1017FA0042019C03CB03F703260400009C03520416
:10180A007204A60400009C03D704FF0434050000F8
:10181A009C036605A505CC0500009C03FD0537065B
:10182A00700600009506C306EE0627074F0700005C
:10183A0001522605640020066400E006960074053D
:10184A00C80001C80000C80001C80000C80001584B
:10185A000200C80001C80000580201C80000C80000
:10186A0001580200C80001C80000580201C800005F
:10187A00580201C80000580201580200C800015865
:10188A000200C80001C80000C80001C800005802D0
:10189A0001C80000780501580200C800015802007A
:1018AA00580201C8000078052250757A7A6C6520C2
:1018BA0023313A2049742773206272696768742059
:1018CA00696E2068657265210050757A7A6C6520A8
:1018DA0023313A2049742773206461726B20696E40
:1018EA00206865726521004E6F20636C75657320F0
:1018FA0072656D61696E2E0041726520796F75207F
:10190A007375726520796F752077616E7420612016
:10191A00636C75653F00436C69636B204E45585490
:10192A0020746F20756E6C6F636B206120636C7519
:10193A00652E00596F75206D696768742068617635
:10194A006520746F206765742075702E2E2E0053E3
:10195A006F6D657468696E6720696E20796F75723C
:10196A0020726F6F6D20636F6E74726F6C7320627A
:10197A0072696768746E65737321005472792066A0
:10198A006C697070696E672061206C696768742081
:10199A007377697463682E00446F20796F752073BA
:1019AA00656520746861743F0049207265636F67DA
:1019BA006E697A65207468617420706174746572E6
:1019CA006E2E2E2E204D6F7273652C2072696768F9
:1019DA00743F00446F2061732069742073617973C6
:1019EA002120465245455A45206D652100436C75B4
:1019FA0065203100436C7565203200436C756520A3
:101A0A00330050757A7A6C652023320050757A7AE1
:101A1A006C6520332070726F6D70740050757A7A1D
:101A2A006C6520342070726F6D70740050757A7A0C
:101A3A006C6520352070726F6D70740050757A7AFB
:101A4A006C6520362070726F6D70740057656C6C0F
:101A5A0020646F6E652120436F6E74696E75652010
:101A6A006D792073746F7279206279207072657350
:101A7A0073696E67204E4558542E0049206E65766C
:101A8A0065722073617720746865206F6365616E83
:101A9A002C20627574204920647265616D6564202A
:101AAA006F662069742E004C657420746865207412
:101ABA00696465206361727279206D652077686553
:101ACA0072652049206E6576657220676F7420748E
:101ADA006F20676F2E005468616E6B20796F752EC8
:101AEA00204E6F7720676F206C69766520736F6D63
:101AFA00657468696E672062656175746966756C7C
:101B0A002E0049207573656420746F2066656172C2
:101B1A00206265696E6720666F72676F7474656E9E
:101B2A002E00427574206D6179626520746869734C
:101B3A0020697320656E6F7567682E204120736D6A
:101B4A00616C6C206C696768742C207061737365B2
:101B5A0064206F6E2E00496620796F7527726520A2
:101B6A007374696C6C206C697374656E696E672C2A
:101B7A00206D617962652049276D207374696C6CE8
:101B8A0020686572652E0049206D6973736564204B
:101B9A006D6F72652073756E7365747320746861F6
:101BAA006E20492063616E20636F756E742E004447
:101BBA006F206F6E65207468696E6720666F722089
:101BCA006D652E20446F6E277420776169742066D4
:101BDA006F72206120276265747465722074696D62
:101BEA00652E2700596F7527726520616C697665C5
:101BFA002E2054686174277320616C6C20746865A8
:101C0A00207065726D697373696F6E20796F7520C4
:101C1A006E6565642E005768656E20746865206479
:101C2A006F63746F72207361696420277465726DC3
:101C3A00696E616C2C272049206A7573742073744D
:101C4A006172656420617420746865206365696CDB
:101C5A00696E672E00492066656C74207374696C1E
:101C6A006C2E204C696B6520492068616420616C88
:101C7A007265616479206C6566742E0054686174BB
:101C8A002773207768792049206D6164652074681C
:101C9A0069732E20546F206D6F7665207768656EA4
:101CAA00204920636F756C646E27742E0049206D7D
:101CBA00657420736F6D656F6E65206F6E63652E38
:101CCA00205468657920736D656C6C6564206C6955
:101CDA006B65206F6C6420706170657220616E6440
:101CEA0020686F70652E00576520647265616D65A6
:101CFA0064206F6620736565696E67207468652065
:101D0A00776F726C642C206275742074696D65201B
:101D1A00676F7420696E20746865207761792E0078
:101D2A005768656E206C6F76652066696E647320ED
:101D3A00796F752C20646F6E2774207761737465D0
:101D4A002069742E0057616B696E672075702E2E9C
:101D5A002E20796F75277265206865726521205477
:101D6A006865206A6F75726E616C20776F726B6539
:101D7A006421005768656E20492077617320796F66
:101D8A00756E672C2049206C6F76656420627569D0
:101D9A006C64696E67207468696E67732E004920E7
:101DAA007573656420746F2074616B65206170615E
:101DBA00727420636C6F636B73206A75737420741A
:101DCA006F2073656520686F772074686579207461
:101DDA0069636B65642E0054686973206A6F757253
:101DEA006E616C20697320746865206C617374205D
:101DFA007468696E672049206275696C742E005791
:101E0A00696C6C20796F752068656C70206D65202F
:101E1A0066696E6973682069743F00456E61626C19
:101E2A0065204572723A2025303258005265616445
:101E3A00204572723A202530325800416C742E20A7
:101E4A007772697465206572726F7200416C742EC4
:101E5A00207374617274206572726F720049324322
:101E6A002072656164206572726F72202000546569
:101E7A006D702072656164206572726F7220000055
:00000001FF
