:100000000C944D000C946A000C946A000C946A00E5
:100010000C94C1010C946A000C946A000C946A0060
:100020000C946A000C946A000C946A000C946A00A8
:100030000C946A000C946A000C946A000C946A0098
:100040000C946A000C946A000C946A000C946A0088
:100050000C946A000C946A000C946A000C946A0078
:100060000C946A000C946A003E3E2055534520458E
:10007000453435394C203C3C373839303132333413
:10008000003E3E2061743332382D352E6320203CF3
:100090003C37383930313233340011241FBECFEFB2
:1000A000D8E0DEBFCDBF18E0A0E0B1E0ECE8FAE1B7
:1000B00002C005900D92AE36B107D9F728E0AEE642
:1000C000B8E001C01D92A23AB207E1F70E94930680
:1000D0000C94440D0C9400000F931F93CF93DF9367
:1000E000EC018B0181E00E941D02088319831B82B1
:1000F0001A821D821C821F821E8218861092800125
:10010000DF91CF911F910F9108958091720891E036
:10011000811190E090937208811108C041E050E095
:100120006EE170E088EE93E00C94E10308951F9374
:10013000CF93DF93EC018885811154C02A813B81E4
:10014000E881F981E20FF31F8081882309F44AC016
:10015000DF0190E080E04D914F7D09F049C04E8174
:100160005F81840F951F44973CF08C819D811F8295
:100170001E8201969D838C838C819D8184309105A4
:100180008CF52F5F3F4F3B832A8310816E817F81E7
:10019000103219F46115710539F19C0197FF02C005
:1001A0002F5F3F4F35952795562F44E1249F500DE3
:1001B0001124252F62E070E00E94EE08622F0E9459
:1001C0002602812F0E942E028E819F8101969F839D
:1001D0008E831F7D11541A3138F4DF91CF911F9116
:1001E0000C94850081E08887DF91CF911F9108955D
:1001F0000196B1CFCF93DF93C7E8D8E018821A8277
:1002000019821B821D821C821E8218860E94700326
:1002100069877A878B879C87198A0E9438056D8742
:100220007E878F87988BE881F0E0EE0FFF1FEA5CF6
:10023000FE4F0190F081E02D6081718189E998E0A5
:10024000DF91CF910C946C0087B1807F87B988B122
:100250008F6088B9E8E6F0E0808182608083ECE618
:10026000F0E080818F608083789408958091800190
:10027000882309F456C080918808909189088130BC
:10028000910509F06AC0E091870820918B083091B0
:100290008C08E1111CC021153105C9F420E030E0C3
:1002A00040EA50E460919008709191088091920822
:1002B000909193080E949E0969EF71E0181614F05E
:1002C00069E172E089E998E00E946C0028C06091C1
:1002D00004017091050126303105A1F360910201FE
:1002E000709103012430310569F360910001709130
:1002F00001012530310531F322303105E1F060F4A0
:100300008E2F90E0232B71F4880F991FFC01E65D7E
:10031000FE4F60817181D6CF23303105A9F0109254
:100320008001089526E0289FF001299FF00D1124F7
:10033000EA5FFE4FEECF86E0E89FF0011124EA5F0E
:10034000FE4F62817381BECF86E0E89FF0011124E9
:10035000EA5FFE4F64817581B5CF892B01F7E0918B
:100360008708F0E0EE0FFF1FEA5CFE4F80918D08DA
:1003700090E0880F991F20813181820F931FFC012B
:10038000C8CF1F921FB61F9211248F939F9332994B
:1003900003C081E080937108319903C081E08093AC
:1003A0007008309903C081E080936F08339903C0CF
:1003B00081E080936E088091710881110CC080915A
:1003C0007008811108C080916F08811104C080916C
:1003D0006E088823A1F08FEF93E20197F1F700C038
:1003E0000000329BFECF319BFCCF309BFACF339B7A
:1003F000F8CF8FEF93E20197F1F700C000009F91D3
:100400008F911F901FBE1F9018959BB19F709BB935
:100410009BB1807F892B8BB985B1837F85B92A9A5F
:100420002A9A2A980895CF93C82F0E9405028C2FEC
:100430008295807FCF910C9405022C980E94130224
:1004400086E69EE00197F1F7000008958295880FF7
:10045000880F807C860F80680C941D022C9A0E9465
:10046000130286E69EE00197F1F700000895CF930E
:10047000DF93EC01FE0184912196811103C0DF918D
:10048000CF9108950E942E02F5CFCF93DF93EC0118
:100490008991811103C0DF91CF9108950E942E02AE
:1004A000F7CF8AB1806F8AB984B18C6184B92C98F6
:1004B0008FEF9BE60197F1F700C0000080E30E94F8
:1004C00005028FEF93E20197F1F700C0000080E38F
:1004D0000E9405028DED90E00197F1F780E30E9404
:1004E000050286E69EE00197F1F7000080E20E9497
:1004F000050286E69EE00197F1F7000088E20E947F
:100500001D028FE00C941D0286E69EE00197F1F734
:10051000000008950F931F93A82F00000000000013
:10052000000000004115510509F468C084EA809379
:10053000BC008091BC0087FFFCCF8091B900887F10
:10054000883031F58A2F8E7F8093BB0084E88093BA
:10055000BC008091BC0087FFFCCF8091B900887FF0
:100560008831C9F08032A1F494E99093BC0010C0A6
:1005700081918093BB006093BC008091BC0087FF99
:10058000FCCF8091B900887F883249F0803361F3D5
:100590001F910F910895FB01460F571F64E84E17F6
:1005A0005F0731F740E10115110569F514C0F90144
:1005B00094EC0130110589F484E88093BC008091AB
:1005C000BC0087FFFCCF8091B900887F883501F798
:1005D0008091BB00808380E0C7CF9093BC00809166
:1005E000BC0087FFFCCF8091B900887F01501109C2
:1005F000803571F68091BB008193DBCF80E00115DF
:10060000110531F248E084EA8093BC008091BC007F
:1006100087FFFCCF8091B900887F4813B9CFA160D4
:10062000A093BB0084E88093BC008091BC0087FF4E
:10063000FCCF8091B900887F803409F4B8CF88342A
:1006400009F0A6CF91CF1092B9008093B800089519
:100650000F931F93CF93DF93CDB7DEB763970FB69A
:10066000F894DEBF0FBECDBF80EA8A8B83E08B8B10
:1006700010E000E030E020E042E050E0BE016E5EBD
:100680007F4F809181010E948A02182F8823E9F010
:1006900060E082E00E9426021F921F9389E098E0AA
:1006A0009F938F931F9281E18F938E010F5F1F4F56
:1006B0001F930F930E94610AC8010E9445020FB662
:1006C000F894DEBF0FBECDBFFFCF63960FB6F89490
:1006D000DEBF0FBECDBFDF91CF911F910F91089567
:1006E0000F931F93CF93DF93CDB7DEB766970FB607
:1006F000F894DEBF0FBECDBF22E383EB92E0215022
:1007000080409040E1F700C000C084EB8E8B1A8AD5
:100710001B8A1C8A1D8A04E010E09E012E5E3F4F5A
:1007200041E050E0BE016A5E7F4F809181010E94EE
:100730008A02182F8823A1F160E082E00E9426023D
:100740001F921F938AE198E09F938F931F9281E1FC
:100750008F938E010F5F1F4F1F930F930E94610AAB
:10076000C8010E9445022FEF8FEF9CE2215080408C
:100770009040E1F700C000000FB6F894DEBF0FBE56
:10078000CDBF60E070E080E89FEB66960FB6F8940E
:10079000DEBF0FBECDBFDF91CF911F910F910895A6
:1007A0006A897B898C899D89681B790B90E080E040
:1007B0000E943D0927EE3DE147E25EE30E94A30966
:1007C000E4CF0F931F93CF93DF938B01EA01209126
:1007D0007508309176082230310519F44230510500
:1007E00031F5219A20E42093800029E020938100B4
:1007F000B0E0A0E09C01AD01220F331F441F551F44
:1008000060E070E880E790E00E9402092150310921
:10081000309389002093880010937808009377081C
:1008200081E080937908D0937608C0937508DF91B2
:10083000CF911F910F910895109280001092810026
:1008400029981092790810927608109275080895E8
:1008500020917908222379F0209177083091780847
:100860008217930710F00C941C04281B390B30934B
:100870007808209377080895219A2998089510926E
:100880007B0882E090E0909376088093750881E081
:1008900080937A08E2E8F1E06281738142E050E0FF
:1008A000808191810C94E1030E94280480917A0850
:1008B0008823D9F080917908811117C0E0917B08D5
:1008C000EF5FE0937B08E43070F484E0E89FF00190
:1008D0001124EE57FE4F6281738142E050E0808127
:1008E00091810C94E10310927A08089584B1816893
:1008F00084B9529A0895289A2F9A5A9A0895289856
:100900002F985A980895EF92FF920F931F93CF93C9
:100910008C0180917C08882369F180917E089091F8
:100920007F08A0918008B0918108800F911FA11DC0
:10093000B11D803127E29207A105B10570F48093C3
:100940007E0890937F08A0938008B0938108CF9190
:100950001F910F91FF90EF90089510927E081092D2
:100960007F08109280081092810810927D081092E2
:100970007C08EDCFC0917D0883E0C89FF001112471
:10098000EE56FE4FE180F2808081882381F00E9444
:100990007B048091820890918308800F911F8E15AF
:1009A0009F0540F49093830880938208D0CF0E94E3
:1009B0007F04EFCF1092830810928208CF5FC0931C
:1009C0007D08C23220F20E947F0481E080937C087F
:1009D000BECF0F931F93CF93DF9300D0CDB7DEB779
:1009E00086E2898388EB8A8310E000E030E020E033
:1009F00042E050E0BE016F5F7F4F80EC0E948A02B0
:100A0000882379F060E081E00E94260289E298E084
:100A10000E9445020F900F90DF91CF911F910F918F
:100A200008958FE19EE40197F1F700C0000089EB83
:100A30008A8310E000E030E020E042E050E0BE01B8
:100A40006F5F7F4F80EC0E948A02882339F060E05C
:100A500081E00E9426028AE398E0DACF9FEF24E348
:100A60008CE0915020408040E1F700C00000D2CFE0
:100A70000F931F93CF93DF93CDB7DEB728970FB6B1
:100A8000F894DEBF0FBECDBF81E08C8303E010E0A1
:100A90009E012F5F3F4F41E050E0BE016C5F7F4FF2
:100AA00080EC0E948A028823D9F060E081E00E94F5
:100AB00026028BE498E00E9445026D837E838F833B
:100AC00098876D817E818F81988528960FB6F894DE
:100AD000DEBF0FBECDBFDF91CF911F910F91089563
:100AE000898190E0B0E0A0E02AE0880F991FAA1F5A
:100AF000BB1F2A95D1F74A8150E070E060E032E0F8
:100B0000440F551F661F771F3A95D1F7842B952BFD
:100B1000A62BB72B2B812295269526952370AC0109
:100B2000BD01422B4D835E836F837887CB01BA0171
:100B30000E943F09C2CF0F931F93CF93DF9300D042
:100B400000D000D00F92CDB7DEB784E08B8302E0F7
:100B500010E09E012F5F3F4F41E050E0BE016D5F0E
:100B60007F4F80EC0E948A028823F9F060E081E0E8
:100B70000E9426028CE598E00E94450260E070E049
:100B80008AE794EC6C837D838E839F836C817D8167
:100B90008E819F8127960FB6F894DEBF0FBECDBF22
:100BA000DF91CF911F910F91089589819A819827A4
:100BB0008927982724E0959587952A95E1F79C0148
:100BC000990F440B550B2C833D834E835F83CA01E1
:100BD000B9010E943F0920E030E040E85DE36C830A
:100BE0007D838E839F836C817D818E819F810E9416
:100BF000A309C8CF0F931F93CF93DF9300D0CDB736
:100C0000DEB780E297E59A83898310E000E030E068
:100C100020E042E050E0BE016F5F7F4F80E30E9422
:100C20008A020F900F90DF91CF911F910F9108953D
:100C3000EF92FF920F931F93CF93DF9300D000D0DA
:100C400000D00F92CDB7DEB77C0188EA8F831A827D
:100C50001982FE01339684E0DF011D928A95E9F73F
:100C600006E010E09E012F5F3F4F41E050E0BE01E3
:100C7000695F7F4F80E30E948A028823A1F0F70119
:100C800015821482138212821182108227960FB667
:100C9000F894DEBF0FBECDBFDF91CF911F910F91B2
:100CA000FF90EF90089589819A8126E09595879528
:100CB0002A95E1F7D70111969C938E938B819C81A5
:100CC00036E0959587953A95E1F713969C938E9328
:100CD00012978D819E8146E0959587954A95E1F71B
:100CE00015969C938E931497D1CF9C0140918508C3
:100CF0005091860890938608809385088091840897
:100D0000882329F081508093840880E00895241B73
:100D1000350B225E3F4F2D33310520F08AE0809362
:100D2000840881E00895CDB7DEB7A0970FB6F89498
:100D3000DEBF0FBECDBF0E9451020E943C040E9444
:100D400076040E9428030E94E9040E94FA050E948A
:100D500024010E94FA0010E000E05524539465E05D
:100D6000662E712C74E0A72EB12C88248394912CCC
:100D7000F7E3EF2EF2E0FF2ECE0101966C01809199
:100D80007108882369F080918E081092710891E0B3
:100D9000811190E090938E088111E8C00E94FA00C2
:100DA00080918E08882359F380916E0820918708DE
:100DB000882349F1809188089091890810926E08E3
:100DC000009709F0E2C08091A1088823E1F03091FA
:100DD0008D08E22FF0E0EE0FFF1FEA5CFE4F832F3D
:100DE00090E00196880F991F40815181840F951FD3
:100DF000DC018D919C91892B09F4BCC03F5F30933D
:100E00008D085092800130917008809188089091EF
:100E100089083323F1F01092700881309105C9F4EC
:100E20003091980841E0311140E04093980850E03B
:100E300040E0311108C030918A0846E050E0332389
:100E400011F041E050E050938C0840938B08509291
:100E5000800130916F08332309F4BCC110926F08F0
:100E60008130910509F0AAC180918B0890918C087E
:100E7000AC01425051094230510508F0C6C00197FB
:100E800090938C0880938B08509280012111D6C0DA
:100E900080918F0881117DC10E9470031B01482E33
:100EA00098A38091900890919108A0919208B09198
:100EB00093088C8F9D8FAE8FBF8F20E030E040EA8B
:100EC00050E4BC01CD010E949E0918168CF420E06C
:100ED00030E040EA50E4288E398E4A8E98A19B8FEC
:100EE000688D798D8A8D9B8D0E94380987FD1EC083
:100EF00020E030E040EA50E46C8D7D8D8E8D9F8D3A
:100F00000E94380987FF9AC020E030E040EA50E4B0
:100F1000288E398E4A8EA8A1AB8F688D798D8A8DE7
:100F20009B8D0E949E0918160CF088C00E943F04F9
:100F300050928F081092890810928808E0918708D3
:100F4000EF5FE093870810928D0810929808F0E008
:100F5000EE0FFF1FEA5CFE4F0190F081E02D6081F3
:100F6000718189E998E00E946C0068C081E00E946C
:100F70001D0216CF909289088092880810928C08E2
:100F800010928B0810928F083CCF019709F03BCF4D
:100F900080919808882309F436CF80918B0890912E
:100FA0008C088630910529F4B0928C08A0928B08A9
:100FB00028CF8430910571F480918A08833008F03D
:100FC00020CF8F5F80938A0890E090938C08809365
:100FD0008B0817CFAC01415051094330510508F03F
:100FE00010CF30918A084FEF480F50E04F5F5F4FAE
:100FF0003417150619F014F00196E7CF3330A0F23C
:1010000070928C0860928B08FCCE8130910531F093
:10101000AC01445051094330510538F410928C080A
:1010200010928B08109298082FCF892B09F02ECFA1
:101030001092890810928808509280014090870889
:10104000B1E04B1240C080918808909189080197C7
:1010500009F09FC080918F0881119BC089E190E0C9
:101060000E9483040E949B0520E030E040E850E4A9
:10107000688F798F8A8F9B8F688D798D8A8D9B8DF4
:101080000E949E091816FCF40E943F0440928F08AB
:101090001092890810928808E0918708EF5FE0932A
:1010A000870810928D0810929808F0E0EE0FFF1F4D
:1010B000EA5CFE4F0190F081E02D6081718189E949
:1010C00098E00E946C0080918708823009F061C02E
:1010D0008091880890918908019709F05AC0809101
:1010E0008F08811156C0CE0142960E9418068E8943
:1010F0009F890E947506882311F00F5F1F4F809112
:101100007308909174088017910709F1109374087F
:10111000009373081F92ECE3EF931F930F93FF92DA
:10112000EF921F92F1E1FF93DF92CF920E94610A4A
:1011300081E00E941D0260E080E00E942602C6015C
:101140000E9445020FB6F894DEBF0FBECDBF0C3330
:101150001105F8F00E943F0450928F081092890800
:1011600010928808E0918708EF5FE093870810925B
:101170008D0810929808F0E0EE0FFF1FEA5CFE4F1A
:101180000190F081E02D6081718189E998E00E94F1
:101190006C008091A108811104C089E998E00E9447
:1011A00097000E94360189E190E00E945404AFEF5D
:1011B000B3EB1197F1F700C00000E1CD892B09F0E6
:1011C0003DCF80918D08882309F438CF81508093DA
:1011D0008D0832CF019709F031CF58CE97FB072EFB
:1011E00016F4009407D077FD09D00E94240907FC6B
:1011F00005D03EF4909581959F4F08957095619527
:101200007F4F0895A1E21A2EAA1BBB1BFD010DC042
:10121000AA1FBB1FEE1FFF1FA217B307E407F507A6
:1012200020F0A21BB30BE40BF50B661F771F881F82
:10123000991F1A9469F760957095809590959B0118
:10124000AC01BD01CF010895AA1BBB1B51E107C032
:10125000AA1FBB1FA617B70710F0A61BB70B881F46
:10126000991F5A95A9F780959095BC01CD010895D5
:101270000E947A0908F481E00895E89409C097FB78
:101280003EF490958095709561957F4F8F4F9F4F5D
:101290009923A9F0F92F96E9BB279395F6958795A1
:1012A00077956795B795F111F8CFFAF4BB0F11F464
:1012B00060FF1BC06F5F7F4F8F4F9F4F16C088230B
:1012C00011F096E911C0772321F09EE8872F762F41
:1012D00005C0662371F096E8862F70E060E02AF082
:1012E0009A95660F771F881FDAF7880F969587956E
:1012F00097F90895990F0008550FAA0BE0E8FEEF43
:1013000016161706E807F907C0F012161306E407C9
:10131000F50798F0621B730B840B950B39F40A26C2
:1013200061F0232B242B252B21F408950A2609F4A0
:10133000A140A6958FEF811D811D08950E947A0915
:1013400008F48FEF08950E94B6090C94270A0E94B2
:10135000190A38F00E94200A20F0952311F00C940D
:10136000100A0C94160A11240C945B0A0E94380A85
:1013700070F3959FC1F3950F50E0551F629FF001E8
:10138000729FBB27F00DB11D639FAA27F00DB11D01
:10139000AA1F649F6627B00DA11D661F829F22278A
:1013A000B00DA11D621F739FB00DA11D621F839F11
:1013B000A00D611D221F749F3327A00D611D231FE7
:1013C000849F600D211D822F762F6A2F11249F5735
:1013D00050409AF0F1F088234AF0EE0FFF1FBB1F38
:1013E000661F771F881F91505040A9F79E3F5105F7
:1013F00080F00C94100A0C945B0A5F3FE4F3983E73
:10140000D4F3869577956795B795F795E7959F5FA0
:10141000C1F7FE2B880F911D9695879597F9089532
:1014200097F99F6780E870E060E008959FEF80EC97
:10143000089500240A94161617061806090608953A
:1014400000240A9412161306140605060895092EA0
:101450000394000C11F4882352F0BB0F40F4BF2B0F
:1014600011F460FF04C06F5F7F4F8F4F9F4F08954F
:1014700057FD9058440F551F59F05F3F71F0479545
:10148000880F97FB991F61F09F3F79F0879508952A
:10149000121613061406551FF2CF4695F1DF08C049
:1014A000161617061806991FF1CF86957105610566
:1014B00008940895E894BB2766277727CB0197F90E
:1014C0000895AEE0B0E0E7E6FAE00C941B0D0D895C
:1014D0001E898F89988D26E02C831A83098397FFB4
:1014E00002C080E090E801979E838D83AE01455E47
:1014F0005F4F698D7A8DCE0101960E94910A4D81D0
:101500005E8157FD0AC02F813885421753070CF4BE
:101510009A01020F131FF80110822E96E4E00C943A
:10152000370DAFE0B0E0E7E9FAE00C940D0D7C0177
:101530003B018A01DC0117961C921E9216971396A6
:101540008C9181FFC3C19AE0292EFE0131964F0193
:10155000D70113969C91F30193FD859193FF81919F
:101560003F01882309F448C1853239F493FD859100
:1015700093FF81913F01853229F4B70190E00E94E9
:101580007F0CE6CFB12C412C512CBFE1B51538F0C2
:101590008B3209F188F4803201F1833221F157FC5A
:1015A0003AC020ED280F2A3040F556FE1FC0B29CED
:1015B000200D1124B22E06C08D3291F0803379F7C0
:1015C000689450F8F30193FD859193FF81913F0159
:1015D0008111DBCF20C0689451F8689452F8F2CFA3
:1015E000689453F8EFCF689454F8ECCF429C200DE8
:1015F0001124422E689455F8E5CF8E3229F456FC1A
:10160000FBC0689456F8DECF8C3619F4689457F80E
:10161000D9CF8836B9F2982F9F7D95549330C0F07A
:101620008336A1F18337C1F1833509F05BC0D8015E
:10163000CD90DD908D016B2D70E056FC02C06FEFF8
:101640007FEFC6010E94690C5C01689457F80AC0DC
:101650000C5F1F4FEFE3E983AA24A394B12C64012C
:10166000E89457F853FC04C04A141B0409F018F519
:10167000342CA114B10431F5332009F469CFB7013A
:1016800080E290E00E947F0C3A94F6CFD8018C91D2
:1016900089830E5F1F4FE0CFF801C190D1908F0179
:1016A0006B2D70E056FC02C06FEF7FEFC6010E9409
:1016B000740C5C01D5CFB70180E290E00E947F0CF2
:1016C0004A94D2CFF60157FC859157FE81916F0164
:1016D000B70190E00E947F0C31103A94B1E0AB1A50
:1016E000B108C7CF843619F0893609F074C0F80103
:1016F00057FE6AC061917191819191918F01E52DA1
:10170000EF76DE2E97FF09C09095809570956195D4
:101710007F4F8F4F9F4F6894D7F82AE030E0A401A5
:101720000E94AF0CC82EC818AC2C5D2CD6FE0CC085
:10173000E89450F8CB1440F4D4FE05C0D2FC03C0AA
:101740005D2D5E7E552EAB2C54FE98C0FE01EC0D37
:10175000F11D8081803309F08AC0652D697E562E87
:10176000752D7870372E53FC98C050FE92C0BC2C5B
:10177000A41418F44C0CB42CBA1854FE94C0B7013D
:1017800080E390E00E947F0C52FE09C088E790E061
:1017900051FE02C088E590E0B7010E947F0CCB1497
:1017A00008F48DC0CA94D12C8FEFC81AD80AC80C7F
:1017B000D91CD6018E916D01B70190E00E947F0C7B
:1017C0008C149D04B1F758CF61917191072E000CD4
:1017D000880B990B93CFD52CE894D4F82AE030E00D
:1017E000853739F1F52DF97FDF2E8037A9F058F4D0
:1017F0008835A9F08F36D9F0F701868197812F9629
:10180000E2E10C94290D8837B9F7D4FE02C0689440
:10181000D2F820E130E00DC06894D4F8F6CF54FE41
:1018200003C02F2F2660D22E20E132E002C028E034
:1018300030E0F801D7FE15C041915191619171914D
:101840004C875D876E877F878F01A4016C857D85BE
:101850008E859F850E94AF0CC82EC818E894D7F8D3
:1018600063CF81919191AC0170E060E0E9CF52FCCF
:1018700002C0A39475CFA394A39472CF852D8678CC
:1018800009F46ECFF6CFB70180E290E00E947F0CA2
:10189000A394A414C0F3312C70CF342C3A18A414A0
:1018A00008F46BCFF8CF852D867809F478CF8BE2DA
:1018B00051FE80E257FC8DE2B70190E06ECFB70198
:1018C00080E390E00E947F0CBA9469CF8FEF9FEF86
:1018D00096CFFC010590615070400110D8F78095BB
:1018E00090958E0F9F1F0895FC01615070400190EC
:1018F0000110D8F7809590958E0F9F1F08950F9334
:101900001F93CF93DF93182F092FEB018B8181FD5C
:1019100009C01FEF0FEF812F902FDF91CF911F9103
:101920000F91089582FF14C02E813F818C819D818B
:10193000281739073CF4E881F981CF010196998392
:10194000888310838E819F8101969F838E83E3CF4E
:10195000E885F985812F0995892BA1F3DACFFA0162
:10196000AA27283051F1203181F1E8946F936E7FDE
:101970006E5F7F4F8F4F9F4FAF4FB1E03ED0B4E0CF
:101980003CD0670F781F891F9A1FA11D680F791F10
:101990008A1F911DA11D6A0F711D811D911DA11D21
:1019A00020D009F468943F912AE0269F1124301931
:1019B000305D3193DEF6CF010895462F4770405DCC
:1019C0004193B3E00FD0C9F7F6CF462F4F70405D7B
:1019D0004A3318F0495D31FD4052419302D0A9F7D6
:1019E000EACFB4E0A6959795879577956795BA95D0
:1019F000C9F700976105710508959B01AC010A2E96
:101A000006945795479537952795BA95C9F7620F6C
:101A1000731F841F951FA01D08952F923F924F9210
:101A20005F926F927F928F929F92AF92BF92CF926E
:101A3000DF92EF92FF920F931F93CF93DF93CDB777
:101A4000DEB7CA1BDB0B0FB6F894DEBF0FBECDBFEF
:101A500009942A88398848885F846E847D848C84C0
:101A60009B84AA84B984C884DF80EE80FD800C81C9
:101A70001B81AA81B981CE0FD11D0FB6F894DEBFAC
:0C1A80000FBECDBFED010895F894FFCF1C
:101A8C004402550273029002AC02D802F50206031E
:101A9C0030034A035F0374038A03A503C103E10304
:101AAC00E803EF03E103E803EF030000F60300048F
:101ABC0010042004300474016A01600156014C01C9
:101ACC00420140046F049B04CA0400004004F60465
:101ADC0016054A05000040047B05A305D805000047
:101AEC0040040A064906700600004004A106DB0605
:101AFC0014070000390761078C07C507ED070000C4
:101B0C0001522605640020066400E0069600740568
:101B1C00C80001C80000C80001C80000C800015876
:101B2C000200C80001C80000580201C80000C8002B
:101B3C0001580200C80001C80000580201C800008A
:101B4C00580201C80000580201580200C800015890
:101B5C000200C80001C80000C80001C800005802FB
:101B6C0001C80000780501580200C80001580200A5
:101B7C00580201C8000078052250757A7A6C6520ED
:101B8C0023313A2049742773206272696768742084
:101B9C00696E2068657265210050757A7A6C6520D3
:101BAC0023313A2049742773206461726B20696E6B
:101BBC002068657265210053746570733A20256442
:101BCC002F2564004E6F20636C7565732072656DF4
:101BDC0061696E2E0041726520796F752073757284
:101BEC006520796F752077616E74206120636C7548
:101BFC00653F00436C69636B204E45585420746FED
:101C0C0020756E6C6F636B206120636C75652E00A4
:101C1C00596F75206D6967687420686176652074EA
:101C2C006F206765742075702E2E2E00536F6D65B6
:101C3C007468696E6720696E20796F757220726F97
:101C4C006F6D20636F6E74726F6C73206272696754
:101C5C0068746E657373210054727920666C6970B8
:101C6C0070696E672061206C69676874207377698E
:101C7C007463682E00446F20796F7520736565203E
:101C8C00746861743F0049207265636F676E697A8E
:101C9C00652074686174207061747465726E2E2E88
:101CAC002E204D6F7273652C2072696768743F002B
:101CBC00446F20617320697420736179732120460D
:101CCC005245455A45206D65210054686520736B5B
:101CDC007920697320746865206C696D69740041A2
:101CEC00726520746865726520616E792068696C14
:101CFC006C733F00506572686170732061206C6971
:101D0C006C206869676865723F00497427732061AD
:101D1C00206E6963652064617920666F7220612092
:101D2C0077616C6B0048757272792C206265666FF6
:101D3C0072652074696D652072756E73206F757491
:101D4C000043616E27742062652073697474696E38
:101D5C00672027726F756E6420616C6C20646179EA
:101D6C0000436C7565203100436C7565203200436F
:101D7C006C756520330050757A7A6C6520233200BF
:101D8C0050757A7A6C6520332070726F6D707400A8
:101D9C0050757A7A6C6520342070726F6D70740097
:101DAC0050757A7A6C6520352070726F6D70740086
:101DBC0050757A7A6C6520362070726F6D70740075
:101DCC0057656C6C20646F6E652120436F6E74696F
:101DDC006E7565206D792073746F7279206279202D
:101DEC007072657373696E67204E4558542E0049A6
:101DFC00206E657665722073617720746865206F3C
:101E0C006365616E2C206275742049206472656173
:101E1C006D6564206F662069742E004C65742074A7
:101E2C0068652074696465206361727279206D65E0
:101E3C002077686572652049206E6576657220672B
:101E4C006F7420746F20676F2E005468616E6B2066
:101E5C00796F752E204E6F7720676F206C697665D1
:101E6C0020736F6D657468696E6720626561757447
:101E7C006966756C2E0049207573656420746F203B
:101E8C0066656172206265696E6720666F72676F46
:101E9C007474656E2E00427574206D6179626520D4
:101EAC007468697320697320656E6F7567682E207E
:101EBC004120736D616C6C206C696768742C2070A8
:101ECC006173736564206F6E2E00496620796F759F
:101EDC00277265207374696C6C206C697374656E01
:101EEC00696E672C206D617962652049276D2073BE
:101EFC0074696C6C20686572652E0049206D69737D
:101F0C00736564206D6F72652073756E7365747381
:101F1C00207468616E20492063616E20636F756E5A
:101F2C00742E00446F206F6E65207468696E672094
:101F3C00666F72206D652E20446F6E27742077615A
:101F4C00697420666F7220612027626574746572F3
:101F5C002074696D652E2700596F75277265206195
:101F6C006C6976652E2054686174277320616C6CE3
:101F7C0020746865207065726D697373696F6E206B
:101F8C00796F75206E6565642E005768656E2074D8
:101F9C00686520646F63746F7220736169642027B5
:101FAC007465726D696E616C2C272049206A75739B
:101FBC007420737461726564206174207468652088
:101FCC006365696C696E672E00492066656C7420C8
:101FDC007374696C6C2E204C696B652049206861A8
:101FEC006420616C7265616479206C6566742E0086
:101FFC00546861742773207768792049206D616477
:10200C006520746869732E20546F206D6F7665207F
:10201C007768656E204920636F756C646E27742E2B
:10202C000049206D657420736F6D656F6E65206F50
:10203C006E63652E205468657920736D656C6C65D4
:10204C0064206C696B65206F6C64207061706572C4
:10205C0020616E6420686F70652E00576520647275
:10206C0065616D6564206F6620736565696E6720B8
:10207C0074686520776F726C642C206275742074A0
:10208C00696D6520676F7420696E207468652077B0
:10209C0061792E005768656E206C6F7665206669D5
:1020AC006E647320796F752C20646F6E27742077A3
:1020BC00617374652069742E004865792E2E2E206C
:1020CC00796F752772652068657265212054686583
:1020DC00206A6F75726E616C20776F726B6564210C
:1020EC00005768656E20492077617320796F756E93
:1020FC00672C2049206C6F766564206275696C646E
:10210C00696E67207468696E67732E004920757359
:10211C00656420746F2074616B65206170617274EA
:10212C0020636C6F636B73206A75737420746F20FB
:10213C0073656520686F77207468657920746963AE
:10214C006B65642E0054686973206A6F75726E61DA
:10215C006C20697320746865206C617374207468DA
:10216C00696E672049206275696C742E0057696C22
:10217C006C20796F752068656C70206D65206669C0
:10218C006E6973682069743F00456E61626C6520EE
:10219C004572723A202530325800526561642045F0
:1021AC0072723A202530325800416C742E207772AE
:1021BC00697465206572726F7200416C742E2073A5
:1021CC0074617274206572726F72004932432072AE
:1021DC00656164206572726F7220200054656D70A9
:0E21EC002072656164206572726F72200000BF
:00000001FF
