:100000000C94D2020C94EF020C94EF020C94EF02C9
:100010000C9476040C94EF020C94EF020C94EF0213
:100020000C94EF020C94EF020C94EF020C94EF028C
:100030000C94EF020C94EF020C94EF020C94EF027C
:100040000C94EF020C94EF020C94EF020C94EF026C
:100050000C94EF020C94EF020C94EF020C94EF025C
:100060000C94EF020C94EF024E414E494E49545904
:10007000494E46CDCCCC3D0AD7233C17B7D1387773
:10008000CC2B329595E6241FB14F0A000020410089
:1000900000C84200401C4620BCBE4CCA1B0E5AAED3
:1000A000C59D749604C503F5022D026F01AF004093
:1000B000011401E500B90000005468616E6B2079FD
:1000C0006F752E204E6F7720676F206C69766520E4
:1000D000736F6D657468696E6720626561757469B8
:1000E00066756C2E004C65742074686520746964B4
:1000F00065206361727279206D652077686572652D
:100100002049206E6576657220676F7420746F20B9
:10011000676F2E0049206E657665722073617720C7
:10012000746865206F6365616E2C20627574204968
:1001300020647265616D6564206F662069742E00AD
:1001400057656C6C20646F6E652120436F6E746917
:100150006E7565206D792073746F727920627920D5
:100160007072657373696E67204E4558542E00FE99
:1001700001DE01AA0179010000496620796F752727
:100180007265207374696C6C206C697374656E6938
:100190006E672C206D617962652049276D2073742C
:1001A000696C6C20686572652E00427574206D6103
:1001B000796265207468697320697320656E6F7554
:1001C00067682E204120736D616C6C206C696768D4
:1001D000742C20706173736564206F6E2E0049204B
:1001E0007573656420746F2066656172206265694D
:1001F0006E6720666F72676F7474656E2E00576548
:100200006C6C20646F6E652120436F6E74696E752F
:1002100065206D792073746F727920627920707215
:10022000657373696E67204E4558542E00C6029E52
:1002300002690237020000596F7527726520616CF0
:100240006976652E2054686174277320616C6C2078
:10025000746865207065726D697373696F6E20795B
:100260006F75206E6565642E00446F206F6E65208B
:100270007468696E6720666F72206D652E20446F0A
:100280006E2774207761697420666F722061202761
:100290006265747465722074696D652E270049204B
:1002A0006D6973736564206D6F72652073756E730D
:1002B000657473207468616E20492063616E2063E9
:1002C0006F756E742E0057656C6C20646F6E6521BF
:1002D00020436F6E74696E7565206D792073746F3D
:1002E0007279206279207072657373696E67204E2F
:1002F0004558542E00960357033003FF0200005464
:100300006861742773207768792049206D6164657E
:1003100020746869732E20546F206D6F7665207786
:1003200068656E204920636F756C646E27742E00BB
:10033000492066656C74207374696C6C2E204C695E
:100340006B6520492068616420616C726561647925
:10035000206C6566742E005768656E207468652091
:10036000646F63746F7220736169642027746572AF
:100370006D696E616C2C272049206A757374207337
:1003800074617265642061742074686520636569B6
:100390006C696E672E0057656C6C20646F6E65210A
:1003A00020436F6E74696E7565206D792073746F6C
:1003B0007279206279207072657373696E67204E5E
:1003C0004558542E0067042D04F403CF0300005752
:1003D00068656E206C6F76652066696E647320793F
:1003E0006F752C20646F6E2774207761737465209D
:1003F00069742E00576520647265616D6564206FB5
:100400006620736565696E672074686520776F7212
:100410006C642C206275742074696D6520676F743C
:1004200020696E20746865207761792E0049206DFF
:10043000657420736F6D656F6E65206F6E63652EDA
:10044000205468657920736D656C6C6564206C69F7
:100450006B65206F6C6420706170657220616E64E2
:1004600020686F70652E0057656C6C20646F6E6538
:100470002120436F6E74696E7565206D79207374E9
:100480006F7279206279207072657373696E67206C
:100490004E4558542E004A051F05E604BE04A2042A
:1004A000000057696C6C20796F752068656C70204E
:1004B0006D652066696E6973682069743F005468D1
:1004C0006973206A6F75726E616C2069732074683D
:1004D00065206C617374207468696E6720492062BE
:1004E00075696C742E0049207573656420746F20E3
:1004F00074616B6520617061727420636C6F636BF3
:1005000073206A75737420746F2073656520686F3B
:10051000772074686579207469636B65642E005771
:1005200068656E20492077617320796F756E672C3E
:100530002049206C6F766564206275696C64696E11
:1005400067207468696E67732E004865792E2E2EB9
:1005500020796F752772652068657265212054685F
:1005600065206A6F75726E616C20776F726B65645F
:1005700021003E3E205553452045453435394C2019
:100580003C3C3738393031323334003E3E206174E0
:100590003332382D352E6320203C3C37383930310A
:1005A0003233340011241FBECFEFD8E0DEBFCDBF01
:1005B00014E0A0E0B1E0ECE6FBE202C005900D9291
:1005C000A038B107D9F725E0A0E8B4E001C01D923A
:1005D000AD38B207E1F70E94920A0C94B4150C945E
:1005E00000000F931F93CF93DF93EC018B0181E009
:1005F0000E94D404198308831B821A821D821C82E4
:100600001F821E82188610923601DF91CF911F91B2
:100610000F9108958091840491E0811190E090936E
:100620008404811108C041E050E06EE170E088EE82
:1006300093E00C94980608951F93CF93DF93FC01E9
:10064000808581110AC0A081B18122813381A20FEE
:10065000B31F8C91ED01811106C081E08087DF918D
:10066000CF911F910895CE018A1B9B0B49914F7D1D
:10067000D1F746815781840F951F44973CF08481C0
:100680009581178216820196958384838481958152
:100690008430910514F72F5F3F4F338322831C91E1
:1006A00066817781103219F461157105C1F29C01E0
:1006B00097FF02C02F5F3F4FEF0135952795562FCB
:1006C00044E1249F500D1124252F62E070E00E9428
:1006D000800E622F0E94DD04812F0E94E5048E812E
:1006E0009F8101969F838E831F7D11541A3108F0DC
:1006F000B6CFDF91CF911F910C940A0387B1807F11
:1007000087B988B18F6088B9E8E6F0E080818260BF
:100710008083ECE6F0E080818F6080837894089598
:10072000DC0130E020E0FB01E20FF31FE491EE2357
:1007300029F02F5F3F4F2034310511F41C920895AA
:10074000ED93F1CF0F931F93CF93DF93EC018B01C8
:1007500081E00E94D404B8018BEC94E00E949003E5
:100760008BEC94E0998388831B821A821D821C8201
:100770001F821E82188610923601DF91CF911F9141
:100780000F910895CF93DF93C2EBD4E018821A82C1
:1007900019821B821D821C821E8218860E942706D7
:1007A00069877A878B879C871D860E94EF070E9446
:1007B000A10F7F876E87E881F0E0EE0FFF1FED55F8
:1007C000FF4F85919491FC016591749182EC94E0C6
:1007D000DF91CF910C94A20380913601882361F1BF
:1007E0008091B3049091B4048130910509F064C004
:1007F000E091B2048091B6049091B704E1111DC05C
:100800000097D9F420E030E040EA50E46091BB0466
:100810007091BC048091BD049091BE040E9482102E
:100820006FEA71E0181614F06FEC71E082EC94E05E
:100830000E94F102109236010895609104017091B6
:1008400005018630910591F36091020170910301D9
:100850008430910559F36091000170910101853058
:10086000910521F381309105B9F070F08230910546
:10087000D1F00397F9F686E0E89FF0011124EA5FD2
:10088000FE4F64817581D2CFF0E0EE0FFF1FE65D71
:10089000FE4F60817181CACF86E0E89FF00111248C
:1008A000EA5FFE4FF6CF86E0E89FF0011124EA5F91
:1008B000FE4F62817381BACF892B09F0BBCFE091E3
:1008C000B204F0E0EE0FFF1FED55FF4F85919491BC
:1008D000E091B804F0E0EE0FFF1FE80FF91F6591FB
:1008E000749182EC94E00E94A203A4CF1F920F9215
:1008F0000FB60F9211248F939F93329903C081E01A
:1009000080938304319903C081E0809382043099FD
:1009100003C081E080938104339903C081E0809318
:1009200080048091830481110CC080918204811124
:1009300008C080918104811104C0809180048823C3
:10094000A1F08FEF93E20197F1F700C00000329B16
:10095000FECF319BFCCF309BFACF339BF8CF8FEF8C
:1009600093E20197F1F700C000009F918F910F90E3
:100970000FBE0F901F9018959BB19F709BB99BB1B4
:10098000807F892B8BB985B1837F85B92A9A2A9A72
:100990002A980895CF93C82F0E94BC048C2F82956B
:1009A000807FCF910C94BC042C980E94CA0486E6E8
:1009B0009EE00197F1F7000008958295880F880F57
:1009C000807C860F80680C94D4042C9A0E94CA0400
:1009D00086E69EE00197F1F700000895CF93DF933C
:1009E000EC01FE0184912196811103C0DF91CF912A
:1009F00008950E94E504F5CFCF93DF93EC01899130
:100A0000811103C0DF91CF9108950E94E504F7CFD3
:100A10008AB1806F8AB984B18C6184B92C988FEFC8
:100A20009BE60197F1F700C0000080E30E94BC0440
:100A30008FEF93E20197F1F700C0000080E30E947E
:100A4000BC048DED90E00197F1F780E30E94BC04B7
:100A500086E69EE00197F1F7000080E20E94BC0468
:100A600086E69EE00197F1F7000088E20E94D40438
:100A70008FE00C94D40486E69EE00197F1F7000025
:100A800008950F931F93A82F00000000000000009E
:100A900000004115510509F468C084EA8093BC0048
:100AA0008091BC0087FFFCCF8091B900887F88309F
:100AB00031F58A2F8E7F8093BB0084E88093BC0041
:100AC0008091BC0087FFFCCF8091B900887F88317E
:100AD000C9F08032A1F494E99093BC0010C08191D8
:100AE0008093BB006093BC008091BC0087FFFCCF6B
:100AF0008091B900887F883249F0803361F31F917B
:100B00000F910895FB01460F571F64E84E175F07CA
:100B100031F740E10115110569F514C0F90194ECB4
:100B20000130110589F484E88093BC008091BC00F9
:100B300087FFFCCF8091B900887F883501F78091CD
:100B4000BB00808380E0C7CF9093BC008091BC0045
:100B500087FFFCCF8091B900887F01501109803553
:100B600071F68091BB008193DBCF80E00115110508
:100B700031F248E084EA8093BC008091BC0087FF9A
:100B8000FCCF8091B900887F4813B9CFA160A093B2
:100B9000BB0084E88093BC008091BC0087FFFCCF41
:100BA0008091B900887F803409F4B8CF883409F087
:100BB000A6CF91CF1092B9008093B80008950F93FB
:100BC0001F93CF93DF93CDB7DEB763970FB6F8943B
:100BD000DEBF0FBECDBF80EA8A8B83E08B8B10E037
:100BE00000E030E020E042E050E0BE016E5E7F4F6A
:100BF000809137010E944105182F8823E9F060E0B9
:100C000082E00E94DD041F921F938AE194E09F938B
:100C10008F931F9281E18F938E010F5F1F4F1F9360
:100C20000F930E944111C8010E94FC040FB6F89472
:100C3000DEBF0FBECDBFFFCF63960FB6F894DEBF09
:100C40000FBECDBFDF91CF911F910F9108950F93EC
:100C50001F93CF93DF93CDB7DEB766970FB6F894A7
:100C6000DEBF0FBECDBF22E383EB92E02150804078
:100C70009040E1F700C000C084EB8E8B1A8A1B8A7B
:100C80001C8A1D8A04E010E09E012E5E3F4F41E069
:100C900050E0BE016A5E7F4F809137010E9441059E
:100CA000182F8823A1F160E082E00E94DD041F92EA
:100CB0001F938BE294E09F938F931F9281E18F9318
:100CC0008E010F5F1F4F1F930F930E944111C801A8
:100CD0000E94FC042FEF8FEF9CE221508040904057
:100CE000E1F700C000000FB6F894DEBF0FBECDBF25
:100CF00060E070E080E89FEB66960FB6F894DEBF88
:100D00000FBECDBFDF91CF911F910F9108956A89DA
:100D10007B898C899D89681B790B90E080E00E941B
:100D2000D00F27EE3DE147E25EE30E948710E4CF5B
:100D30000F931F93CF93DF938B01EA0120919C04C3
:100D400030919D042230310519F44230510531F5BE
:100D5000219A20E42093800029E020938100B0E0D4
:100D6000A0E09C01AD01220F331F441F551F60E01E
:100D700070E880E790E00E94940E21503109309392
:100D800089002093880010939F0400939E0481E0C3
:100D90008093A004D0939D04C0939C04DF91CF91D5
:100DA0001F910F9108951092800010928100299850
:100DB0001092A00410929D0410929C04089520911A
:100DC000A004222379F020919E0430919F04821781
:100DD000930710F00C94D306281B390B30939F0413
:100DE00020939E040895219A299808951092A204B0
:100DF00082E090E090939D0480939C0481E0809336
:100E0000A104E8E3F1E06281738142E050E0808177
:100E100091810C9498060E94DF068091A10488239A
:100E2000D9F08091A004811117C0E091A204EF5F76
:100E3000E093A204E43070F484E0E89FF001112410
:100E4000E85CFE4F6281738142E050E080819181D5
:100E50000C9498061092A104089584B1816884B915
:100E6000529A0895289A2F9A5A9A089528982F9856
:100E70005A980895EF92FF920F931F93CF938C018E
:100E80008091A304882369F18091A5049091A60420
:100E9000A091A704B091A804800F911FA11DB11DBE
:100EA000803127E29207A105B10570F48093A50473
:100EB0009093A604A093A704B093A804CF911F9188
:100EC0000F91FF90EF9008951092A5041092A60440
:100ED0001092A7041092A8041092A4041092A304E4
:100EE000EDCFC091A40483E0C89FF0011124E85B1A
:100EF000FE4FE180F2808081882381F00E943207DA
:100F00008091A9049091AA04800F911F8E159F05CE
:100F100040F49093AA048093A904D0CF0E9436078E
:100F2000EFCF1092AA041092A904CF5FC093A4043B
:100F3000C23220F20E94360781E08093A304BECF24
:100F40000F931F93CF93DF9300D0CDB7DEB786E228
:100F5000898388EB8A8310E000E030E020E042E003
:100F600050E0BE016F5F7F4F80EC0E9441058823F7
:100F700079F060E081E00E94DD048AE394E00E9461
:100F8000FC040F900F90DF91CF911F910F91089566
:100F90008FE19EE40197F1F700C0000089EB8A839E
:100FA00010E000E030E020E042E050E0BE016F5F82
:100FB0007F4F80EC0E944105882339F060E081E09A
:100FC0000E94DD048BE494E0DACF9FEF24E38CE011
:100FD000915020408040E1F700C00000D2CF0F9335
:100FE0001F93CF93DF93CDB7DEB728970FB6F89452
:100FF000DEBF0FBECDBF81E08C8303E010E09E0119
:101000002F5F3F4F41E050E0BE016C5F7F4F80ECAF
:101010000E9441058823D9F060E081E00E94DD0450
:101020008CE594E00E94FC046D837E838F83988717
:101030006D817E818F81988528960FB6F894DEBFEA
:101040000FBECDBFDF91CF911F910F910895898180
:1010500090E0B0E0A0E02AE0880F991FAA1FBB1F14
:101060002A95D1F74A8150E070E060E032E0440F09
:10107000551F661F771F3A95D1F7842B952BA62B0A
:10108000B72B2B812295269526952370AC01BD01A7
:10109000422B4D835E836F837887CB01BA010E9418
:1010A000D20FC2CF0F931F93CF93DF9300D000D006
:1010B00000D00F92CDB7DEB784E08B8302E010E062
:1010C0009E012F5F3F4F41E050E0BE016D5F7F4FBB
:1010D00080EC0E9441058823F9F060E081E00E94E5
:1010E000DD048DE694E00E94FC0460E070E08AE795
:1010F00094EC6C837D838E839F836C817D818E8154
:101100009F8127960FB6F894DEBF0FBECDBFDF914B
:10111000CF911F910F91089589819A8198278927EE
:10112000982724E0959587952A95E1F79C01990FDA
:10113000440B550B2C833D834E835F83CA01B90159
:101140000E94D20F20E030E040E85DE36C837D83B5
:101150008E839F836C817D818E819F810E94871009
:10116000C8CF0F931F93CF93DF9300D0CDB7DEB7D7
:1011700080E2898387E58A8310E000E030E020E0A8
:1011800042E050E0BE016F5F7F4F80E30E94410567
:101190000F900F90DF91CF911F910F910895EF92D3
:1011A000FF920F931F93CF93DF9300D000D000D016
:1011B0001F92CDB7DEB77C0188EA8F839E012F5F37
:1011C0003F4F86E0F90111928A95E9F706E010E0B9
:1011D00041E050E0BE01695F7F4F80E30E9441051E
:1011E0008823A1F0F70115821482138212821182E2
:1011F000108227960FB6F894DEBF0FBECDBFDF91E9
:10120000CF911F910F91FF90EF90089589819A815E
:1012100026E0959587952A95E1F7F70191838083DC
:101220008B819C8136E0959587953A95E1F793837C
:1012300082838D819E8146E0959587954A95E1F759
:1012400095838483D6CF9C014091AC045091AD042A
:101250009093AD048093AC048091AB04882331F06B
:101260009FEF980F9093AB0480E00895241B350BFB
:10127000225E3F4F2D33310520F08AE08093AB048E
:1012800081E008955B9A08955B980895539A0C94B1
:1012900044091092C5008FE28093C40088E18093D6
:1012A000C10086E08093C20008958091C00087FF4E
:1012B000FCCF8091C60008951092AF041092AE0446
:1012C0000E9455092091AE043091AF048A3029F470
:1012D000255F3A4FF901108208952F37310584F7C1
:1012E000A9014F5F5F4F5093AF044093AE04255F59
:1012F0003A4FF9018083E4CF2F923F924F925F9251
:101300006F927F928F929F92AF92BF92CF92DF9215
:10131000EF92FF920F931F93CF93DF93CDB7DEB77A
:10132000A4970FB6F894DEBF0FBECDBF7C011B01A2
:101330005CA34BA346E050E060EF71E00E94FD101B
:10134000892B51F046E050E067EF71E0C7010E9441
:10135000FD10892B09F0C9C080E16E0121E1C20EA8
:10136000D11CF601282F11922A95E9F78E010F5F03
:101370001F4FF80111928A95E9F76EE774E0C701F3
:101380000E94F810FEE4F9A3F12CE12C009719F467
:1013900025E42AA32CC02FEFE21AF20AE3E0EE16AE
:1013A000F10439F44FE050E0BC01C6010E940B117A
:1013B00007C0F4E0EF16F10451F4FC01F081F9A349
:1013C0006EE774E090E080E00E94F810DFCF25E047
:1013D000E216F10429F44FE050E0BC01C801E6CF69
:1013E000E6E0EE16F10461F7FC01F081FAA3C60114
:1013F0000E94F4102B013C01C8010E94F4104B0123
:101400005C0120E030E048EC52E4C301B2010E94EC
:10141000280F0E949A0F6B0184E68C9DB0018D9D70
:10142000700D1124072E000C880B990B0E94D20F0F
:101430009B01AC01C301B2010E94B60E20E030E076
:1014400040E752E40E94280F2B013C01B601DD0C5D
:10145000880B990B0E94D20F9B01AC01C301B20112
:101460000E94B70EE9A1E33509F458C0F101608389
:1014700071838283938320E030E048EC52E4C5011D
:10148000B4010E94280F0E949A0F6B0184E68C9D84
:10149000B0018D9D700D1124072E000C880B990B47
:1014A0000E94D20F9B01AC01C501B4010E94B60E8F
:1014B00020E030E040E752E40E94280F2B013C017D
:1014C000B601DD0C880B990B0E94D20F9B01AC0179
:1014D000C301B2010E94B70EFAA1F73509F1EBA1E1
:1014E000FCA16083718382839383A4960FB6F894E2
:1014F000DEBF0FBECDBFDF91CF911F910F91FF9047
:10150000EF90DF90CF90BF90AF909F908F907F90A3
:101510006F905F904F903F902F9008959058A6CF76
:101520009058DDCFCF93DF93CDB7DEB767970FB677
:10153000F894DEBF0FBECDBF88E40E94DA050E949A
:1015400008050E94F3060E942D070E94DF050E94F5
:10155000A0070E94B1080E947E030E9446090E94D3
:10156000C203F12CE12C11E075E0872E912C9E0135
:101570002F5F3F4F190108E280918304882369F0AF
:101580008091B9041092830491E0811190E09093CE
:10159000B904811112C30E94C2038091B904882347
:1015A00059F3909180048091B204992349F12091DC
:1015B000B3043091B404109280042115310509F070
:1015C0000DC39091CA049923D9F0E82FF0E0EE0FF3
:1015D000FF1FED55FF4F259134919091B804E92FED
:1015E000F0E03196EE0FFF1FE20FF31F25913491CB
:1015F000232B09F4E6C29F5F9093B8041093360141
:10160000909182042091B3043091B4049923F1F0B5
:101610001092820421303105C9F49091BF0441E059
:10162000911140E04093BF0450E040E0911108C0A8
:101630009091B50441E050E0911102C046E050E0C5
:101640005093B7044093B6041093360190918104EF
:101650009923C9F0109281042130310509F016C395
:101660002091B6043091B704A9014250510942308B
:10167000510508F0F3C2215031093093B70420938B
:10168000B604109336012091B3043091B404213094
:10169000310509F059C0811157C08091BA048111F8
:1016A0009AC00E9427062B013C01A090BB04B09079
:1016B000BC04C090BD04D090BE0420E030E040EAFD
:1016C00050E4C601B5010E948210181654F420E0BF
:1016D00030E040EA50E4C301B2010E94230F87FDCD
:1016E00014C020E030E040EA50E4C601B5010E9499
:1016F000230F87FF29C020E030E040EA50E4C30117
:10170000B2010E9482101816FCF40E94F606109393
:10171000BA041092B4041092B304E091B204EF5FE3
:10172000E093B2041092B8041092BF04F0E0EE0F00
:10173000FF1FED55FF4F0190F081E02D6081718119
:1017400082EC94E00E94A203D090B20431E0D31264
:1017500042C08091B3049091B404019709F092C003
:101760008091BA0481118EC089E190E00E943A070D
:101770000E94520820E030E040EC51E40E948210C8
:1017800018164CF50E94F606D092BA041092B404D2
:101790001092B304E091B204EF5FE093B2041092B0
:1017A000B8041092BF04F0E0EE0FFF1FED55FF4F9D
:1017B0000190F081E02D6081718182EC94E00E94C3
:1017C000A2030E9436070E94EF070E94A10F7093A8
:1017D000C1046093C0048091B204823009F052C009
:1017E0008091B3049091B404019709F04BC08091AB
:1017F000BA04811147C00E94EF070E94A10F2091F7
:10180000C0043091C1046B01C21AD30ADF92CF9297
:101810008DEE91E09F938F931F9231E13F933F9222
:101820002F920E9441116BE080E00E94DD04C10113
:101830000E94FC040FB6F894DEBF0FBECDBF9AE045
:10184000C916D104FCF00E94F6061093BA04109257
:10185000B4041092B304E091B204EF5FE093B204D9
:101860001092B8041092BF04F0E0EE0FFF1FED5588
:10187000FF4F0190F081E02D6081718182EC94E056
:101880000E94A2038091B204833009F06AC0809163
:10189000B3049091B404019709F063C08091BA0435
:1018A00081115FC08091B6049091B704892B09F033
:1018B00058C0CE0142960E94CF088E899F890E940F
:1018C0002309882319F02FEFE21AF20A80919B0472
:1018D0008F5F883208F0E6C180939B0420919904C1
:1018E00030919A042E153F05C9F02E153F0508F0DA
:1018F000E3C1C7010A9668E270E00E946C0E862F71
:101900006AE06E0D089F601911240E94DD048EE2CA
:101910000E94E504F0929A04E092990485E4E816A6
:10192000F104F8F00E94F6061093BA041092B40481
:101930001092B304E091B204EF5FE093B20410920E
:10194000B8041092BF04F0E0EE0FFF1FED55FF4FFB
:101950000190F081E02D6081718182EC94E00E9421
:10196000A2038091B204853009F0D8C08091B304FD
:101970009091B404019709F00BC18091BA048111D0
:1019800007C18091B6049091B704892B09F000C17A
:101990000E945C0946E050E060EF71E08BE095E06A
:1019A0000E94FD10892B59F046E050E067EF71E08E
:1019B0008BE095E00E94FD10892B09F0AFC041E952
:1019C00054E065E974E08BE095E00E947C09A0900A
:1019D0009504B0909604C0909704D090980420E0AD
:1019E00030E0A901C601B5010E94230F882309F444
:1019F00095C0409091045090920460909304709030
:101A0000940420E030E0A901C301B2010E94230F39
:101A1000882309F483C08091900481111AC0A09298
:101A20008C04B0928D04C0928E04D0928F042CEB63
:101A300034E743E95CE3C301B2010E94B70E60934F
:101A400088047093890480938A0490938B04109384
:101A5000900420918C0430918D0440918E0450911B
:101A60008F04C601B5010E94B60E5B016C0120E037
:101A700030E0A9010E94230F87FF04C0D7FAD09459
:101A8000D7F8D094209188043091890440918A0439
:101A900050918B04C301B2010E94B60E2B013C0190
:101AA00020E030E0A9010E94230F87FF04C077FAED
:101AB000709477F870942FE632E143E05AE3C60160
:101AC000B5010E94230F87FF29C02FE632E143E0D2
:101AD0005AE3C301B2010E94230F87FF1FC00E9477
:101AE000F6061093BA041092B4041092B304E09175
:101AF000B204EF5FE093B2041092B8041092BF04F6
:101B0000F0E0EE0FFF1FED55FF4F0190F081E02D4B
:101B10006081718182EC94E00E94A2038091B20402
:101B20008430B1F58091B3049091B404019781F5AC
:101B30008091BA0481112CC08091B6049091B704B1
:101B4000892B31F580918704811104C00E944209DC
:101B50001093870480918504909186040196909358
:101B60008604809385048035910590F00E94440995
:101B700081E00E94D4041092B904109287049FEF70
:101B80002FE332E0915020403040E1F700C00000E8
:101B90008091CA04811104C082EC94E00E941C036D
:101BA0000E94EC0389E190E00E940B078FEF93EB1A
:101BB0000197F1F700C00000DFCC81E00E94D4045F
:101BC000ECCC21E030E03093B4042093B3041092C5
:101BD000B7041092B6041092BA0410CD213031052A
:101BE00009F00ECD9091BF04992309F409CD2091FD
:101BF000B6043091B7042630310539F424E030E0E2
:101C00003093B7042093B604F9CC2430310551F455
:101C10002091B504233008F0F1CC2F5F2093B50458
:101C200030E0EECFA901415051094330510508F091
:101C3000E5CC9091B5044FEF420F50E04F5F5F4FFE
:101C40009417150621F01CF02F5F3F4FD9CF93302A
:101C5000A8F29092B7048092B604D0CC213031051E
:101C600031F0A901445051094330510538F4109224
:101C7000B7041092B6041092BF0403CD232B09F0D1
:101C800002CD1092B4041092B304FBCC232B09F0C4
:101C9000FACC9091B804992309F4F5CC9150909323
:101CA000B804EFCC10929B04E114F10409F416CEB1
:101CB00031E0E31AF10812CEC9010A9668E270E039
:101CC0000E946C0E862F6AE0620F089F6019112433
:101CD0000E94DD0480E21CCEAA1BBB1B51E107C0A1
:101CE000AA1FBB1FA617B70710F0A61BB70B881FAC
:101CF000991F5A95A9F780959095BC01CD0108953B
:101D000097FB072E16F4009407D077FD09D00E94A8
:101D10006C0E07FC05D03EF4909581959F4F089579
:101D2000709561957F4F0895A1E21A2EAA1BBB1BE7
:101D3000FD010DC0AA1FBB1FEE1FFF1FA217B30797
:101D4000E407F50720F0A21BB30BE40BF50B661FAD
:101D5000771F881F991F1A9469F760957095809571
:101D600090959B01AC01BD01CF0108955058BB2750
:101D7000AA270E94CE0E0C9448100E943A1038F008
:101D80000E94411020F039F49F3F19F426F40C947E
:101D900037100EF4E095E7FB0C943110E92F0E9408
:101DA000591058F3BA17620773078407950720F094
:101DB00079F4A6F50C947B100EF4E0950B2EBA2F57
:101DC000A02D0B01B90190010C01CA01A001112441
:101DD000FF27591B99F0593F50F4503E68F11A16ED
:101DE000F040A22F232F342F4427585FF3CF46957E
:101DF00037952795A795F0405395C9F77EF41F16A0
:101E0000BA0B620B730B840BBAF09150A1F0FF0F69
:101E1000BB1F661F771F881FC2F70EC0BA0F621F55
:101E2000731F841F48F4879577956795B795F79545
:101E30009E3F08F0B0CF9395880F08F09927EE0FDA
:101E40009795879508950E940D1008F481E00895F4
:101E50000E943C0F0C9448100E94411058F00E94C0
:101E60003A1040F029F45F3F29F00C9431105111E1
:101E70000C947C100C9437100E94591068F399232D
:101E8000B1F3552391F3951B550BBB27AA27621776
:101E90007307840738F09F5F5F4F220F331F441F83
:101EA000AA1FA9F335D00E2E3AF0E0E832D09150B7
:101EB0005040E695001CCAF72BD0FE2F29D0660FA4
:101EC000771F881FBB1F261737074807AB07B0E8E7
:101ED00009F0BB0B802DBF01FF2793585F4F3AF0ED
:101EE0009E3F510578F00C9431100C947C105F3FAC
:101EF000E4F3983ED4F3869577956795B795F79573
:101F00009F5FC9F7880F911D9695879597F908955A
:101F1000E1E0660F771F881FBB1F621773078407F6
:101F2000BA0720F0621B730B840BBA0BEE1F88F705
:101F3000E09508950E94A10F6894B1110C947C1053
:101F400008950E94611088F09F5798F0B92F992743
:101F5000B751B0F0E1F0660F771F881F991F1AF094
:101F6000BA95C9F714C0B13091F00E947B10B1E06E
:101F700008950C947B10672F782F8827B85F39F06D
:101F8000B93FCCF3869577956795B395D9F73EF42D
:101F900090958095709561957F4F8F4F9F4F0895D5
:101FA000E89409C097FB3EF49095809570956195F3
:101FB0007F4F8F4F9F4F9923A9F0F92F96E9BB27A9
:101FC0009395F695879577956795B795F111F8CF25
:101FD000FAF4BB0F11F460FF1BC06F5F7F4F8F4F90
:101FE0009F4F16C0882311F096E911C0772321F086
:101FF0009EE8872F762F05C0662371F096E8862F1E
:1020000070E060E02AF09A95660F771F881FDAF774
:10201000880F9695879597F90895990F0008550FA1
:10202000AA0BE0E8FEEF16161706E807F907C0F05E
:1020300012161306E407F50798F0621B730B840B66
:10204000950B39F40A2661F0232B242B252B21F440
:1020500008950A2609F4A140A6958FEF811D811DE0
:10206000089597F99F6780E870E060E008959FEF1A
:1020700080EC089500240A9416161706180609061F
:10208000089500240A9412161306140605060895EE
:10209000092E0394000C11F4882352F0BB0F40F476
:1020A000BF2B11F460FF04C06F5F7F4F8F4F9F4FB6
:1020B000089557FD9058440F551F59F05F3F71F038
:1020C0004795880F97FB991F61F09F3F79F087959F
:1020D0000895121613061406551FF2CF4695F1DF28
:1020E00008C0161617061806991FF1CF86957105B8
:1020F000610508940895E894BB2766277727CB01EC
:1021000097F908950E940D1008F48FEF08950E942A
:102110009A100C9448100E943A1038F00E94411016
:1021200020F0952311F00C9431100C9437101124E9
:102130000C947C100E94591070F3959FC1F3950F79
:1021400050E0551F629FF001729FBB27F00DB11D3B
:10215000639FAA27F00DB11DAA1F649F6627B00DCB
:10216000A11D661F829F2227B00DA11D621F739FB4
:10217000B00DA11D621F839FA00D611D221F749FC2
:102180003327A00D611D231F849F600D211D822F09
:10219000762F6A2F11249F5750409AF0F1F0882330
:1021A0004AF0EE0FFF1FBB1F661F771F881F91505D
:1021B0005040A9F79E3F510580F00C9431100C94CB
:1021C0007C105F3FE4F3983ED4F38695779567954E
:1021D000B795F795E7959F5FC1F7FE2B880F911D87
:1021E0009695879597F90895662777270C944B1352
:1021F00040EB54E00E941A110895FB01DC014150AC
:10220000504030F08D910190801919F40020B9F7F9
:10221000881B990B0895FB01DC014150504048F0A8
:1022200001900D920020C9F701C01D92415050400D
:10223000E0F70895FA01A191B081009719F4109781
:10224000E1F0CD01DC01CD010D90002011F4C001C1
:1022500013C0FB012191222319F02015D9F7F3CFE8
:10226000FB012191201519F41E92119606C022231C
:10227000C1F70D900020A1F7D001FA01A193B0831E
:102280000895AEE0B0E0E7E4F1E10C947C150D892F
:102290001E898F89988D26E02C831A83098397FFE6
:1022A00002C080E090E801979E838D83AE01455E79
:1022B0005F4F698D7A8DCE0101960E9471114D811B
:1022C0005E8157FD0AC02F813885421753070CF4F1
:1022D0009A01020F131FF80110822E96E4E00C946D
:1022E0009815ABE0B0E0E7E7F1E10C946E157C01E6
:1022F0003B018A01FC0117821682838181FFC8C1DC
:10230000CE0101965C01F7019381F30193FD859164
:1023100093FF81913F01882309F453C1853239F439
:1023200093FD859193FF81913F01853229F4B70197
:1023300090E00E94D214E7CF912C212C312CFFE1A8
:10234000F31538F08B3211F190F4803209F18332B9
:1023500029F137FC3CC020ED280F2A3050F536FE1D
:1023600020C08AE0989E200D1124922E06C08D3246
:1023700091F0803371F7689430F8F30193FD859103
:1023800093FF81913F018111DACF21C0689431F828
:10239000689432F8F2CF689433F8EFCF689434F849
:1023A000ECCFEAE02E9E200D1124222E689435F801
:1023B000E4CF8E3229F436FC04C1689436F8DDCFC0
:1023C0008C3619F4689437F8D8CF8836B1F2982F44
:1023D0009F7D95549330E0F08336A1F18337C1F1AE
:1023E000833509F063C02801F2E04F0E511CF8015B
:1023F000C080D180692D70E036FC02C06FEF7FEFA6
:10240000C6010E94BC144C01689437F882010AC0CE
:102410000C5F1F4FFFE3F98388248394912C65019F
:10242000E89437F833FE2DC0522C8114910471F5D5
:10243000552009F468CFB70180E290E00E94D214E1
:102440005A94F6CFF801808189830E5F1F4FE4CF45
:102450002801F2E04F0E511CF801C080D180692D97
:1024600070E036FC02C06FEF7FEFC6010E94C71418
:102470004C018201D5CFB70180E290E00E94D214D6
:102480002A942814190409F0B0F7CECFF60137FCCE
:10249000859137FE81916F01B70190E00E94D214BF
:1024A00051105A94F1E08F1A9108BFCF843619F079
:1024B000893609F077C0F80137FE6BC06081718101
:1024C000828193810C5F1F4FF32DFF763F2E97FF84
:1024D00009C090958095709561957F4F8F4F9F4F64
:1024E000689437F82AE030E0A5010E940215C82E52
:1024F000CA188C2C432C36FE0CC0E89440F8C91442
:1025000040F434FE05C032FC03C0F32DFE7E4F2E96
:10251000892C44FE95C0FE01EC0DF11D80818033B5
:1025200009F087C0242D297E422E842D8870582ED4
:1025300043FC95C040FE8FC09C2C821418F42C0CD8
:10254000922C981844FE91C0B70180E390E00E945D
:10255000D21442FE09C088E790E041FE02C088E53F
:1025600090E0B7010E94D214C91408F48AC0CA943A
:10257000D12C9FEFC91AD90ACA0CDB1CF601829133
:102580006F01B70190E00E94D214AC14BD04B1F702
:102590004FCF60817181072E000C880B990B0E5F65
:1025A0001F4F92CFD32CE894D4F82AE030E085373F
:1025B00039F1232D297FD22E8F3601F148F4883549
:1025C000A9F0F701868197812B96E2E10C948A1598
:1025D000803749F08837A9F7D4FE02C06894D2F852
:1025E00020E130E00DC06894D4F8F6CF34FE03C08B
:1025F000822F8660D82E20E132E002C028E030E051
:10260000F801D7FE0FC060817181828193810C5FD8
:102610001F4FA5010E940215C82ECA183D2CE89430
:1026200037F867CF6081718190E080E00E5F1F4FC7
:10263000F0CF42FC02C0839478CF8394839475CF0B
:10264000842D867809F471CFF6CFB70180E290E04F
:102650000E94D21483948214C0F3512C73CF522C55
:102660005818821408F46ECFF8CF842D867809F4B8
:102670007BCF8BE241FE80E247FC8DE2B70190E028
:1026800071CFB70180E390E00E94D2149A946CCF8E
:102690008FEF9FEF99CFB0E0A0E0E1E5F3E10C947C
:1026A00074155C017B016115710519F0DB018D93D7
:1026B0009C9385010F5F1F4FF501D0818D2F90E016
:1026C0000E949B146C01892BB9F5DD32B9F50F5FBF
:1026D0001F4FD5011196DC91C1E05801F1E0AF1A0E
:1026E000B10843E050E060E770E0C5010E94A41427
:1026F000892B69F5680182E0C80ED11C45E050E0E5
:102700006BE670E0C6010E94A414892B21F46801D5
:1027100097E0C90ED11CE114F10419F0D701CD9254
:10272000DC9260E070E080E89FEFC111FFC060E0E4
:1027300070E080E89FE7FAC05801BBCFDB3229F494
:1027400085010E5F1F4FF501D181C0E0C6CF43E088
:1027500050E068E670E0C5010E94A414892BE9F0FE
:10276000F80110E000E020E030E0A9015F01B0EDE9
:102770008B2E8D0E89E08815C8F19C2E689491F8F7
:102780008C2F8870C2FF16C0811102C00F5F1F4FCF
:102790003196D501DC91C92DE9CFE114F10429F07E
:1027A0000E5F1F4FF7011183008360E070E080EC43
:1027B0009FE7BCC0882311F001501109A5E0B0E0EB
:1027C0000E9463159B01AC01220F331F441F551F4C
:1027D000280D311D411D511D283999E93907490737
:1027E00099E15907A8F2C6609C2ED2CFAEEF8A12AB
:1027F00006C0C3FD3CC09C2E689493F8C9CFDF7D12
:10280000D534A9F580818D3239F4C061DF0112968B
:10281000818162E070E006C0DF018B32C1F3119666
:1028200061E070E080535D01A61AB70A8A30F8F4BF
:10283000E0E8CE16ECE0DE065CF4B601660F771F2A
:10284000660F771FC60ED71ECC0CDD1CC80ED11C20
:102850005D01FFEFAF1ABF0A8C9180538A30A8F157
:10286000C4FF03C0D194C194D1080C0D1D1DC1FF3C
:1028700009C0E114F10431F081E0A81AB108D701D0
:10288000AD92BC92CA01B9010E94D00FC370C3308F
:1028900009F490584B015C0120E030E0A9010E944E
:1028A000230F882309F440C0CFE9D0E017FF05C00B
:1028B000119501951109C7E8D0E06E01B8E1CB1A76
:1028C000D10880E2E82EF12C0FC0D501B1CFFE0176
:1028D00025913591459154910E191F09C501B401F7
:1028E0000E9487104B015C01D501C4010E151F0524
:1028F00074F72497F594E794CC16DD06A9F78A2F90
:10290000880F8B2F881F8F3F49F020E030E0A9010E
:10291000C501B4010E94230F811106C082E290E03C
:1029200090938C0580938B05C501B401CDB7DEB7BC
:10293000ECE00C94901591110C946015803219F014
:1029400089508550C8F70895FB01DC014150504083
:1029500088F08D9181341CF08B350CF4805E65918C
:1029600061341CF06B350CF4605E861B611171F3F1
:10297000990B0895881BFCCFFC01059061507040B5
:102980000110D8F7809590958E0F9F1F0895FC0138
:102990006150704001900110D8F7809590958E0F8E
:1029A0009F1F08950F931F93CF93DF93182F092F25
:1029B000EB018B8181FD09C01FEF0FEF812F902F5D
:1029C000DF91CF911F910F91089582FF14C02E8146
:1029D0003F818C819D81281739073CF4E881F9817A
:1029E000CF0101969983888310838E819F81019600
:1029F0009F838E83E3CFE885F985812F0995892B05
:102A0000A1F3DACFFA01AA27283051F1203181F160
:102A1000E8946F936E7F6E5F7F4F8F4F9F4FAF4FE6
:102A2000B1E03ED0B4E03CD0670F781F891F9A1FF9
:102A3000A11D680F791F8A1F911DA11D6A0F711DAD
:102A4000811D911DA11D20D009F468943F912AE0B9
:102A5000269F11243019305D3193DEF6CF010895A1
:102A6000462F4770405D4193B3E00FD0C9F7F6CFD2
:102A7000462F4F70405D4A3318F0495D31FD40529A
:102A8000419302D0A9F7EACFB4E0A6959795879530
:102A900077956795BA95C9F700976105710508950F
:102AA0009B01AC010A2E06945795479537952795BB
:102AB000BA95C9F7620F731F841F951FA01D089553
:102AC0009927882708950E94A515A59F900DB49F6A
:102AD000900DA49F800D911D112408952F923F9277
:102AE0004F925F926F927F928F929F92AF92BF921E
:102AF000CF92DF92EF92FF920F931F93CF93DF93CA
:102B0000CDB7DEB7CA1BDB0B0FB6F894DEBF0FBE26
:102B1000CDBF09942A88398848885F846E847D8473
:102B20008C849B84AA84B984C884DF80EE80FD8075
:102B30000C811B81AA81B981CE0FD11D0FB6F894EB
:102B4000DEBF0FBECDBFED010895A29FB001B39FC0
:102B5000C001A39F700D811D1124911DB29F700DA6
:0C2B6000811D1124911D0895F894FFCFF1
:102B6C00FE010F022D024A0266029202AF02C0025F
:102B7C00EA0204031A03290340035C036803890374
:102B8C009F03C103BD03BD03BD030000D803E203D3
:102B9C00ED03FA030A0401522605640020066400C2
:102BAC00E00696007405C80001C80000C80001C802
:102BBC000000C80001580200C80001C800005802FB
:102BCC0001C80000C80001580200C80001C800007C
:102BDC00580201C80000580201C8000058020158F0
:102BEC000200C80001580200C80001C80000C8005B
:102BFC0001C80000580201C8000078050158020005
:102C0C00C80001580200580201C800007805225083
:102C1C00757A7A6C652023313A20497427732062C7
:102C2C00726967687420696E20686572652100504E
:102C3C00757A7A6C652023313A20497427732064A5
:102C4C0061726B20696E20686572652100256400D5
:102C5C00244750524D4300244750474741004E6F84
:102C6C0020636C7565732072656D61696E2E004111
:102C7C00726520796F75207375726520796F752078
:102C8C0077616E74206120636C75653F00436C69DD
:102C9C00636B204E45585420746F20756E6C6F63B7
:102CAC006B206120636C75652E00596F75206D6902
:102CBC00676874206861766520746F20676574207E
:102CCC0075702E2E2E00536F6D657468696E6720BB
:102CDC00696E20796F757220726F6F6D20636F6EE5
:102CEC0074726F6C73206272696768746E6573734B
:102CFC00210054727920666C697070696E6720616E
:102D0C00206C69676874207377697463682E00445B
:102D1C006F20796F752073656520746861743F004E
:102D2C0049207265636F676E697A65207468617497
:102D3C00207061747465726E2E2E2E204D6F72731E
:102D4C00652C2072696768743F00446F20617320A2
:102D5C00697420736179732120465245455A452088
:102D6C006D65210054686520736B7920697320743C
:102D7C006865206C696D6974210053656520616E0E
:102D8C00792068696C6C733F005065726861707370
:102D9C002061206C696C27206869676865723F0048
:102DAC00497427732061206E696365206461792002
:102DBC00666F7220612077616C6B2E00446F6E27FA
:102DCC00742073746F70210043616E2774206265E8
:102DDC002073697474696E672027726F756E642036
:102DEC00616C6C206461792100596F75206D696785
:102DFC006874206E6565642061206D61702E004CD6
:102E0C006F6F6B73206C696B6520612064657374E4
:102E1C00696E6174696F6E20746F206D652E2E2E35
:102E2C000056697369742074686520636F6F7264EF
:102E3C00696E61746573210050757A7A6C65202314
:102E4C00320050757A7A6C652023333A0050757ACB
:102E5C007A6C652023343A202E0050757A7A6C6592
:102E6C0020352070726F6D70740050757A7A6C65B5
:102E7C0020362070726F6D707400456E61626C65E7
:102E8C00204572723A202530325800526561642018
:102E9C004572723A202530325800416C742E2077DE
:102EAC0072697465206572726F7200416C742E20A9
:102EBC007374617274206572726F720049324320B0
:102ECC0072656164206572726F7220200054656DAA
:102EDC00702072656164206572726F7220002C0024
:00000001FF
