:100000000C949A040C94B7040C94B7040C94B704A1
:100010000C9497070C94B7040C94B7040C94B70491
:100020000C94B7040C94B7040C94B7040C94B70464
:100030000C94B7040C94B7040C94B7040C94B70454
:100040000C94B7040C94B7040C942C0C0C94B704C7
:100050000C94B7040C94B7040C94B7040C94B70434
:100060000C94B7040C94B7044E414E494E49545970
:10007000494E46CDCCCC3D0AD7233C17B7D1387773
:10008000CC2B329595E6241FB14F0A000020410089
:1000900000C84200401C4620BCBE4CCA1B0E5AAED3
:1000A000C59D74CE075F06D4046C030B02AF00DC61
:1000B00001B0018C01590139010901EA00D100C3E5
:1000C0000000002E2E2E62656175746966756C2EB7
:1000D000004E6F7720676F206C69766520736F6DB7
:1000E000657468696E672E2E2E005468616E6B20F1
:1000F000796F7520666F7220676976696E67206D0B
:10010000652070656163652E00492077616E7420FB
:10011000746F206265636F6D65206F6E652E20536E
:100120006F66742C20616E6420626C75652C206192
:100130006E6420667265652E004920646F6E2774B8
:100140002077616E7420746F206861756E74206D05
:10015000656D6F726965732E004C657420746865F7
:100160002074696465206361727279206D65207303
:100170006F6D6577686572652049206E657665727A
:1001800020676F7420746F20676F2E0054616B6559
:10019000206D7920706963747572652E2057616CCB
:1001A0006B20746F207468652073686F72652E0011
:1001B00049206E65766572207361772074686520CA
:1001C0006F6365616E2C20627574204920647265CE
:1001D000616D6564206F662069742E0057656C6CD4
:1001E00020646F6E652120436F6E74696E756520A3
:1001F0006D792073746F72792062792070726573E3
:1002000073696E67204E4558542E003D030F03EE70
:1002100002CB02920264024C021D0200004D617981
:1002200062652049276D206E6F7420676F6E652CA4
:1002300020696620796F75277265207374696C6C0C
:10024000206C697374656E696E672E002E2E2E6D9C
:10025000617962652074686174277320656E6F75BB
:1002600067682E0049662074686973206A6F75722A
:100270006E616C206D616B657320796F75207061A4
:100280007573652C206576656E206F6E63652E2E06
:100290002E004D61796265207765206A7573742040
:1002A0006E65656420746F206265206120736D61E6
:1002B0006C6C206C6967687420666F7220736F6D58
:1002C000656F6E6520656C73652E00427574206DD8
:1002D0006179626520776520646F6E2774206E6592
:1002E0006564206D6F6E756D656E74732E004920A8
:1002F00077617320736F20736361726564206F662A
:1003000020646973617070656172696E672E00495F
:10031000207573656420746F20776F6E646572203A
:10032000696620616E796F6E6520776F756C6420E9
:1003300072656D656D626572206D652E0057656C26
:100340006C20646F6E652120436F6E74696E7565F5
:10035000206D792073746F727920627920707265D4
:100360007373696E67204E4558542E00A5047704B8
:1003700046041E040304F703C203B2038003000013
:10038000596F7527726520616C6976652E205468F7
:100390006174277320616C6C2074686520706572CD
:1003A0006D697373696F6E20796F75206E65656412
:1003B0002E004974206E6576657220636F6D6573DB
:1003C0002E00446F206F6E65207468696E6720662A
:1003D0006F72206D652E20446F6E277420776169DF
:1003E0007420666F722061202762657474657220C4
:1003F00074696D652E270043686F736520666561BB
:10040000722E0043686F736520776F726B2E2043E6
:10041000686F736520636F6D666F72742E0049207C
:100420006D6973736564206D6F72652073756E738B
:10043000657473207468616E20492063616E206367
:100440006F756E742E004920616C7761797320732B
:100450006169642049276420636C696D6220697456
:10046000206F6E65206461792E2049206E65766567
:1004700072206469642E0054686572652773206178
:100480002074726565206F757473696465206D7979
:10049000206F6C6420626564726F6F6D2077696E87
:1004A000646F772E0057656C6C20646F6E65212039
:1004B000436F6E74696E7565206D792073746F7209
:1004C00079206279207072657373696E67204E457A
:1004D00058542E003006FE05DA05B20594057B055A
:1004E00046052805E80400005468617427732077E6
:1004F00068792049206D6164652074686973206A99
:100500006F75726E616C2E20546F206D6F76652052
:100510007768656E2049206E6F206C6F6E6765721C
:1005200020636F756C642E00427574206D792062B3
:100530006F647920636F756C646E2774206B6565DA
:10054000702075702E0045766572797468696E67E3
:1005500020492077616E74656420746F20646F2079
:1005600073756464656E6C79207365656D65642E62
:100570002E2E20757267656E742E004C696B652097
:10058000492068616420616C7265616479206C65E2
:1005900066742E0042757420616C6C20492066657B
:1005A0006C7420776173207374696C6C6E657373FF
:1005B0002E0050656F706C65207468696E6B2079D1
:1005C0006F75206665656C207361646E6573732C4E
:1005D000206F7220726167652E0049206A757374FE
:1005E000207374617265642061742074686520638F
:1005F00065696C696E672074696C65732E00546858
:1006000065206461792074686520646F63746F721B
:10061000207361696420277465726D696E616C2C4A
:10062000272049206469646E2774206372792E0044
:1006300057656C6C20646F6E652120436F6E746922
:100640006E7565206D792073746F727920627920E0
:100650007072657373696E67204E4558542E009F03
:10066000076B0732071707F106C806AF069D06732A
:100670000600004C6F76652069732061206C6974F8
:10068000746C65206D697261636C652E20446F6EB9
:1006900027742077617374652069742E0054696D26
:1006A0006520616C7761797320646F65732E0042F9
:1006B00075742074696D6520676F7420696E20748D
:1006C0006865207761792E00576520647265616DD9
:1006D0006564206F6620736565696E672074686560
:1006E00020776F726C6420746F6765746865722E12
:1006F000005468657920736D656C6C6564206C6965
:100700006B65206F6C6420706170657220616E642F
:1007100020686F70652E0049206D657420746865CF
:100720006D20696E206120626F6F6B73746F7265EC
:100730002E002E2E2E6B6E6F77696E6720697427E0
:100740007320746865207269676874207468696EC4
:10075000672C206275742077697368696E672069F9
:100760007420776572656E27743F00486176652056
:10077000796F75206576657220776174636865644A
:1007800020736F6D656F6E6520796F75206C6F7665
:10079000652077616C6B20617761792E2E2E005772
:1007A000656C6C20646F6E652120436F6E74696E9A
:1007B0007565206D792073746F727920627920706D
:1007C00072657373696E67204E4558542E00CF08CA
:1007D000A4087108450824080508DE0700004974CC
:1007E0002073746172747320736D616C6C2E2E2E85
:1007F0002062757420646F6E277420746865792098
:10080000616C6C3F005468657265277320612073CA
:10081000746F72792062757269656420696E73699C
:1008200064652E004920686F706520796F75276CAC
:100830006C2068656C70206D652066696E697368F0
:100840002069742E0054686973206A6F75726E6136
:100850006C20697320746865206C617374207468FF
:10086000696E6720492065766572206D6164652E2A
:10087000004927642074616B652061706172742087
:10088000636C6F636B73206A75737420746F20736D
:10089000656520686F772074686579207469636B7B
:1008A00065642E005768656E204920776173207952
:1008B0006F756E672C2049206C6F766564206275B9
:1008C000696C64696E67207468696E67732E00488E
:1008D00065792E2E2E20796F7527726520686572D6
:1008E00065212054686174206D65616E73207468A1
:1008F00065206A6F75726E616C20776F726B6564CC
:100900002E003E3E205553452045453435394C2078
:100910003C3C3738393031323334003E3E2061744C
:100920003332382D352E6320203C3C373839303176
:100930003233340011241FBECFEFD8E0DEBFCDBF6D
:1009400014E0A0E0B1E0ECE6F3E302C005900D9204
:10095000AA37B107D9F726E0AAE7B4E001C01D9293
:10096000AF38B207E1F70E94B60D0C94B4190C949D
:1009700000000F931F93CF93DF93EC018B0181E075
:100980000E94CF07198308831B821A821D821C8252
:100990001F821E82188610923601DF91CF911F911F
:1009A0000F9108958091810491E0811190E09093DE
:1009B0008104811108C041E050E06EE170E088EEF2
:1009C00093E00C94930908951F93CF93DF93FC0158
:1009D000808581110AC0A081B18122813381A20F5B
:1009E000B31F8C91ED01811106C081E08087DF91FA
:1009F000CF911F910895CE018A1B9B0B49914F7D8A
:100A0000D1F746815781840F951F44973CF084812C
:100A100095811782168201969583848384819581BE
:100A20008430910514F72F5F3F4F338322831C914D
:100A300066817781103219F461157105C1F29C014C
:100A400097FF02C02F5F3F4FEF0135952795562F37
:100A500044E1249F500D1124252F62E070E00E9494
:100A60004812622F0E94D807812F0E94E0078E81D2
:100A70009F8101969F838E831F7D11541A3108F048
:100A8000B6CFDF91CF911F910C94D20487B1807FB4
:100A900087B988B18F6088B9E8E6F0E0808182602C
:100AA0008083ECE6F0E080818F6080837894089505
:100AB000DC0130E020E0FB01E20FF31FE491EE23C4
:100AC00029F02F5F3F4F2034310511F41C92089517
:100AD000ED93F1CF0F931F93CF93DF93EC018B0135
:100AE00081E00E94CF07B8018DEC95E00E94580587
:100AF0008DEC95E0998388831B821A821D821C826B
:100B00001F821E82188610923601DF91CF911F91AD
:100B10000F910895AAEAB5E0EC91F0E0EE0FFF1F07
:100B2000ED55FF4F259134911696EC91F0E0EE0FC4
:100B3000FF1FE20FF31F659174910C946A05CF9328
:100B4000DF93CAEAD5E084E088831A8219821B8287
:100B50001D821C821E8218860E94220969877A875C
:100B60008B879C871D86E881F0E0EE0FFF1FED5517
:100B7000FF4F85919491FC016591749184EC95E00F
:100B8000DF91CF910C946A052F923F924F925F9222
:100B90006F927F928F929F92AF92BF92CF92DF928D
:100BA000EF92FF920F931F93CF93DF93CDB7DEB7F2
:100BB000C355D1090FB6F894DEBF0FBECDBF8091EB
:100BC0003601882309F46AC08091AB059091AC0589
:100BD000E091AA058130910509F08EC18091AE05A2
:100BE0009091AF05E11174C0009709F042C120E077
:100BF00030E040EA50E46091B3057091B405809113
:100C0000B5059091B6050E9469146FEA71E0181657
:100C100014F06FEC71E084EC95E00E94B9048091CF
:100C2000AA058330C9F58091AE059091AF05892B57
:100C300099F580917C04882379F110927C04F090DE
:100C40007A0480E58F1510F480E5F82E63E272E0F7
:100C50008E010F5F1F4FC8010E94E414F80101903C
:100C60000020E9F73197E01BF10BFF27D801AE0F09
:100C7000BF1F80E09EE28F1157C1E00FF11FE80F08
:100C8000F11D108281E00E94CF0760E080E00E94A9
:100C9000D807C8010E94F70710923601CD5ADF4FDE
:100CA0000FB6F894DEBF0FBECDBFDF91CF911F917D
:100CB0000F91FF90EF90DF90CF90BF90AF909F90FB
:100CC0008F907F906F905F904F903F902F900895FE
:100CD000E43009F0CEC0009709F0CBC0C090BC054D
:100CE000D090BD05E090BE05F090BF05C701B601EC
:100CF0000E9481139B0177FF04C022273327261B04
:100D0000370BB901330F880B990B0E94B9132AE0F6
:100D100037ED43E25CE30E940A138E010F5F1F4F21
:100D200087FD21C08090C0059090C105A090C205AC
:100D3000B090C305C501B4010E9481139B0177FFE8
:100D400004C022273327261B370BB901330F880B2A
:100D5000990B0E94B9132AE037ED43E25CE30E944D
:100D60000A1387FF07C06DEE71E0C8010E94E4140A
:100D7000B80151CF20E030E44CE156E4C701B601A0
:100D80000E946E140E9481136B017C0120E030E40C
:100D90004CE156E4C501B4010E946E140E94811317
:100DA0004B015C0140E1442E47E2542E612C712C32
:100DB000A30192010E947E121B0163968FAF63977D
:100DC00064969FAF6497C701B601A30192010E9488
:100DD0007E123B01582E492EC1016396AFAD639739
:100DE0006496BFAD6497B7FF07C0B095A095909586
:100DF00081959F4FAF4FBF4FBF93AF939F938F93FB
:100E0000C501B40120E137E240E050E00E947E12CB
:100E10005F934F933F932F93C301A52DB42DB7FF3D
:100E200007C0B095A095909581959F4FAF4FBF4F4C
:100E3000BF93AF939F938F93C701B60120E137E231
:100E400040E050E00E947E125F934F933F932F93B8
:100E500084E092E09F938F931F9280E48F931F937F
:100E60000F930E942F150FB6F894DEBF0FBECDBFB3
:100E70007FCF60910401709105018630910509F4DE
:100E8000CACE60910201709103018430910509F48A
:100E9000C2CE60910001709101018530910509F485
:100EA000BACE81309105C1F078F082309105D9F049
:100EB000039709F0B4CE96E0E99FF0011124EA5FB0
:100EC000FE4F64817581A7CEF0E0EE0FFF1FE65D57
:100ED000FE4F608171819FCE96E0E99FF001112461
:100EE000EA5FFE4FF6CF86E0E89FF0011124EA5F4B
:100EF000FE4F628173818FCE892B09F090CEF0E096
:100F0000EE0FFF1FED55FF4F85919491E091B005D5
:100F1000F0E0EE0FFF1FE80FF91F6591749184EC6C
:100F200095E00E946A057BCE9D938F5FA4CE1F92B1
:100F30000F920FB60F9211248F93329903C081E064
:100F400080938004319903C081E080937F043099BD
:100F500003C081E080937E04339903C081E08093D5
:100F60007D048F910F900FBE0F901F9018959BB12D
:100F70009F709BB99BB1807F892B8BB985B1837F93
:100F800085B92A9A2A9A2A980895CF93C82F0E9441
:100F9000B7078C2F8295807FCF910C94B7072C9840
:100FA0000E94C50786E69EE00197F1F700000895CC
:100FB0008295880F880F807C860F80680C94CF07FD
:100FC0002C9A0E94C50786E69EE00197F1F7000083
:100FD0000895CF93DF93EC01FE0184912196811156
:100FE00003C0DF91CF9108950E94E007F5CFCF9322
:100FF000DF93EC018991811103C0DF91CF910895B6
:101000000E94E007F7CF8AB1806F8AB984B18C6102
:1010100084B92C988FEF9BE60197F1F700C0000090
:1010200080E30E94B7078FEF93E20197F1F700C0CA
:10103000000080E30E94B7078DED90E00197F1F783
:1010400080E30E94B70786E69EE00197F1F7000073
:1010500080E20E94B70786E69EE00197F1F7000064
:1010600088E20E94CF078FE00C94CF0786E69EE0CF
:101070000197F1F7000008950F931F93A82F000028
:1010800000000000000000004115510509F468C08F
:1010900084EA8093BC008091BC0087FFFCCF8091E4
:1010A000B900887F883031F58A2F8E7F8093BB000E
:1010B00084E88093BC008091BC0087FFFCCF8091C6
:1010C000B900887F8831C9F08032A1F494E9909307
:1010D000BC0010C081918093BB006093BC008091E4
:1010E000BC0087FFFCCF8091B900887F883249F02F
:1010F000803361F31F910F910895FB01460F571F35
:1011000064E84E175F0731F740E10115110569F5F5
:1011100014C0F90194EC0130110589F484E880933E
:10112000BC008091BC0087FFFCCF8091B900887F14
:10113000883501F78091BB00808380E0C7CF909312
:10114000BC008091BC0087FFFCCF8091B900887FF4
:1011500001501109803571F68091BB008193DBCF7E
:1011600080E00115110531F248E084EA8093BC006B
:101170008091BC0087FFFCCF8091B900887F481325
:10118000B9CFA160A093BB0084E88093BC0080919C
:10119000BC0087FFFCCF8091B900887F803409F4C0
:1011A000B8CF883409F0A6CF91CF1092B9008093C0
:1011B000B80008950F931F93CF93DF93CDB7DEB799
:1011C00063970FB6F894DEBF0FBECDBF80EA8A8B5F
:1011D00083E08B8B10E000E030E020E042E050E064
:1011E000BE016E5E7F4F809137010E943C08182F30
:1011F0008823E9F060E082E00E94D8071F921F93E5
:1012000085E094E09F938F931F9281E18F938E01ED
:101210000F5F1F4F1F930F930E942F15C8010E944D
:10122000F7070FB6F894DEBF0FBECDBFFFCF6396B2
:101230000FB6F894DEBF0FBECDBFDF91CF911F91E7
:101240000F9108950F931F93CF93DF93CDB7DEB720
:1012500066970FB6F894DEBF0FBECDBF22E383EBD7
:1012600092E0215080409040E1F700C000C084EB44
:101270008E8B1A8A1B8A1C8A1D8A04E010E09E014C
:101280002E5E3F4F41E050E0BE016A5E7F4F80918D
:1012900037010E943C08182F8823A1F160E082E00A
:1012A0000E94D8071F921F9386E194E09F938F932B
:1012B0001F9281E18F938E010F5F1F4F1F930F933A
:1012C0000E942F15C8010E94F7072FEF8FEF9CE2B5
:1012D000215080409040E1F700C000000FB6F89424
:1012E000DEBF0FBECDBF60E070E080E89FEB66968A
:1012F0000FB6F894DEBF0FBECDBFDF91CF911F9127
:101300000F9108956A897B898C899D89681B790B67
:1013100090E080E00E94B71327EE3DE147E25EE3F4
:101320000E946E14E4CF0F931F93CF93DF938B0132
:10133000EA0120911205309113052230310519F48C
:101340004230510531F5219A20E42093800029E0B4
:1013500020938100B0E0A0E09C01AD01220F331F7B
:10136000441F551F60E070E880E790E00E945C1227
:10137000215031093093890020938800109315057E
:101380000093140581E080931605D0931305C09354
:101390001205DF91CF911F910F9108951092800057
:1013A0001092810029981092160510921305109240
:1013B0001205089520911605222379F02091140535
:1013C000309115058217930710F00C94CE09281B55
:1013D000390B30931505209314050895219A299807
:1013E00008951092180582E090E090931305809381
:1013F000120581E080931705E8E3F1E062817381D3
:1014000042E050E0808191810C9493090E94DA09B6
:10141000809117058823D9F080911605811117C096
:10142000E0911805EF5FE0931805E43070F484E074
:10143000E89FF0011124E85CFE4F6281738142E075
:1014400050E0808191810C949309109217050895C2
:1014500084B1816884B9529A0895289A2F9A5A9A29
:10146000089528982F985A980895EF92FF920F9315
:101470001F93CF938C0180911905882369F1809186
:101480001B0590911C05A0911D05B0911E05800FB4
:10149000911FA11DB11D803127E29207A105B10561
:1014A00070F480931B0590931C05A0931D05B093C9
:1014B0001E05CF911F910F91FF90EF90089510920C
:1014C0001B0510921C0510921D0510921E0510920E
:1014D0001A0510921905EDCFC0911A0583E0C89F37
:1014E000F0011124E85BFE4FE180F28080818823C7
:1014F00081F00E942D0A80911F0590912005800F98
:10150000911F8E159F0540F49093200580931F0531
:10151000D0CF0E94310AEFCF1092200510921F0504
:10152000CF5FC0931A05C23220F20E94310A81E0D7
:1015300080931905BECF0F931F93CF93DF9300D0F5
:10154000CDB7DEB786E2898388EB8A8310E000E0BE
:1015500030E020E042E050E0BE016F5F7F4F80EC62
:101560000E943C08882379F060E081E00E94D8075F
:1015700085E294E00E94F7070F900F90DF91CF91E2
:101580001F910F9108958FEF97E40197F1F700C035
:10159000000089EB8A8310E000E030E020E042E0C8
:1015A00050E0BE016F5F7F4F80EC0E943C088823B3
:1015B00039F060E081E00E94D80786E394E0DACF5A
:1015C0009FEF2FE38BE0915020408040E1F700C077
:1015D0000000D2CF0F931F93CF93DF9300D000D0A2
:1015E000CDB7DEB781E08C8303E010E09E012F5F72
:1015F0003F4F41E050E0BE016C5F7F4F80EC0E94A6
:101600003C088823A1F060E081E00E94D80787E4CD
:1016100094E00E94F70760E070E0CB010F900F901C
:101620000F900F90DF91CF911F910F9108956981D5
:1016300070E090E080E02AE0660F771F881F991F16
:101640002A95D1F70A8110E030E020E042E0000F57
:10165000111F221F331F4A95D1F7602B712B822B4C
:10166000932B2B812295269526952370622BD6CF1E
:101670000F931F93CF93DF9300D01F92CDB7DEB7A8
:1016800084E08B8302E010E09E012F5F3F4F41E03A
:1016900050E0BE016D5F7F4F80EC0E943C088823C4
:1016A000A1F060E081E00E94D80788E594E00E9404
:1016B000F70760E070E08AE794EC0F900F900F90CE
:1016C000DF91CF911F910F91089569817A817627DB
:1016D0006727762784E0759567958A95E1F7072E49
:1016E000000C880B990B0E94B91320E030E040E811
:1016F0005DE30E946E14E1CF0F931F93CF93DF93AE
:1017000000D0CDB7DEB780E2898387E58A8310E019
:1017100000E030E020E042E050E0BE016F5F7F4F2C
:1017200080E30E943C080F900F90DF91CF911F91B2
:101730000F910895EF92FF920F931F93CF93DF9332
:1017400000D000D000D01F92CDB7DEB77C0188EA70
:101750008F839E012F5F3F4F86E0F90111928A959A
:10176000E9F706E010E041E050E0BE01695F7F4F1D
:1017700080E30E943C088823A1F0F70115821482BF
:10178000138212821182108227960FB6F894DEBF60
:101790000FBECDBFDF91CF911F910F91FF90EF90C2
:1017A000089589819A8126E0959587952A95E1F794
:1017B000F701918380838B819C8136E09595879595
:1017C0003A95E1F7938382838D819E8146E09595DA
:1017D00087954A95E1F795838483D6CF9C01409104
:1017E0002205509123059093230580932205809133
:1017F0002105882331F09FEF980F9093210580E019
:101800000895241B350B225E3F4F2D33310520F008
:101810008AE08093210581E008955B9A08955B98A2
:101820000895539A0C940F0C1092C5008FE2809388
:10183000C40088E98093C10086E08093C2000895C7
:101840008091240508951092260510922505109286
:10185000240510920D0608951F920F920FB60F9255
:1018600011242F934F935F938F939F93EF93FF9345
:101870002091C6008091A7058D30C1F42A30B1F4C3
:101880008091250590912605181619063CF4E091E3
:101890002505F0912605E45FF94F108281E08093E1
:1018A0002405109226051092250516C08091250565
:1018B000909126058F379105A4F780912505909189
:1018C0002605AC014F5F5F4F5093260540932505D9
:1018D000835F994FFC0120832093A705FF91EF912F
:1018E0009F918F915F914F912F910F900FBE0F900D
:1018F0001F9018952F923F924F925F926F927F9216
:101900008F929F92AF92BF92CF92DF92EF92FF920F
:101910000F931F93CF93DF93CDB7DEB7A4970FB686
:10192000F894DEBF0FBECDBF8C017AA369A35CA380
:101930004BA346E050E069E674E00E94EB14892B6B
:1019400019F146E050E060E774E0C8010E94EB1432
:10195000712C892BD9F0A4960FB6F894DEBF0FBE78
:10196000CDBFDF91CF911F910F91FF90EF90DF904E
:10197000CF90BF90AF909F908F907F906F905F902F
:101980004F903F902F900895772473944FE750E045
:10199000B80187E295E00E94F9141092A60580E153
:1019A0006E0121E1C20ED11CF601282F11922A9559
:1019B000E9F78E010F5F1F4FF80111928A95E9F741
:1019C00067E774E087E295E00E94DF14BC019EE4C3
:1019D000392EF12CE12C6115710519F485E4282EBE
:1019E0002CC0FFEFEF1AFF0A772009F4A6C024E00D
:1019F000E216F10421F44FE050E0C6010EC085E08C
:101A0000E816F10419F4FB01308009C0F6E0EF1686
:101A1000F10469F44FE050E0C8010E94F91467E74F
:101A200074E090E080E00E94DF14BC01D4CF27E096
:101A3000E216F104A1F7FB012080C6010E94DB142D
:101A40002B013C01C8010E94DB144B015C0120E02A
:101A500030E048EC52E4C301B2010E940F130E942F
:101A600081136B0184E68C9DB0018D9D700D112456
:101A7000072E000C880B990B0E94B9139B01AC0137
:101A8000C301B2010E949D1220E030E040E752E421
:101A90000E940F132B013C01B601DD0C880B990B42
:101AA0000E94B9139B01AC01C301B2010E949E12B6
:101AB000F3E53F1609F456C0E9A1FAA160837183EA
:101AC0008283938320E030E048EC52E4C501B40106
:101AD0000E940F130E9481136B0184E68C9DB0015C
:101AE0008D9D700D1124072E000C880B990B0E9400
:101AF000B9139B01AC01C501B4010E949D1220E005
:101B000030E040E752E40E940F132B013C01B60184
:101B1000DD0C880B990B0E94B9139B01AC01C3012A
:101B2000B2010E949E12F7E52F16F1F0EBA1FCA185
:101B300060837183828393830ECFF2E0EF16F1040A
:101B400009F459CF23E0E216F10409F45CCFF4E084
:101B5000EF16F10409F45ECF25E0E216F10409F076
:101B60005ECF69CF9058A8CF9058E0CFCF93DF9346
:101B7000CDB7DEB767970FB6F894DEBF0FBECDBF07
:101B800088E40E94D5080E9403080E94EE090E9482
:101B9000280A0E94DA080E949B0A0E947C0B0E947D
:101BA00046050E94110C0E949F050E94140C8E0194
:101BB0000F5F1F4F45E0242E312C54E0852E912CD1
:101BC00068E2A62EB12C809180048823F1F08091E8
:101BD0007F048823D1F08FEF93E20197F1F700C0E3
:101BE000000032999DC331999BC3109280041092DA
:101BF0007F041092AA0560E084E690E00E945119EB
:101C00000E949F0581E00E94CF0780918004882375
:101C1000A9F08FEF93E20197F1F700C0000032992D
:101C200088C3109280048091B10591E0811190E009
:101C30009093B105811179C30E949F058091B105F0
:101C4000882309F4C0CF80917F04882339F18FEF76
:101C500093E20197F1F700C00000319973C310922D
:101C60007F048091AB059091AC050197B9F4809108
:101C7000B70591E0811190E09093B70581115CC3A5
:101C80008091AD05882309F45AC381E090E09093D8
:101C9000AF058093AE0581E08093360180917E048C
:101CA000882329F18FEF93E20197F1F700C000003C
:101CB000309973C310927E048091AB059091AC056E
:101CC0008130910509F05DC38091AE059091AF051B
:101CD0009C01225031092230310508F036C30197AA
:101CE0009093AF058093AE0581E08093360180919B
:101CF0007D04882399F18FEF93E20197F1F700C0FB
:101D0000000033999AC310927D048091AB059091A5
:101D1000AC05009709F051C38091CC05882309F4E4
:101D20007CC0E091AA05F0E0EE0FFF1FED55FF4FDC
:101D3000859194912091B005E22FF0E03196EE0F5D
:101D4000FF1FE80FF91F85919491892B09F428C38F
:101D50002F5F2093B00581E0809336018091AB0521
:101D60009091AC05019709F058C08091AA058111A6
:101D700054C08091B20581118BC00E9422096B0171
:101D80007C014090B3055090B4056090B50570900B
:101D9000B60520E030E040EA50E4C301B2010E9401
:101DA0006914181654F420E030E040EA50E4C7010A
:101DB000B6010E940A1387FD14C020E030E040EA1B
:101DC00050E4C301B2010E940A1387FF26C020E03D
:101DD00030E040EA50E4C701B6010E9469141816C9
:101DE000E4F40E94F10981E08093B2051092AC0501
:101DF0001092AB058091AA058F5F8093AA0510927F
:101E0000B0051092B70584EC95E00E948A056091B8
:101E1000AA0584E690E00E945119F090AA0531E0ED
:101E2000F31236C08091AB059091AC05019709F093
:101E3000B0C08091B2058111ACC089E190E00E94F0
:101E4000350A0E94380B20E030E040EC51E40E945B
:101E500069141816ECF40E94F109F092B205109280
:101E6000AC051092AB058091AA058F5F8093AA05FF
:101E70001092B0051092B70584EC95E00E948A0597
:101E80000E94310A6091AA0584E690E00E945119EF
:101E90008091AA05823009F07CC08091AB059091B9
:101EA000AC05019709F075C08091B205811171C030
:101EB0008091AE059091AF05892B09F06AC08091A1
:101EC000110581110DC00E94EA0A6093B805709354
:101ED000B9058093BA059093BB0581E08093110505
:101EE0000E94EA0AC090B805D090B905E090BA0502
:101EF000F090BB059B01AC012C193D094E095F090F
:101F000069017A01F7FE08C0F094E094D094C0947F
:101F1000C11CD11CE11CF11CDF92CF924EE252E0B9
:101F20005F934F931F9291E19F931F930F930E9492
:101F30002F156BE080E00E94D807C8010E94F707C8
:101F40000FB6F894DEBF0FBECDBF3EE1C316D1047D
:101F5000E104F104F4F00E94F10981E08093B205FC
:101F60001092AC051092AB058091AA058F5F80930B
:101F7000AA051092B0051092B7051092110584ECD5
:101F800095E00E948A056091AA0584E690E00E948F
:101F900051198091AA05833009F084C08091AB0566
:101FA0009091AC05019709F06BC18091B205811148
:101FB00067C18091AE059091AF05892B09F050C2A1
:101FC000CE0142960E949A0B8E899F890E94EE0B49
:101FD000882349F080917A0490917B040196909334
:101FE0007B0480937A04809110058F5F80931005A5
:101FF000883268F080917A0490917B0410921005E9
:10200000009729F0019790937B0480937A04409184
:102010007A0450917B0420910E0530910F054217F0
:102020005307E9F02417350708F00AC2CA010A96D7
:10203000B5010E943412862F6AE0640F48E2489F7F
:10204000601911240E94D8078EE20E94E007809157
:102050007A0490917B0490930F0580930E058091F4
:102060007A0490917B0485349105E0F00E94F10997
:1020700081E08093B2051092AC051092AB0580917F
:10208000AA058F5F8093AA051092B0051092B7053C
:1020900084EC95E00E948A056091AA0584E690E0B0
:1020A0000E9451198091AA05843009F0E9C08091FD
:1020B000AB059091AC05019709F01DC18091B20567
:1020C000811119C18091AE059091AF05892B09F05E
:1020D00012C10E94200C882309F4D2C0109224055A
:1020E00080E8EDE0F6E0AEE8B4E001900D928A956C
:1020F000E1F70E94230C46E854E06AE874E08EE8B9
:1021000094E00E947A0C40908A0450908B04609076
:102110008C0470908D042FE832EC4FEE51E4C30133
:10212000B2010E94691418160CF0AAC025E83BEE13
:1021300046E452E4C301B2010E940A1387FFA0C023
:10214000C0908604D0908704E0908804F0908904C1
:1021500028E431EE4EEF52ECC701B6010E9469143B
:1021600018160CF08DC02DE33AE04FE752ECC70192
:10217000B6010E940A1387FF83C0809185048111F4
:102180001DC04092BC055092BD056092BE05709284
:10219000BF052FE632E143E85AE3C701B6010E94CA
:1021A0009E126093C0057093C1058093C205909301
:1021B000C30581E080938504809336012091BC059E
:1021C0003091BD054091BE055091BF05C301B201DC
:1021D0000E949D122B013C0120E030E0A9010E94E9
:1021E0000A1387FF04C077FA709477F870942091EF
:1021F000C0053091C1054091C2055091C305C7018A
:10220000B6010E949D126B017C0120E030E0A90123
:102210000E940A1387FF04C0F7FAF094F7F8F094CD
:102220002FE632E143E05AE3C301B2010E940A13F0
:1022300087FF26C02FE632E143E05AE3C701B6012B
:102240000E940A1387FF1CC00E94F10981E080935D
:10225000B2051092AC051092AB058091AA058F5F74
:102260008093AA051092B0051092B70584EC95E012
:102270000E948A056091AA0584E690E00E945119A7
:102280008091AA058530B9F58091AB059091AC0598
:10229000019789F58091B20581112DC08091AE051D
:1022A0009091AF05892B39F580918404811105C087
:1022B0000E940D0C81E080938404809182049091AF
:1022C0008304019690938304809382048035910562
:1022D00090F00E940F0C81E00E94CF071092B10590
:1022E000109284048FEF9FE322E0815090402040C1
:1022F000E1F700C000008091CC05811104C084EC9E
:1023000095E00E94E4040E94C40589E190E00E94E7
:10231000060A8FEF93EB0197F1F700C0000053CC52
:102320001092800410927F0470CC81E00E94CF074D
:1023300085CC1092800482CC90E080E0A8CC86E02E
:1023400090E0A5CC10927F04A9CC8130910531F0AA
:102350009C01245031092330310538F41092AF0527
:102360001092AE051092B705BFCC892B09F0BFCCF7
:102370001092AC051092AB0510927B0410927A0477
:10238000B3CC892B09F0B3CC8091B005882309F434
:10239000AECC81508093B005A7CC10927E04A7CC20
:1023A00021E030E03093AC052093AB051092AF05EF
:1023B0001092AE051092B205CECC019709F02DCD4A
:1023C0008091B705882309F4D0CC8091AE05909117
:1023D000AF058630910529F49092AF058092AE0545
:1023E000BACC8430910571F48091AD05833008F04A
:1023F000B2CC8F5F8093AD0590E09093AF05809352
:10240000AE05A9CC9C01215031092330310508F0DB
:10241000A2CC4091AD052FEF280F30E02F5F3F4F4A
:102420004217130619F014F00196E7CF4330A0F2DB
:102430003092AF052092AE058ECC10927D048ECCEA
:10244000C9010A96B5010E943412862F6AE0620F14
:1024500058E2589F601911240E94D80780E2F5CDF8
:1024600081E080937C041ECEAA1BBB1B51E107C0F8
:10247000AA1FBB1FA617B70710F0A61BB70B881F14
:10248000991F5A95A9F780959095BC01CD010895A3
:1024900097FB072E16F4009407D077FD09D00E9411
:1024A000341207FC05D03EF4909581959F4F089516
:1024B000709561957F4F0895A1E21A2EAA1BBB1B50
:1024C000FD010DC0AA1FBB1FEE1FFF1FA217B30700
:1024D000E407F50720F0A21BB30BE40BF50B661F16
:1024E000771F881F991F1A9469F7609570958095DA
:1024F00090959B01AC01BD01CF010895052E97FB7E
:102500001EF400940E94951257FD07D00E945C12A1
:1025100007FC03D04EF40C949512509540953095DD
:1025200021953F4F4F4F5F4F08959095809570953F
:1025300061957F4F8F4F9F4F08955058BB27AA2713
:102540000E94B5120C942F140E94211438F00E949E
:10255000281420F039F49F3F19F426F40C941E142B
:102560000EF4E095E7FB0C941814E92F0E94401438
:1025700058F3BA17620773078407950720F079F4B8
:10258000A6F50C9462140EF4E0950B2EBA2FA02D34
:102590000B01B90190010C01CA01A0011124FF2710
:1025A000591B99F0593F50F4503E68F11A16F0400B
:1025B000A22F232F342F4427585FF3CF469537950A
:1025C0002795A795F0405395C9F77EF41F16BA0BCF
:1025D000620B730B840BBAF09150A1F0FF0FBB1F7D
:1025E000661F771F881FC2F70EC0BA0F621F731FC6
:1025F000841F48F4879577956795B795F7959E3F23
:1026000008F0B0CF9395880F08F09927EE0F9795B3
:10261000879508950E94F41308F481E008950E94BC
:1026200023130C942F140E94281458F00E94211494
:1026300040F029F45F3F29F00C94181451110C94C8
:1026400063140C941E140E94401468F39923B1F390
:10265000552391F3951B550BBB27AA2762177307C8
:10266000840738F09F5F5F4F220F331F441FAA1F5C
:10267000A9F335D00E2E3AF0E0E832D09150504018
:10268000E695001CCAF72BD0FE2F29D0660F771FC6
:10269000881FBB1F261737074807AB07B0E809F0AC
:1026A000BB0B802DBF01FF2793585F4F3AF09E3F31
:1026B000510578F00C9418140C9463145F3FE4F304
:1026C000983ED4F3869577956795B795F7959F5F74
:1026D000C9F7880F911D9695879597F90895E1E0C0
:1026E000660F771F881FBB1F621773078407BA071F
:1026F00020F0621B730B840BBA0BEE1F88F7E0957A
:1027000008950E9488136894B1110C94631408957D
:102710000E94481488F09F5798F0B92F9927B75115
:10272000B0F0E1F0660F771F881F991F1AF0BA9575
:10273000C9F714C0B13091F00E946214B1E008955D
:102740000C946214672F782F8827B85F39F0B93F4F
:10275000CCF3869577956795B395D9F73EF4909528
:102760008095709561957F4F8F4F9F4F0895E894A6
:1027700009C097FB3EF490958095709561957F4FC9
:102780008F4F9F4F9923A9F0F92F96E9BB27939577
:10279000F695879577956795B795F111F8CFFAF487
:1027A000BB0F11F460FF1BC06F5F7F4F8F4F9F4FB8
:1027B00016C0882311F096E911C0772321F09EE816
:1027C000872F762F05C0662371F096E8862F70E07C
:1027D00060E02AF09A95660F771F881FDAF7880F56
:1027E0009695879597F90895990F0008550FAA0BAC
:1027F000E0E8FEEF16161706E807F907C0F0121614
:102800001306E407F50798F0621B730B840B950B16
:1028100039F40A2661F0232B242B252B21F408956B
:102820000A2609F4A140A6958FEF811D811D089508
:1028300097F99F6780E870E060E008959FEF80EC73
:10284000089500240A941616170618060906089516
:1028500000240A9412161306140605060895092E7C
:102860000394000C11F4882352F0BB0F40F4BF2BEB
:1028700011F460FF04C06F5F7F4F8F4F9F4F08952B
:1028800057FD9058440F551F59F05F3F71F0479521
:10289000880F97FB991F61F09F3F79F08795089506
:1028A000121613061406551FF2CF4695F1DF08C025
:1028B000161617061806991FF1CF86957105610542
:1028C00008940895E894BB2766277727CB0197F9EA
:1028D00008950E94F41308F48FEF08950E94811464
:1028E0000C942F140E94211438F00E94281420F018
:1028F000952311F00C9418140C941E1411240C94AC
:1029000063140E94401470F3959FC1F3950F50E03B
:10291000551F629FF001729FBB27F00DB11D639F91
:10292000AA27F00DB11DAA1F649F6627B00DA11D37
:10293000661F829F2227B00DA11D621F739FB00DDD
:10294000A11D621F839FA00D611D221F749F33274D
:10295000A00D611D231F849F600D211D822F762FE6
:102960006A2F11249F5750409AF0F1F088234AF0C3
:10297000EE0FFF1FBB1F661F771F881F915050402F
:10298000A9F79E3F510580F00C9418140C94631421
:102990005F3FE4F3983ED4F3869577956795B795B6
:1029A000F795E7959F5FC1F7FE2B880F911D9695D0
:1029B000879597F90895662777270C94391748EA81
:1029C00055E00E9408150895FB01DC0101900D926D
:1029D0000020E1F70895FB01DC014150504030F048
:1029E0008D910190801919F40020B9F7881B990B7B
:1029F0000895FB01DC014150504048F001900D92D8
:102A00000020C9F701C01D9241505040E0F70895E1
:102A1000FA01A191B081009719F41097E1F0CD016E
:102A2000DC01CD010D90002011F4C00113C0FB01A9
:102A30002191222319F02015D9F7F3CFFB01219121
:102A4000201519F41E92119606C02223C1F70D908D
:102A50000020A1F7D001FA01A193B0830895AEE060
:102A6000B0E0E5E3F5E10C947C190D891E898F89AE
:102A7000988D26E02C831A83098397FF02C080E09B
:102A800090E801979E838D83AE01455E5F4F698D0F
:102A90007A8DCE0101960E945F154D815E8157FDB2
:102AA0000AC02F813885421753070CF49A01020F90
:102AB000131FF80110822E96E4E00C949819ABE0F5
:102AC000B0E0E5E6F5E10C946E197C013B018A016A
:102AD000FC0117821682838181FFC8C1CE01019655
:102AE0005C01F7019381F30193FD859193FF81913F
:102AF0003F01882309F453C1853239F493FD859150
:102B000093FF81913F01853229F4B70190E00E9443
:102B1000C018E7CF912C212C312CFFE1F31538F0B0
:102B20008B3211F190F4803209F1833229F137FCB4
:102B30003CC020ED280F2A3050F536FE20C08AE038
:102B4000989E200D1124922E06C08D3291F0803374
:102B500071F7689430F8F30193FD859193FF8191AB
:102B60003F018111DACF21C0689431F8689432F8BE
:102B7000F2CF689433F8EFCF689434F8ECCFEAE002
:102B80002E9E200D1124222E689435F8E4CF8E322B
:102B900029F436FC04C1689436F8DDCF8C3619F47C
:102BA000689437F8D8CF8836B1F2982F9F7D955426
:102BB0009330E0F08336A1F18337C1F1833509F01A
:102BC00063C02801F2E04F0E511CF801C080D18093
:102BD000692D70E036FC02C06FEF7FEFC6010E94E6
:102BE000AA184C01689437F882010AC00C5F1F4F85
:102BF000FFE3F98388248394912C6501E89437F8E6
:102C000033FE2DC0522C8114910471F5552009F426
:102C100068CFB70180E290E00E94C0185A94F6CFC6
:102C2000F801808189830E5F1F4FE4CF2801F2E015
:102C30004F0E511CF801C080D180692D70E036FC28
:102C400002C06FEF7FEFC6010E94B5184C018201F0
:102C5000D5CFB70180E290E00E94C0182A942814D2
:102C6000190409F0B0F7CECFF60137FC859137FE95
:102C700081916F01B70190E00E94C01851105A94E1
:102C8000F1E08F1A9108BFCF843619F0893609F028
:102C900077C0F80137FE6BC06081718182819381BA
:102CA0000C5F1F4FF32DFF763F2E97FF09C09095C5
:102CB0008095709561957F4F8F4F9F4F689437F83F
:102CC0002AE030E0A5010E94F018C82ECA188C2C0A
:102CD000432C36FE0CC0E89440F8C91440F434FE8E
:102CE00005C032FC03C0F32DFE7E4F2E892C44FE1E
:102CF00095C0FE01EC0DF11D8081803309F087C085
:102D0000242D297E422E842D8870582E43FC95C098
:102D100040FE8FC09C2C821418F42C0C922C981816
:102D200044FE91C0B70180E390E00E94C01842FECB
:102D300009C088E790E041FE02C088E590E0B70155
:102D40000E94C018C91408F48AC0CA94D12C9FEFFD
:102D5000C91AD90ACA0CDB1CF60182916F01B701AE
:102D600090E00E94C018AC14BD04B1F74FCF608151
:102D70007181072E000C880B990B0E5F1F4F92CFAD
:102D8000D32CE894D4F82AE030E0853739F1232DAC
:102D9000297FD22E8F3601F148F48835A9F0F7014A
:102DA000868197812B96E2E10C948A19803749F04D
:102DB0008837A9F7D4FE02C06894D2F820E130E049
:102DC0000DC06894D4F8F6CF34FE03C0822F86601D
:102DD000D82E20E132E002C028E030E0F801D7FE32
:102DE0000FC060817181828193810C5F1F4FA501AB
:102DF0000E94F018C82ECA183D2CE89437F867CF07
:102E00006081718190E080E00E5F1F4FF0CF42FC47
:102E100002C0839478CF8394839475CF842D867871
:102E200009F471CFF6CFB70180E290E00E94C0189C
:102E300083948214C0F3512C73CF522C58188214EF
:102E400008F46ECFF8CF842D867809F47BCF8BE21F
:102E500041FE80E247FC8DE2B70190E071CFB701FF
:102E600080E390E00E94C0189A946CCF8FEF9FEFA0
:102E700099CFB0E0A0E0EFE3F7E10C9474195C01A6
:102E80007B016115710519F0DB018D939C93850120
:102E90000F5F1F4FF501D0818D2F90E00E948918A0
:102EA0006C01892BB9F5DD32B9F50F5F1F4FD501E4
:102EB0001196DC91C1E05801F1E0AF1AB10843E08E
:102EC00050E060E770E0C5010E949218892B69F517
:102ED000680182E0C80ED11C45E050E06BE670E06E
:102EE000C6010E949218892B21F4680197E0C90E4F
:102EF000D11CE114F10419F0D701CD92DC9260E00D
:102F000070E080E89FEFC111FFC060E070E080E8F2
:102F10009FE7FAC05801BBCFDB3229F485010E5F71
:102F20001F4FF501D181C0E0C6CF43E050E068E615
:102F300070E0C5010E949218892BE9F0F80110E0B9
:102F400000E020E030E0A9015F01B0ED8B2E8D0E96
:102F500089E08815C8F19C2E689491F88C2F8870B0
:102F6000C2FF16C0811102C00F5F1F4F3196D501FD
:102F7000DC91C92DE9CFE114F10429F00E5F1F4F58
:102F8000F7011183008360E070E080EC9FE7BCC034
:102F9000882311F001501109A5E0B0E00E946319E7
:102FA0009B01AC01220F331F441F551F280D311DFB
:102FB000411D511D283999E93907490799E15907F8
:102FC000A8F2C6609C2ED2CFAEEF8A1206C0C3FD17
:102FD0003CC09C2E689493F8C9CFDF7DD534A9F509
:102FE00080818D3239F4C061DF011296818162E007
:102FF00070E006C0DF018B32C1F3119661E070E032
:1030000080535D01A61AB70A8A30F8F4E0E8CE16BC
:10301000ECE0DE065CF4B601660F771F660F771FE3
:10302000C60ED71ECC0CDD1CC80ED11C5D01FFEFF7
:10303000AF1ABF0A8C9180538A30A8F1C4FF03C035
:10304000D194C194D1080C0D1D1DC1FF09C0E1141C
:10305000F10431F081E0A81AB108D701AD92BC9219
:10306000CA01B9010E94B713C370C33009F4905864
:103070004B015C0120E030E0A9010E940A13882383
:1030800009F440C0CFE9D0E017FF05C011950195C4
:103090001109C7E8D0E06E01B8E1CB1AD10880E28F
:1030A000E82EF12C0FC0D501B1CFFE01259135914D
:1030B000459154910E191F09C501B4010E946E1467
:1030C0004B015C01D501C4010E151F0574F724974F
:1030D000F594E794CC16DD06A9F78A2F880F8B2F7D
:1030E000881F8F3F49F020E030E0A901C501B401FD
:1030F0000E940A13811106C082E290E090938E062E
:1031000080938D06C501B401CDB7DEB7ECE00C9419
:10311000901991110C944E19803219F089508550F4
:10312000C8F70895FB01DC014150504088F08D91B3
:1031300081341CF08B350CF4805E659161341CF099
:103140006B350CF4605E861B611171F3990B089569
:10315000881BFCCFFC010590615070400110D8F72E
:10316000809590958E0F9F1F0895FC0161507040CF
:1031700001900110D8F7809590958E0F9F1F0895AC
:103180000F931F93CF93DF93182F092FEB018B81A0
:1031900081FD09C01FEF0FEF812F902FDF91CF919D
:1031A0001F910F91089582FF14C02E813F818C8161
:1031B0009D81281739073CF4E881F981CF010196F8
:1031C0009983888310838E819F8101969F838E834C
:1031D000E3CFE885F985812F0995892BA1F3DACF13
:1031E000FA01AA27283051F1203181F1E8946F9338
:1031F0006E7F6E5F7F4F8F4F9F4FAF4FB1E03ED0DE
:10320000B4E03CD0670F781F891F9A1FA11D680F7B
:10321000791F8A1F911DA11D6A0F711D811D911DAE
:10322000A11D20D009F468943F912AE0269F112423
:103230003019305D3193DEF6CF010895462F477087
:10324000405D4193B3E00FD0C9F7F6CF462F4F70E2
:10325000405D4A3318F0495D31FD4052419302D040
:10326000A9F7EACFB4E0A6959795879577956795E6
:10327000BA95C9F700976105710508959B01AC01E6
:103280000A2E06945795479537952795BA95C9F70D
:10329000620F731F841F951FA01D0895992788270B
:1032A0000895262FF999FECF92BD81BDF89A019716
:1032B00000B4021639F01FBA20BD0FB6F894FA9A7E
:1032C000F99A0FBE08950E94A519A59F900DB49F6D
:1032D000900DA49F800D911D112408952F923F926F
:1032E0004F925F926F927F928F929F92AF92BF9216
:1032F000CF92DF92EF92FF920F931F93CF93DF93C2
:10330000CDB7DEB7CA1BDB0B0FB6F894DEBF0FBE1E
:10331000CDBF09942A88398848885F846E847D846B
:103320008C849B84AA84B984C884DF80EE80FD806D
:103330000C811B81AA81B981CE0FD11D0FB6F894E3
:10334000DEBF0FBECDBFED010895A29FB001B39FB8
:10335000C001A39F700D811D1124911DB29F700D9E
:0C336000811D1124911D0895F894FFCFE9
:10336C003202430261027E029A02C602E302F402B6
:10337C001E0338034E035D0374037E038A03940318
:10338C00AA03CC03C803C803C8030000E303ED037E
:10339C00F803ED01C8030152260564002006640001
:1033AC00E00696007405C80001C80000C80001C8FA
:1033BC000000C80001580200C80001C800005802F3
:1033CC0001C80000C80001580200C80001C8000074
:1033DC00580201C80000580201C8000058020158E8
:1033EC000200C80001580200C80001C80000C80053
:1033FC0001C80000580201C80000780501580200FD
:10340C00C80001580200580201C80000780522507B
:10341C00757A7A6C652023313A20497427732062BF
:10342C00726967687420696E206865726521005046
:10343C00757A7A6C652023313A204974277320649D
:10344C0061726B20696E2068657265210050757A17
:10345C007A6C652023353A20476F206F7574736939
:10346C006465210050757A7A6C652023353A2025E5
:10347C006C642E2530346C642C256C642E25303411
:10348C006C640050757A7A6C6520343A20002533D0
:10349C0064004E6F20636C7565732072656D616995
:1034AC006E2E0041726520796F75207375726520E0
:1034BC00796F752077616E74206120636C75653F40
:1034CC0000436C69636B204E45585420746F207513
:1034DC006E6C6F636B206120636C75652E00596F89
:1034EC0075206D69676874206861766520746F203B
:1034FC006765742075702E2E2E00536F6D65746881
:10350C00696E6720696E20796F757220726F6F6DAE
:10351C0020636F6E74726F6C73206272696768746B
:10352C006E657373210054727920666C69707069D2
:10353C006E672061206C69676874207377697463A7
:10354C00682E00446F20796F752073656520746850
:10355C0061743F0049207265636F676E697A6520FC
:10356C0074686174207061747465726E2E2E2E20D6
:10357C004D6F7273652C2072696768743F00446FDD
:10358C002061732069742073617973212046524540
:10359C00455A45206D65210054686520736B792070
:1035AC00697320746865206C696D697421005365BA
:1035BC006520616E792068696C6C733F0050657290
:1035CC00686170732061206C696C2720686967687A
:1035DC0065723F00426C61636B6F75742100446FC0
:1035EC006E27742073746F7021005368616B6520B3
:1035FC0069742100596F75206D69676874206E6558
:10360C0065642061206D61702E004C6F6F6B7320B0
:10361C006C696B6520612064657374696E61746993
:10362C006F6E20746F206D652E2E2E005669736997
:10363C00742074686520636F6F7264696E61746561
:10364C0073210050757A7A6C652023320050757A9C
:10365C007A6C652023333A0050757A7A6C65202396
:10366C00343A202E00456E61626C65204572723AC8
:10367C0020253032580052656164204572723A2020
:10368C002530325800416C742E2077726974652095
:10369C006572726F7200416C742E20737461727457
:1036AC00206572726F72004932432072656164202A
:1036BC006572726F7220200054656D7020726561A6
:1036CC0064206572726F722000244750524D430083
:0A36DC00244750474741002C00002E
:00000001FF
