:100000000C944D000C946A000C946A000C946A00E5
:100010000C94BB010C946A000C946A000C946A0066
:100020000C946A000C946A000C946A000C946A00A8
:100030000C946A000C946A000C946A000C946A0098
:100040000C946A000C946A000C946A000C946A0088
:100050000C946A000C946A000C946A000C946A0078
:100060000C946A000C946A003E3E2055534520458E
:10007000453435394C203C3C373839303132333413
:10008000003E3E2061743332382D352E6320203CF3
:100090003C37383930313233340011241FBECFEFB2
:1000A000D8E0DEBFCDBF18E0A0E0B1E0E6E6FAE1BF
:1000B00002C005900D92AA36B107D9F728E0AAE64A
:1000C000B8E001C01D92AE39B207E1F70E94BD064B
:1000D0000C94310D0C9400000F931F93CF93DF937A
:1000E000EC018B0181E00E941902198308831B82B5
:1000F0001A821D821C821F821E8218861092800125
:10010000DF91CF911F910F91089580916E0891E03A
:10011000811190E090936E08811108C041E050E099
:100120006EE170E088EE93E00C94DD0308951F9378
:10013000CF93DF93FC01808581110AC0A081B1813A
:1001400022813381A20FB31F8C91ED01811106C072
:1001500081E08087DF91CF911F910895CE018A1BA6
:100160009B0B49914F7DD1F746815781840F951F95
:1001700044973CF08481958117821682019695837D
:100180008483848195818430910514F72F5F3F4FDC
:10019000338322831C9166817781103219F46115B3
:1001A0007105C1F29C0197FF02C02F5F3F4FEF0125
:1001B00035952795562F44E1249F500D1124252F66
:1001C00062E070E00E94D908622F0E942202812F13
:1001D0000E942A028E819F8101969F838E831F7DBC
:1001E00011541A3108F0B6CFDF91CF911F910C94C2
:1001F0008500CF93DF93C3E8D8E018821A82198272
:100200001B821D821C821E8218860E946C036987D5
:100210007A878B879C87198A0E9434056D877E8731
:100220008F87988BE881F0E0EE0FFF1FEA5CFE4FAE
:100230000190F081E02D6081718185E998E0DF9186
:10024000CF910C946C0087B1807F87B988B18F60A3
:1002500088B9E8E6F0E0808182608083ECE6F0E037
:1002600080818F60808378940895809180018823B5
:1002700009F44BC0809184089091850881309105E4
:1002800009F065C0E0918308809187089091880803
:10029000E1111BC00097C9F420E030E040EA50E4CF
:1002A00060918C0870918D0880918E0890918F08D4
:1002B0000E94890969EF71E0181614F069E172E093
:1002C00085E998E00E946C001EC060910401709165
:1002D000050186309105A1F360910201709103013F
:1002E0008430910569F360910001709101018530BE
:1002F000910531F38130910589F040F0823091050C
:10030000A1F00397D9F0109280010895F0E0EE0F6C
:10031000FF1FE65DFE4F60817181D2CF86E0E89FCE
:10032000F0011124EA5FFE4FF6CF86E0E89FF0016E
:100330001124EA5FFE4F62817381C2CF86E0E89F9D
:10034000F0011124EA5FFE4F64817581B9CF892BDA
:10035000D1F6E0918308F0E0EE0FFF1FEA5CFE4F5C
:100360008091890890E0880F991F20813181820F48
:10037000931FFC01D0CF1F920F920FB60F92112442
:100380008F939F93329903C081E080936D083199D8
:1003900003C081E080936C08309903C081E08093B2
:1003A0006B08339903C081E080936A0880916D08DF
:1003B00081110CC080916C08811108C080916B087C
:1003C000811104C080916A088823A1F08FEF93E225
:1003D0000197F1F700C00000329BFECF319BFCCFAC
:1003E000309BFACF339BF8CF8FEF93E20197F1F771
:1003F00000C000009F918F910F900FBE0F901F9033
:1004000018959BB19F709BB99BB1807F892B8BB94D
:1004100085B1837F85B92A9A2A9A2A980895CF931D
:10042000C82F0E9401028C2F8295807FCF910C945F
:1004300001022C980E940F0286E69EE00197F1F7D8
:10044000000008958295880F880F807C860F806851
:100450000C9419022C9A0E940F0286E69EE00197E6
:10046000F1F700000895CF93DF93EC01FE01849132
:100470002196811103C0DF91CF9108950E942A0235
:10048000F5CFCF93DF93EC018991811103C0DF9108
:10049000CF9108950E942A02F7CF8AB1806F8AB95E
:1004A00084B18C6184B92C988FEF9BE60197F1F7AA
:1004B00000C0000080E30E9401028FEF93E20197E9
:1004C000F1F700C0000080E30E9401028DED90E092
:1004D0000197F1F780E30E94010286E69EE0019712
:1004E000F1F7000080E20E94010286E69EE001979B
:1004F000F1F7000088E20E9419028FE00C941902C3
:1005000086E69EE00197F1F7000008950F931F9390
:10051000A82F000000000000000000004115510558
:1005200009F468C084EA8093BC008091BC0087FF16
:10053000FCCF8091B900887F883031F58A2F8E7F7B
:100540008093BB0084E88093BC008091BC0087FF4F
:10055000FCCF8091B900887F8831C9F08032A1F446
:1005600094E99093BC0010C081918093BB0060938C
:10057000BC008091BC0087FFFCCF8091B900887FD0
:10058000883249F0803361F31F910F910895FB0188
:10059000460F571F64E84E175F0731F740E101151A
:1005A000110569F514C0F90194EC0130110589F4C5
:1005B00084E88093BC008091BC0087FFFCCF8091D1
:1005C000B900887F883501F78091BB00808380E087
:1005D000C7CF9093BC008091BC0087FFFCCF809177
:1005E000B900887F01501109803571F68091BB00F8
:1005F0008193DBCF80E00115110531F248E084EAF8
:100600008093BC008091BC0087FFFCCF8091B90033
:10061000887F4813B9CFA160A093BB0084E8809382
:10062000BC008091BC0087FFFCCF8091B900887F1F
:10063000803409F4B8CF883409F0A6CF91CF109256
:10064000B9008093B80008950F931F93CF93DF9361
:10065000CDB7DEB763970FB6F894DEBF0FBECDBF40
:1006600080EA8A8B83E08B8B10E000E030E020E0B2
:1006700042E050E0BE016E5E7F4F809181010E949A
:100680008602182F8823E9F060E082E00E942202AF
:100690001F921F938CEF97E09F938F931F9281E19E
:1006A0008F938E010F5F1F4F1F930F930E944C0A71
:1006B000C8010E9441020FB6F894DEBF0FBECDBF45
:1006C000FFCF63960FB6F894DEBF0FBECDBFDF91AC
:1006D000CF911F910F9108950F931F93CF93DF93A5
:1006E000CDB7DEB766970FB6F894DEBF0FBECDBFAD
:1006F00022E383EB92E0215080409040E1F700C07C
:1007000000C084EB8E8B1A8A1B8A1C8A1D8A04E027
:1007100010E09E012E5E3F4F41E050E0BE016A5E58
:100720007F4F809181010E948602182F8823A1F1BA
:1007300060E082E00E9422021F921F938DE098E009
:100740009F938F931F9281E18F938E010F5F1F4FB5
:100750001F930F930E944C0AC8010E9441022FEF81
:100760008FEF9CE2215080409040E1F700C00000F4
:100770000FB6F894DEBF0FBECDBF60E070E080E83A
:100780009FEB66960FB6F894DEBF0FBECDBFDF912C
:10079000CF911F910F9108956A897B898C899D89DA
:1007A000681B790B90E080E00E94280927EE3DE16C
:1007B00047E25EE30E948E09E4CF0F931F93CF932D
:1007C000DF938B01EA012091710830917208223089
:1007D000310519F44230510531F5219A20E4209376
:1007E000800029E020938100B0E0A0E09C01AD01F1
:1007F000220F331F441F551F60E070E880E790E030
:100800000E94ED082150310930938900209388001F
:10081000109374080093730881E080937508D09357
:100820007208C0937108DF91CF911F910F910895C5
:1008300010928000109281002998109275081092F1
:10084000720810927108089520917508222379F09A
:1008500020917308309174088217930710F00C945C
:100860001804281B390B30937408209373080895DB
:10087000219A299808951092770882E090E0909349
:1008800072088093710881E080937608E2E8F1E0D5
:100890006281738142E050E0808191810C94DD039C
:1008A0000E942404809176088823D9F080917508ED
:1008B000811117C0E0917708EF5FE0937708E4308B
:1008C00070F484E0E89FF0011124EE57FE4F62813E
:1008D000738142E050E0808191810C94DD0310929D
:1008E0007608089584B1816884B9529A0895289A47
:1008F0002F9A5A9A089528982F985A980895EF9207
:10090000FF920F931F93CF938C01809178088823D7
:1009100069F180917A0890917B08A0917C08B09150
:100920007D08800F911FA11DB11D803127E2920724
:10093000A105B10570F480937A0890937B08A09389
:100940007C08B0937D08CF911F910F91FF90EF909D
:10095000089510927A0810927B0810927C081092E9
:100960007D081092790810927808EDCFC09179082F
:1009700083E0C89FF0011124EE56FE4FE180F28023
:100980008081882381F00E94770480917E08909175
:100990007F08800F911F8E159F0540F490937F086C
:1009A00080937E08D0CF0E947B04EFCF10927F0807
:1009B00010927E08CF5FC0937908C23220F20E9465
:1009C0007B0481E080937808BECF0F931F93CF9371
:1009D000DF9300D0CDB7DEB786E2898388EB8A83C8
:1009E00010E000E030E020E042E050E0BE016F5F48
:1009F0007F4F80EC0E948602882379F060E081E0DE
:100A00000E9422028CE198E00E9441020F900F9018
:100A1000DF91CF911F910F9108958FE19EE401978F
:100A2000F1F700C0000089EB8A8310E000E030E0BD
:100A300020E042E050E0BE016F5F7F4F80EC0E94FB
:100A40008602882339F060E081E00E9422028DE274
:100A500098E0DACF9FEF24E38CE091502040804073
:100A6000E1F700C00000D2CF0F931F93CF93DF9325
:100A7000CDB7DEB728970FB6F894DEBF0FBECDBF57
:100A800081E08C8303E010E09E012F5F3F4F41E047
:100A900050E0BE016C5F7F4F80EC0E94860288238D
:100AA000D9F060E081E00E9422028EE398E00E948B
:100AB00041026D837E838F8398876D817E818F81D4
:100AC000988528960FB6F894DEBF0FBECDBFDF9194
:100AD000CF911F910F910895898190E0B0E0A0E03F
:100AE0002AE0880F991FAA1FBB1F2A95D1F74A81B8
:100AF00050E070E060E032E0440F551F661F771F42
:100B00003A95D1F7842B952BA62BB72B2B812295C9
:100B1000269526952370AC01BD01422B4D835E8343
:100B20006F837887CB01BA010E942A09C2CF0F9345
:100B30001F93CF93DF9300D000D000D00F92CDB79A
:100B4000DEB784E08B8302E010E09E012F5F3F4F11
:100B500041E050E0BE016D5F7F4F80EC0E94860255
:100B60008823F9F060E081E00E9422028FE498E09F
:100B70000E94410260E070E08AE794EC6C837D8320
:100B80008E839F836C817D818E819F8127960FB696
:100B9000F894DEBF0FBECDBFDF91CF911F910F91B3
:100BA000089589819A8198278927982724E0959527
:100BB00087952A95E1F79C01990F440B550B2C83DF
:100BC0003D834E835F83CA01B9010E942A0920E058
:100BD00030E040E85DE36C837D838E839F836C818E
:100BE0007D818E819F810E948E09C8CF0F931F93B4
:100BF000CF93DF9300D0CDB7DEB780E2898387E55E
:100C00008A8310E000E030E020E042E050E0BE01E6
:100C10006F5F7F4F80E30E9486020F900F90DF91FD
:100C2000CF911F910F910895EF92FF920F931F9311
:100C3000CF93DF9300D000D000D01F92CDB7DEB7A6
:100C40007C0188EA8F839E012F5F3F4F86E0F90188
:100C500011928A95E9F706E010E041E050E0BE010C
:100C6000695F7F4F80E30E9486028823A1F0F7012D
:100C700015821482138212821182108227960FB677
:100C8000F894DEBF0FBECDBFDF91CF911F910F91C2
:100C9000FF90EF90089589819A8126E09595879538
:100CA0002A95E1F7F701918380838B819C8136E05F
:100CB000959587953A95E1F7938382838D819E81FF
:100CC00046E0959587954A95E1F795838483D6CF3D
:100CD0000F931F93CF93DF93CDB7DEB761970FB616
:100CE000F894DEBF0FBECDBF9C01409181085091AA
:100CF00082089093820880938108809180088823DD
:100D000081F09FEF980F9093800880E061960FB676
:100D1000F894DEBF0FBECDBFDF91CF911F910F9131
:100D20000895241B350BA901425E5F4F4D335105D9
:100D300068F33F932F9380E698E09F938F931F92E1
:100D400081E18F938E010F5F1F4F1F930F930E94BE
:100D50004C0A81E00E94190260E080E00E942202B9
:100D6000C8010E9441028AE0809380080FB6F8947F
:100D7000DEBF0FBECDBF81E0C9CFCF93DF9300D0E0
:100D800000D000D0CDB7DEB70E944D020E943804DB
:100D90000E9472040E9424030E94E5040E94F6054A
:100DA0000E9423010E94F900F12CE12C11E065E082
:100DB000262E312C74E0C72ED12C80916D0888230B
:100DC00069F080918A0810926D0891E0811190E09D
:100DD00090938A08811172C10E94F90080918A085B
:100DE000882359F380916A0840918308882349F148
:100DF000809184089091850810926A08009709F004
:100E00006EC180919D088823E1F020918908E42F2C
:100E1000F0E0EE0FFF1FEA5CFE4F822F90E001969C
:100E2000880F991F60817181860F971FFC01808157
:100E30009181892B09F446C12F5F20938908109373
:100E4000800120916C08809184089091850822236C
:100E5000D9F010926C0881309105B1F4209194087A
:100E600031E0211130E030939408211178C12091B4
:100E70008608222309F476C121E030E03093880807
:100E8000209387081093800120916B082223C1F0E2
:100E900010926B088130910509F07FC1809187081D
:100EA000909188089C01225031092230310508F0C8
:100EB0005CC1019790938808809387081093800104
:100EC0008091840890918508019709F059C04111DB
:100ED00057C080918B08811191C00E946C032B0137
:100EE0003C0180908C0890908D08A0908E08B09066
:100EF0008F0820E030E040EA50E4C501B4010E94D0
:100F00008909181654F420E030E040EA50E4C301A7
:100F1000B2010E94230987FD14C020E030E040EABE
:100F200050E4C501B4010E94230987FF29C020E0D5
:100F300030E040EA50E4C301B2010E94890918166A
:100F4000FCF40E943B0410938B08109285081092C9
:100F50008408E0918308EF5FE0938308109289088A
:100F600010929408F0E0EE0FFF1FEA5CFE4F019034
:100F7000F081E02D6081718185E998E00E946C002C
:100F8000009183080130D1F5809184089091850803
:100F9000019709F07EC080918B0881117AC089E1A8
:100FA00090E00E947F040E94970520E030E040EC32
:100FB00051E40E94890918160CF50E943B04009325
:100FC0008B081092850810928408E0918308EF5FE7
:100FD000E09383081092890810929408F0E0EE0FD5
:100FE000FF1FEA5CFE4F0190F081E02D608171816E
:100FF00085E998E00E946C000E947B048091830840
:10100000823009F046C0809184089091850801974C
:1010100009F03FC080918B0881113BC0CE01019641
:101020000E9414068D819E810E946806882319F013
:101030009FEFE91AF90A80916F08909170088E1558
:101040009F0521F0F0927008E0926F08ECE3EE1635
:10105000F104F8F00E943B0410938B08109285086D
:1010600010928408E0918308EF5FE0938308109268
:10107000890810929408F0E0EE0FFF1FEA5CFE4F23
:101080000190F081E02D6081718185E998E00E94F6
:101090006C0080919D08811104C085E998E00E9450
:1010A00097000E94350189E190E00E9450048FEF83
:1010B00093EB0197F1F700C000007FCE81E00E9422
:1010C00019028CCE81E090E090938508809384088B
:1010D000109288081092870810928B08B0CE019762
:1010E00009F0AFCE80919408882309F4AACE8091AC
:1010F0008708909188088630910529F4D092880855
:10110000C09287089CCE8430910571F48091860846
:10111000833008F094CE8F5F8093860890E09093A0
:101120008808809387088BCE9C0121503109233099
:10113000310508F084CE509186082FEF280F30E05B
:101140002F5F3F4F5217130619F014F00196E7CFA7
:101150005330A0F2309288082092870870CE30E099
:1011600020E08CCE26E030E089CE8130910531F050
:101170009C01245031092330310538F4109288083D
:10118000109287081092940899CE892B09F098CE76
:10119000109285081092840891CE892B09F090CE88
:1011A00080918908882309F48BCE81508093890827
:1011B00085CE97FB072E16F4009407D077FD09D053
:1011C0000E940F0907FC05D03EF4909581959F4F32
:1011D0000895709561957F4F0895A1E21A2EAA1B7C
:1011E000BB1BFD010DC0AA1FBB1FEE1FFF1FA217D7
:1011F000B307E407F50720F0A21BB30BE40BF50BD4
:10120000661F771F881F991F1A9469F7609570955C
:10121000809590959B01AC01BD01CF010895AA1B5B
:10122000BB1B51E107C0AA1FBB1FA617B70710F0D1
:10123000A61BB70B881F991F5A95A9F78095909503
:10124000BC01CD0108950E94650908F481E008956C
:10125000E89409C097FB3EF4909580957095619550
:101260007F4F8F4F9F4F9923A9F0F92F96E9BB2706
:101270009395F695879577956795B795F111F8CF82
:10128000FAF4BB0F11F460FF1BC06F5F7F4F8F4FED
:101290009F4F16C0882311F096E911C0772321F0E3
:1012A0009EE8872F762F05C0662371F096E8862F7B
:1012B00070E060E02AF09A95660F771F881FDAF7D2
:1012C000880F9695879597F90895990F0008550FFF
:1012D000AA0BE0E8FEEF16161706E807F907C0F0BC
:1012E00012161306E407F50798F0621B730B840BC4
:1012F000950B39F40A2661F0232B242B252B21F49E
:1013000008950A2609F4A140A6958FEF811D811D3D
:1013100008950E94650908F48FEF08950E94A109BD
:101320000C94120A0E94040A38F00E940B0A20F062
:10133000952311F00C94FB090C94010A11240C94D0
:10134000460A0E94230A70F3959FC1F3950F50E05F
:10135000551F629FF001729FBB27F00DB11D639F67
:10136000AA27F00DB11DAA1F649F6627B00DA11D0D
:10137000661F829F2227B00DA11D621F739FB00DB3
:10138000A11D621F839FA00D611D221F749F332723
:10139000A00D611D231F849F600D211D822F762FBC
:1013A0006A2F11249F5750409AF0F1F088234AF099
:1013B000EE0FFF1FBB1F661F771F881F9150504005
:1013C000A9F79E3F510580F00C94FB090C94460A46
:1013D0005F3FE4F3983ED4F3869577956795B7958C
:1013E000F795E7959F5FC1F7FE2B880F911D9695A6
:1013F000879597F9089597F99F6780E870E060E016
:1014000008959FEF80EC089500240A94161617069D
:1014100018060906089500240A94121613061406E5
:1014200005060895092E0394000C11F4882352F048
:10143000BB0F40F4BF2B11F460FF04C06F5F7F4F00
:101440008F4F9F4F089557FD9058440F551F59F0E7
:101450005F3F71F04795880F97FB991F61F09F3FA1
:1014600079F087950895121613061406551FF2CFCA
:101470004695F1DF08C0161617061806991FF1CF1A
:1014800086957105610508940895E894BB27662741
:101490007727CB0197F90895AEE0B0E0E2E5FAE0F6
:1014A0000C94080D0D891E898F89988D26E02C8358
:1014B0001A83098397FF02C080E090E801979E831A
:1014C0008D83AE01455E5F4F698D7A8DCE010196A9
:1014D0000E947C0A4D815E8157FD0AC02F813885AC
:1014E000421753070CF49A01020F131FF8011082E0
:1014F0002E96E4E00C94240DABE0B0E0E2E8FAE0D4
:101500000C94FA0C7C013B018A01FC0117821682C3
:10151000838181FFC8C1CE0101965C01F7019381EF
:10152000F30193FD859193FF81913F01882309F495
:1015300053C1853239F493FD859193FF81913F0129
:10154000853229F4B70190E00E946C0CE7CF912C12
:10155000212C312CFFE1F31538F08B3211F190F48E
:10156000803209F1833229F137FC3CC020ED280F8D
:101570002A3050F536FE20C08AE0989E200D1124B6
:10158000922E06C08D3291F0803371F7689430F856
:10159000F30193FD859193FF81913F018111DACF92
:1015A00021C0689431F8689432F8F2CF689433F827
:1015B000EFCF689434F8ECCFEAE02E9E200D112492
:1015C000222E689435F8E4CF8E3229F436FC04C11B
:1015D000689436F8DDCF8C3619F4689437F8D8CF94
:1015E0008836B1F2982F9F7D95549330E0F0833682
:1015F000A1F18337C1F1833509F063C02801F2E01E
:101600004F0E511CF801C080D180692D70E036FC6E
:1016100002C06FEF7FEFC6010E94560C4C01689428
:1016200037F882010AC00C5F1F4FFFE3F98388245B
:101630008394912C6501E89437F833FE2DC0522C29
:101640008114910471F5552009F468CFB70180E247
:1016500090E00E946C0C5A94F6CFF8018081898347
:101660000E5F1F4FE4CF2801F2E04F0E511CF8012E
:10167000C080D180692D70E036FC02C06FEF7FEF33
:10168000C6010E94610C4C018201D5CFB70180E2F6
:1016900090E00E946C0C2A942814190409F0B0F709
:1016A000CECFF60137FC859137FE81916F01B701EE
:1016B00090E00E946C0C51105A94F1E08F1A91083E
:1016C000BFCF843619F0893609F077C0F80137FEAC
:1016D0006BC060817181828193810C5F1F4FF32DFC
:1016E000FF763F2E97FF09C0909580957095619584
:1016F0007F4F8F4F9F4F689437F82AE030E0A50165
:101700000E949C0CC82ECA188C2C432C36FE0CC090
:10171000E89440F8C91440F434FE05C032FC03C01C
:10172000F32DFE7E4F2E892C44FE95C0FE01EC0D5C
:10173000F11D8081803309F087C0242D297E422E3F
:10174000842D8870582E43FC95C040FE8FC09C2C81
:10175000821418F42C0C922C981844FE91C0B701F6
:1017600080E390E00E946C0C42FE09C088E790E0A4
:1017700041FE02C088E590E0B7010E946C0CC914DC
:1017800008F48AC0CA94D12C9FEFC91AD90ACA0C8E
:10179000DB1CF60182916F01B70190E00E946C0C96
:1017A000AC14BD04B1F74FCF60817181072E000CDE
:1017B000880B990B0E5F1F4F92CFD32CE894D4F86F
:1017C0002AE030E0853739F1232D297FD22E8F365C
:1017D00001F148F48835A9F0F701868197812B96AD
:1017E000E2E10C94160D803749F08837A9F7D4FE52
:1017F00002C06894D2F820E130E00DC06894D4F8BB
:10180000F6CF34FE03C0822F8660D82E20E132E06E
:1018100002C028E030E0F801D7FE0FC0608171817E
:10182000828193810C5F1F4FA5010E949C0CC82EE2
:10183000CA183D2CE89437F867CF6081718190E039
:1018400080E00E5F1F4FF0CF42FC02C0839478CF40
:101850008394839475CF842D867809F471CFF6CF65
:10186000B70180E290E00E946C0C83948214C0F374
:10187000512C73CF522C5818821408F46ECFF8CF25
:10188000842D867809F47BCF8BE241FE80E247FC11
:101890008DE2B70190E071CFB70180E390E00E9444
:1018A0006C0C9A946CCF8FEF9FEF99CFFC01059051
:1018B000615070400110D8F7809590958E0F9F1F52
:1018C0000895FC016150704001900110D8F7809597
:1018D00090958E0F9F1F08950F931F93CF93DF93C3
:1018E000182F092FEB018B8181FD09C01FEF0FEF2E
:1018F000812F902FDF91CF911F910F91089582FF3B
:1019000014C02E813F818C819D81281739073CF4BA
:10191000E881F981CF0101969983888310838E81B4
:101920009F8101969F838E83E3CFE885F985812F80
:101930000995892BA1F3DACFFA01AA27283051F1B2
:10194000203181F1E8946F936E7F6E5F7F4F8F4FF0
:101950009F4FAF4FB1E03ED0B4E03CD0670F781F4F
:10196000891F9A1FA11D680F791F8A1F911DA11D34
:101970006A0F711D811D911DA11D20D009F468946D
:101980003F912AE0269F11243019305D3193DEF615
:10199000CF010895462F4770405D4193B3E00FD0CB
:1019A000C9F7F6CF462F4F70405D4A3318F0495DB6
:1019B00031FD4052419302D0A9F7EACFB4E0A69599
:1019C0009795879577956795BA95C9F700976105BB
:1019D000710508959B01AC010A2E06945795479511
:1019E00037952795BA95C9F7620F731F841F951F06
:1019F000A01D08952F923F924F925F926F927F9217
:101A00008F929F92AF92BF92CF92DF92EF92FF920E
:101A10000F931F93CF93DF93CDB7DEB7CA1BDB0BBA
:101A20000FB6F894DEBF0FBECDBF09942A8839885F
:101A300048885F846E847D848C849B84AA84B98466
:101A4000C884DF80EE80FD800C811B81AA81B98172
:101A5000CE0FD11D0FB6F894DEBF0FBECDBFED0186
:061A60000895F894FFCF89
:101A660037024802660283029F02CB02E802F902AD
:101A760023033D03520367037D039803B403D40392
:101A8600DB03E203D403DB03E2030000E903F30311
:101A960003041304230474016A01600156014C0116
:101AA6004201330462048E04BD0400003304E904D9
:101AB60009053D05000033046E059605CB050000BB
:101AC6003304FD053C066306000033049406CE0687
:101AD600070700002C0754077F07B807E007000038
:101AE60001522605640020066400E006960074058F
:101AF600C80001C80000C80001C80000C80001589D
:101B06000200C80001C80000580201C80000C80051
:101B160001580200C80001C80000580201C80000B0
:101B2600580201C80000580201580200C8000158B6
:101B36000200C80001C80000C80001C80000580221
:101B460001C80000780501580200C80001580200CB
:101B5600580201C8000078052250757A7A6C652013
:101B660023313A20497427732062726967687420AA
:101B7600696E2068657265210050757A7A6C6520F9
:101B860023313A2049742773206461726B20696E91
:101B9600206865726521004E6F20636C7565732041
:101BA60072656D61696E2E0041726520796F7520D0
:101BB6007375726520796F752077616E7420612068
:101BC600636C75653F00436C69636B204E455854E2
:101BD60020746F20756E6C6F636B206120636C756B
:101BE600652E00596F75206D696768742068617687
:101BF6006520746F206765742075702E2E2E005335
:101C06006F6D657468696E6720696E20796F75728D
:101C160020726F6F6D20636F6E74726F6C732062CB
:101C260072696768746E65737321005472792066F1
:101C36006C697070696E672061206C6967687420D2
:101C46007377697463682E00446F20796F7520730B
:101C5600656520746861743F0049207265636F672B
:101C66006E697A6520746861742070617474657237
:101C76006E2E2E2E204D6F7273652C20726967684A
:101C8600743F00446F206173206974207361797317
:101C96002120465245455A45206D65210054686508
:101CA60020736B7920697320746865206C696D698F
:101CB600740041726520746865726520616E7920D2
:101CC60068696C6C733F005065726861707320615F
:101CD600206C696C206869676865723F00497427E3
:101CE600732061206E6963652064617920666F7276
:101CF60020612077616C6B0048757272792C2062C6
:101D060065666F72652074696D652072756E7320E5
:101D16006F75740043616E27742062652073697461
:101D260074696E672027726F756E6420616C6C2013
:101D360064617900436C7565203100436C756520DC
:101D46003200436C756520330050757A7A6C6520D5
:101D560023320050757A7A6C6520332070726F6D6D
:101D660070740050757A7A6C6520342070726F6DCD
:101D760070740050757A7A6C6520352070726F6DBC
:101D860070740050757A7A6C6520362070726F6DAB
:101D960070740057656C6C20646F6E652120436F0C
:101DA6006E74696E7565206D792073746F72792013
:101DB6006279207072657373696E67204E45585458
:101DC6002E0049206E6576657220736177207468EF
:101DD60065206F6365616E2C2062757420492064EE
:101DE6007265616D6564206F662069742E004C65AE
:101DF6007420746865207469646520636172727901
:101E0600206D652077686572652049206E65766568
:101E16007220676F7420746F20676F2E005468619C
:101E26006E6B20796F752E204E6F7720676F206C52
:101E360069766520736F6D657468696E6720626583
:101E46006175746966756C2E00492075736564202A
:101E5600746F2066656172206265696E6720666FC1
:101E660072676F7474656E2E00427574206D6179A9
:101E76006265207468697320697320656E6F756783
:101E8600682E204120736D616C6C206C69676874E4
:101E96002C20706173736564206F6E2E0049662076
:101EA600796F75277265207374696C6C206C697321
:101EB60074656E696E672C206D61796265204927AD
:101EC6006D207374696C6C20686572652E004920FC
:101ED6006D6973736564206D6F72652073756E73BB
:101EE600657473207468616E20492063616E206397
:101EF6006F756E742E00446F206F6E65207468696E
:101F06006E6720666F72206D652E20446F6E277493
:101F1600207761697420666F72206120276265747C
:101F26007465722074696D652E2700596F75277266
:101F36006520616C6976652E20546861742773206C
:101F4600616C6C20746865207065726D6973736965
:101F56006F6E20796F75206E6565642E0057686513
:101F66006E2074686520646F63746F722073616994
:101F76006420277465726D696E616C2C2720492078
:101F86006A75737420737461726564206174207459
:101F96006865206365696C696E672E004920666511
:101FA6006C74207374696C6C2E204C696B652049C7
:101FB6002068616420616C7265616479206C656675
:101FC600742E00546861742773207768792049203D
:101FD6006D61646520746869732E20546F206D6F7F
:101FE6007665207768656E204920636F756C646E30
:101FF60027742E0049206D657420736F6D656F6EB2
:1020060065206F6E63652E205468657920736D6553
:102016006C6C6564206C696B65206F6C6420706104
:1020260070657220616E6420686F70652E0057655A
:1020360020647265616D6564206F662073656569ED
:102046006E672074686520776F726C642C206275E9
:10205600742074696D6520676F7420696E207468DA
:1020660065207761792E005768656E206C6F7665FE
:102076002066696E647320796F752C20646F6E27F5
:10208600742077617374652069742E004865792E13
:102096002E2E20796F75277265206865726521205E
:1020A600546865206A6F75726E616C20776F726B0B
:1020B600656421005768656E204920776173207931
:1020C6006F756E672C2049206C6F7665642062758B
:1020D600696C64696E67207468696E67732E00495F
:1020E600207573656420746F2074616B6520617060
:1020F60061727420636C6F636B73206A75737420EE
:10210600746F2073656520686F7720746865792021
:102116007469636B65642E0054686973206A6F7511
:10212600726E616C20697320746865206C617374CB
:10213600207468696E672049206275696C742E0088
:1021460057696C6C20796F752068656C70206D65B9
:102156002066696E6973682069743F00456E616226
:102166006C65204572723A202530325800526561FE
:1021760064204572723A202530325800416C742E24
:10218600207772697465206572726F7200416C7493
:102196002E207374617274206572726F72004932F8
:1021A600432072656164206572726F72202000544C
:1021B600656D702072656164206572726F722000B1
:0A21C60044656C74613A2025640042
:00000001FF
