:100000000C944D000C946A000C946A000C946A00E5
:100010000C9401010C946A000C946A000C946A0020
:100020000C946A000C946A000C946A000C946A00A8
:100030000C946A000C946A000C946A000C946A0098
:100040000C946A000C946A000C946A000C946A0088
:100050000C946A000C946A000C946A000C946A0078
:100060000C946A000C946A003E3E2055534520458E
:10007000453435394C203C3C373839303132333413
:10008000003E3E2061743332382D352E6320203CF3
:100090003C37383930313233340011241FBECFEFB2
:1000A000D8E0DEBFCDBF13E0A0E0B1E0EEE9F4E1BF
:1000B00002C005900D92AE32B107D9F723E0AEE24F
:1000C000B3E001C01D92A934B207E1F70E944204D7
:1000D0000C944D0A0C9400000F931F93CF93DF9361
:1000E000EC018B0181E00E94E801088319831B82E7
:1000F0001A821D821C821F821E8218861092640141
:10010000DF91CF911F910F9108951F93CF93DF93AC
:10011000EC018885811109C08A819B81E881F98180
:10012000E80FF91F2081211106C081E08887DF9147
:10013000CF911F91089501969B838A8310818E81B0
:100140009F8144973CF08C819D811F821E82019685
:100150009D838C838C819D818430910534F79C0133
:1001600097FF02C02F5F3F4F359527953E8144E1B1
:10017000249F300D112462E070E00E94F705632F88
:100180000E94F101812F0E94F9018E819F810196C9
:100190009F838E83CCCFCF93DF93C2E3D3E01882CB
:1001A0001A8219821B821D821C821E8218860E945E
:1001B0003B0369877A878B879C871D86E881F0E0FF
:1001C000EE0FFF1FEA5CFE4F0190F081E02D608191
:1001D000718180E493E0DF91CF910C946C0087B142
:1001E000807F87B988B18F6088B9E8E6F0E08081C8
:1001F00082608083ECE6F0E080818F608083789479
:1002000008951F921FB61F9211248F939F933299C6
:1002100003C081E080933103319903C081E0809372
:100220003003309903C081E080932F03339903C0DA
:1002300081E080932E038091310381110CC0809165
:100240003003811108C080912F03811104C0809177
:100250002E038823A1F08FEF93E20197F1F700C0FE
:100260000000329BFECF319BFCCF309BFACF339BFB
:10027000F8CF8FEF93E20197F1F700C000009F9154
:100280008F911F901FBE1F90189580916401882345
:1002900009F456C080913303909134038130910565
:1002A00009F06AC0E09132032091360330913703A0
:1002B000E1111CC021153105C9F420E030E040EA0D
:1002C00050E460913B0370913C0380913D03909119
:1002D0003E030E94A70666E671E0181614F06BE76D
:1002E00071E080E493E00E946C0028C060910401FA
:1002F0007091050126303105A1F3609102017091E2
:1003000003012430310569F360910001709101010E
:100310002530310531F322303105E1F060F48E2FC4
:1003200090E0232B71F4880F991FFC01E65DFE4FCE
:1003300060817181D6CF23303105A9F0109264011C
:10034000089526E0289FF001299FF00D1124EA5F0F
:10035000FE4FEECF86E0E89FF0011124EA5FFE4FEA
:1003600062817381BECF86E0E89FF0011124EA5FCD
:10037000FE4F64817581B5CF892B01F7E09132037F
:10038000F0E0EE0FFF1FEA5CFE4F8091380390E033
:10039000880F991F20813181820F931FFC01C8CFE4
:1003A0009BB19F709BB99BB1807F892B8BB985B125
:1003B000837F85B92A9A2A9A2A980895CF93C82FBD
:1003C0000E94D0018C2F8295807FCF910C94D00118
:1003D0002C980E94DE0186E69EE00197F1F700006E
:1003E00008958295880F880F807C860F80680C9412
:1003F000E8012C9A0E94DE0186E69EE00197F1F763
:1004000000000895CF93DF93EC01FE0184912196C3
:10041000811103C0DF91CF9108950E94F901F5CFBA
:10042000CF93DF93EC018991811103C0DF91CF91CC
:1004300008950E94F901F7CF8AB1806F8AB984B11B
:100440008C6184B92C988FEF9BE60197F1F700C07F
:10045000000080E30E94D0018FEF93E20197F1F753
:1004600000C0000080E30E94D0018DED90E0019774
:10047000F1F780E30E94D00186E69EE00197F1F754
:10048000000080E20E94D00186E69EE00197F1F72D
:10049000000088E20E94E8018FE00C94E80186E603
:1004A0009EE00197F1F7000008950F931F93A82F86
:1004B000000000000000000000004115510509F493
:1004C00068C084EA8093BC008091BC0087FFFCCFA9
:1004D0008091B900887F883031F58A2F8E7F809394
:1004E000BB0084E88093BC008091BC0087FFFCCFF8
:1004F0008091B900887F8831C9F08032A1F494E9F5
:100500009093BC0010C081918093BB006093BC00AD
:100510008091BC0087FFFCCF8091B900887F883232
:1005200049F0803361F31F910F910895FB01460F4D
:10053000571F64E84E175F0731F740E101151105B9
:1005400069F514C0F90194EC0130110589F484E8CF
:100550008093BC008091BC0087FFFCCF8091B900E4
:10056000887F883501F78091BB00808380E0C7CF0A
:100570009093BC008091BC0087FFFCCF8091B900B4
:10058000887F01501109803571F68091BB008193FD
:10059000DBCF80E00115110531F248E084EA809359
:1005A000BC008091BC0087FFFCCF8091B900887FA0
:1005B0004813B9CFA160A093BB0084E88093BC002E
:1005C0008091BC0087FFFCCF8091B900887F803488
:1005D00009F4B8CF883409F0A6CF91CF1092B900B2
:1005E0008093B80008950F931F93CF93DF93CDB7F7
:1005F000DEB763970FB6F894DEBF0FBECDBF80EABB
:100600008A8B83E08B8B10E000E030E020E042E05A
:1006100050E0BE016E5E7F4F809165010E945502E1
:10062000182F8823E9F060E082E00E94F1011F9218
:100630001F938DE093E09F938F931F9281E18F939F
:100640008E010F5F1F4F1F930F930E946A07C8010F
:100650000E9410020FB6F894DEBF0FBECDBFFFCFD1
:1006600063960FB6F894DEBF0FBECDBFDF91CF917A
:100670001F910F9108950F931F93CF93DF93CDB7E1
:10068000DEB766970FB6F894DEBF0FBECDBF22E38C
:1006900083EB92E0215080409040E1F700C000C021
:1006A00084EB8E8B1A8A1B8A1C8A1D8A04E010E058
:1006B0009E012E5E3F4F41E050E0BE016A5E7F4FDB
:1006C000809165010E945502182F8823A1F160E0F6
:1006D00082E00E94F1011F921F938EE193E09F93AD
:1006E0008F931F9281E18F938E010F5F1F4F1F9396
:1006F0000F930E946A07C8010E9410022FEF8FEF2C
:100700009CE2215080409040E1F700C000000FB60D
:10071000F894DEBF0FBECDBF60E070E080E89FEBD5
:1007200066960FB6F894DEBF0FBECDBFDF91CF91B6
:100730001F910F9108956A897B898C899D89681B17
:10074000790B90E080E00E94460627EE3DE147E20B
:100750005EE30E94AC06E4CF219A0895299A089599
:1007600029980895CF93DF9300D000D000D0CDB763
:10077000DEB78D839E838D819E819C0150E040E099
:1007800060E472E48FE090E00E940B0629833A83D4
:100790004B835C83CA01B90124E130E040E050E0C2
:1007A0000E940B0690E080E04D815E8184179507E2
:1007B00049F426960FB6F894DEBF0FBECDBFDF9189
:1007C000CF910895299A50E040E04217530741F431
:1007D000299850E040E04217530749F40196E4CFCE
:1007E00068E16A95F1F700C04F5F5F4FEECF68E1B7
:1007F0006A95F1F700C04F5F5F4FEDCF209A279ABF
:10080000089595B1981309C085B121E030E001C089
:10081000220F6A95EAF7822B85B9089595B198134E
:100820000AC025B181E090E001C0880F6A95EAF71F
:100830008095822385B908950F931F93CF93DF93FB
:10084000C82FD62F8A010E94010490E080E0801713
:10085000910791F46D2F8C2F0E940E04FFEF2FE370
:1008600082E0F15020408040E1F700C00000DF91BD
:10087000CF911F910F910895E3E3F7E03197F1F7DE
:100880000196E5CFCDB7DEB728970FB6F894DEBF57
:100890000FBECDBF0E941C020E94AC030E94FE034B
:1008A0000E94F3020E94EF000E94CB0085B14AEF44
:1008B00050E060E00E941C0485B144EF51E060E02C
:1008C0000E941C0485B148EC50E067E00E941C04C3
:1008D00085B148EC50E067E00E941C0485B148E512
:1008E00052E067E00E941C04DD24D39404E010E091
:1008F000EE24E394F12C80913103882369F08091F8
:1009000039031092310391E0811190E09093390303
:100910008111E1C00E94CB0080913903882359F3F3
:1009200080912E03882351F18091330390913403F9
:1009300010922E03009709F0DBC0809148038823B2
:10094000E9F020913803E0913203F0E0EE0FFF1F51
:10095000EA5CFE4F822F90E00196880F991F40813C
:100960005181840F951FDC018D919C91892B09F495
:10097000B6C02F5F20933803D092640120913003DA
:1009800080913303909134032223D1F010923003ED
:1009900081309105A9F420913F0331E0211130E02D
:1009A00030933F032111E6C0209135032111E5C0AA
:1009B00026E030E03093370320933603D092640171
:1009C00020912F03222309F40FC110922F038130AD
:1009D000910509F0FFC080913603909137039C0187
:1009E000225031092230310508F0CAC00197909396
:1009F000370380933603D092640180913203909143
:100A00003A03892B09F0D5C00E943B03962EA72EEE
:100A1000B82EC92E80913B0390913C03A0913D03D9
:100A2000B0913E038D839E83AF83B88720E030E092
:100A300040EA50E4BC01CD010E94A706181684F4D8
:100A400020E030E040EA50E49982AA82BB82CC8266
:100A500069817A818B819C810E94410687FD1DC03E
:100A600020E030E040EA50E46D817E818F819885FE
:100A70000E94410687FF9DC020E030E040EA50E43C
:100A80009982AA82BB82CC8269817A818B819C8186
:100A90000E94A70618160CF08CC0D0923A03109250
:100AA000340310923303E0913203EF5FE09332039B
:100AB0001092380310923F03F0E0EE0FFF1FEA5C44
:100AC000FE4F0190F081E02D6081718180E493E020
:100AD0000E946C006EC081E00E94E8011DCFF09280
:100AE0003403E0923303109237031092360344CF5D
:100AF000019709F043CF80913F03882309F43ECF4B
:100B000080913603909137038630910529F4109334
:100B100037030093360330CF8430910571F4809110
:100B20003503833008F028CF8F5F8093350390E042
:100B300090933703809336031FCF9C0121503109D6
:100B40002330310508F018CF409135032FEF280FDF
:100B500030E02F5F3F4F4217130619F014F0019653
:100B6000E7CF4330A0F2E5E0F0E0F0933703E09305
:100B7000360302CF30E020E01DCF21E030E01ACF75
:100B80008130910531F09C01245031092330310529
:100B900038F4109237031092360310923F032BCF94
:100BA000892B09F02ACF1092340310923303D0928C
:100BB000640180914803811104C080E493E00E94A5
:100BC00085000E944501AFEFB3EB1197F1F700C02C
:100BD000000091CE892B69F780913803882349F36F
:100BE000815080933803E3CF019719F706CF97FB25
:100BF000072E16F4009407D077FD09D00E942D0629
:100C000007FC05D03EF4909581959F4F089570950F
:100C100061957F4F0895A1E21A2EAA1BBB1BFD010F
:100C20000DC0AA1FBB1FEE1FFF1FA217B307E407CB
:100C3000F50720F0A21BB30BE40BF50B661F771F23
:100C4000881F991F1A9469F7609570958095909503
:100C50009B01AC01BD01CF010895AA1BBB1B51E153
:100C600007C0AA1FBB1FA617B70710F0A61BB70B1C
:100C7000881F991F5A95A9F780959095BC01CD01C1
:100C800008950E94830608F481E00895E89409C05D
:100C900097FB3EF490958095709561957F4F8F4FAF
:100CA0009F4F9923A9F0F92F96E9BB279395F695C5
:100CB000879577956795B795F111F8CFFAF4BB0F43
:100CC00011F460FF1BC06F5F7F4F8F4F9F4F16C0A7
:100CD000882311F096E911C0772321F09EE8872F31
:100CE000762F05C0662371F096E8862F70E060E0ED
:100CF0002AF09A95660F771F881FDAF7880F969566
:100D0000879597F90895990F0008550FAA0BE0E809
:100D1000FEEF16161706E807F907C0F012161306BD
:100D2000E407F50798F0621B730B840B950B39F4FD
:100D30000A2661F0232B242B252B21F408950A2663
:100D400009F4A140A6958FEF811D811D08950E9491
:100D5000830608F48FEF08950E94BF060C943007B5
:100D60000E94220738F00E94290720F0952311F0F5
:100D70000C9419070C941F0711240C9464070E940B
:100D8000410770F3959FC1F3950F50E0551F629F87
:100D9000F001729FBB27F00DB11D639FAA27F00DD4
:100DA000B11DAA1F649F6627B00DA11D661F829FFB
:100DB0002227B00DA11D621F739FB00DA11D621FE0
:100DC000839FA00D611D221F749F3327A00D611DFD
:100DD000231F849F600D211D822F762F6A2F1124DF
:100DE0009F5750409AF0F1F088234AF0EE0FFF1F12
:100DF000BB1F661F771F881F91505040A9F79E3F69
:100E0000510580F00C9419070C9464075F3FE4F3DC
:100E1000983ED4F3869577956795B795F795E795BE
:100E20009F5FC1F7FE2B880F911D9695879597F9C7
:100E3000089597F99F6780E870E060E008959FEF5C
:100E400080EC089500240A94161617061806090661
:100E5000089500240A941216130614060506089530
:100E6000092E0394000C11F4882352F0BB0F40F4B8
:100E7000BF2B11F460FF04C06F5F7F4F8F4F9F4FF8
:100E8000089557FD9058440F551F59F05F3F71F07A
:100E90004795880F97FB991F61F09F3F79F08795E1
:100EA0000895121613061406551FF2CF4695F1DF6A
:100EB00008C0161617061806991FF1CF86957105FA
:100EC000610508940895E894BB2766277727CB012E
:100ED00097F90895AEE0B0E0E0E7F7E00C94240A5B
:100EE0000D891E898F89988D26E02C831A830983AA
:100EF00097FF02C080E090E801979E838D83AE014A
:100F0000455E5F4F698D7A8DCE0101960E949A07EA
:100F10004D815E8157FD0AC02F81388542175307E6
:100F20000CF49A01020F131FF80110822E96E4E0D0
:100F30000C94400AAFE0B0E0E0EAF7E00C94160A47
:100F40007C013B018A01DC0117961C921E921697C8
:100F500013968C9181FFC3C19AE0292EFE01319630
:100F60004F01D70113969C91F30193FD859193FF57
:100F700081913F01882309F448C1853239F493FDFA
:100F8000859193FF81913F01853229F4B70190E06B
:100F90000E948809E6CFB12C412C512CBFE1B51538
:100FA00038F08B3209F188F4803201F1833221F17B
:100FB00057FC3AC020ED280F2A3040F556FE1FC0DE
:100FC000B29C200D1124B22E06C08D3291F08033D8
:100FD00079F7689450F8F30193FD859193FF81911F
:100FE0003F018111DBCF20C0689451F8689452F81A
:100FF000F2CF689453F8EFCF689454F8ECCF429C4A
:10100000200D1124422E689455F8E5CF8E3229F434
:1010100056FCFBC0689456F8DECF8C3619F4689401
:1010200057F8D9CF8836B9F2982F9F7D95549330D1
:10103000C0F08336A1F18337C1F1833509F05BC07D
:10104000D801CD90DD908D016B2D70E056FC02C073
:101050006FEF7FEFC6010E9472095C01689457F838
:101060000AC00C5F1F4FEFE3E983AA24A394B12CBD
:101070006401E89457F853FC04C04A141B0409F0B7
:1010800018F5342CA114B10431F5332009F469CFDB
:10109000B70180E290E00E9488093A94F6CFD80127
:1010A0008C9189830E5F1F4FE0CFF801C190D190E2
:1010B0008F016B2D70E056FC02C06FEF7FEFC60111
:1010C0000E947D095C01D5CFB70180E290E00E94CB
:1010D00088094A94D2CFF60157FC859157FE819139
:1010E0006F01B70190E00E94880931103A94B1E095
:1010F000AB1AB108C7CF843619F0893609F074C02D
:10110000F80157FE6AC061917191819191918F01AF
:10111000E52DEF76DE2E97FF09C0909580957095AE
:1011200061957F4F8F4F9F4F6894D7F82AE030E04A
:10113000A4010E94B809C82EC818AC2C5D2CD6FE9C
:101140000CC0E89450F8CB1440F4D4FE05C0D2FC97
:1011500003C05D2D5E7E552EAB2C54FE98C0FE0163
:10116000EC0DF11D8081803309F08AC0652D697E08
:10117000562E752D7870372E53FC98C050FE92C0B5
:10118000BC2CA41418F44C0CB42CBA1854FE94C003
:10119000B70180E390E00E94880952FE09C088E709
:1011A00090E051FE02C088E590E0B7010E948809F6
:1011B000CB1408F48DC0CA94D12C8FEFC81AD80A6A
:1011C000C80CD91CD6018E916D01B70190E00E9428
:1011D00088098C149D04B1F758CF61917191072E45
:1011E000000C880B990B93CFD52CE894D4F82AE007
:1011F00030E0853739F1F52DF97FDF2E8037A9F002
:1012000058F48835A9F08F36D9F0F7018681978197
:101210002F96E2E10C94320A8837B9F7D4FE02C067
:101220006894D2F820E130E00DC06894D4F8F6CF8D
:1012300054FE03C02F2F2660D22E20E132E002C0E0
:1012400028E030E0F801D7FE15C04191519161913D
:1012500071914C875D876E877F878F01A4016C85B4
:101260007D858E859F850E94B809C82EC818E89490
:10127000D7F863CF81919191AC0170E060E0E9CF44
:1012800052FC02C0A39475CFA394A39472CF852D72
:10129000867809F46ECFF6CFB70180E290E00E9425
:1012A0008809A394A414C0F3312C70CF342C3A18BD
:1012B000A41408F46BCFF8CF852D867809F478CF85
:1012C0008BE251FE80E257FC8DE2B70190E06ECFD9
:1012D000B70180E390E00E948809BA9469CF8FEF4C
:1012E0009FEF96CFFC010590615070400110D8F738
:1012F000809590958E0F9F1F0895FC01615070405E
:1013000001900110D8F7809590958E0F9F1F08953A
:101310000F931F93CF93DF93182F092FEB018B812E
:1013200081FD09C01FEF0FEF812F902FDF91CF912B
:101330001F910F91089582FF14C02E813F818C81EF
:101340009D81281739073CF4E881F981CF01019686
:101350009983888310838E819F8101969F838E83DA
:10136000E3CFE885F985812F0995892BA1F3DACFA1
:10137000FA01AA27283051F1203181F1E8946F93C6
:101380006E7F6E5F7F4F8F4F9F4FAF4FB1E03ED06C
:10139000B4E03CD0670F781F891F9A1FA11D680F0A
:1013A000791F8A1F911DA11D6A0F711D811D911D3D
:1013B000A11D20D009F468943F912AE0269F1124B2
:1013C0003019305D3193DEF6CF010895462F477016
:1013D000405D4193B3E00FD0C9F7F6CF462F4F7071
:1013E000405D4A3318F0495D31FD4052419302D0CF
:1013F000A9F7EACFB4E0A695979587957795679575
:10140000BA95C9F700976105710508959B01AC0174
:101410000A2E06945795479537952795BA95C9F79B
:10142000620F731F841F951FA01D08952F923F9276
:101430004F925F926F927F928F929F92AF92BF92E4
:10144000CF92DF92EF92FF920F931F93CF93DF9390
:10145000CDB7DEB7CA1BDB0B0FB6F894DEBF0FBEED
:10146000CDBF09942A88398848885F846E847D843A
:101470008C849B84AA84B984C884DF80EE80FD803C
:101480000C811B81AA81B981CE0FD11D0FB6F894B2
:0E149000DEBF0FBECDBFED010895F894FFCF73
:10149E008E019F01BD01DA01F60122023F024602D2
:1014AE004D023F0246024D023F0246024D023F02EE
:1014BE0046024D023F0246024D02000054026402F3
:1014CE0074028402940260015A0154014E014801D3
:1014DE004201A402B3020000C402B3020000D30210
:1014EE00B3020000E202B3020000F102B3020000F8
:1014FE000003000001524974277320627269676805
:10150E007420696E20686572652100497427732006
:10151E006461726B20696E206865726521004E6F82
:10152E0020636C7565732072656D61696E2E004166
:10153E00726520796F75207375726520796F7520CD
:10154E0077616E74206120636C75653F00436C6932
:10155E00636B204E45585420746F20756E6C6F630C
:10156E006B206120636C75652E00596F75206D6957
:10157E00676874206861766520746F2067657420D3
:10158E0075702E2E2E00536F6D657468696E672010
:10159E00696E20796F757220726F6F6D20636F6E3A
:1015AE0074726F6C73206272696768746E657373A0
:1015BE00210054727920666C697070696E672061C3
:1015CE00206C69676874207377697463682E0043B2
:1015DE006C7565203100436C7565203200436C7567
:1015EE006520330050757A7A6C6520322070726FE8
:1015FE006D70740050757A7A6C6520332070726F3E
:10160E006D70740050757A7A6C6520342070726F2C
:10161E006D70740050757A7A6C6520352070726F1B
:10162E006D70740050757A7A6C6520362070726F0A
:10163E006D70740050757A7A6C65203620696E7400
:10164E00726F004D6F7265206469616C6F677565AE
:10165E002E2E2E0050757A7A6C65203520696E74A8
:10166E00726F0050757A7A6C65203420696E7472D0
:10167E006F0050757A7A6C65203320696E74726FC4
:10168E000050757A7A6C65203220696E74726F0024
:10169E0057616B696E672075702E2E2E00456E6138
:1016AE00626C65204572723A2025303258005265C0
:0E16BE006164204572723A20253032580000D7
:00000001FF
