:100000000C946B000C9488000C9488000C9488006D
:100010000C9488000C9488000C9488000C94880040
:100020000C9488000C9488000C9488000C94880030
:100030000C9488000C9488000C9488000C94880020
:100040000C9488000C9488000C941E050C94880075
:100050000C9488000C9488000C9488000C94880000
:100060000C9488000C9488004E414E494E495459D6
:10007000494E46CDCCCC3D0AD7233C17B7D1387773
:10008000CC2B329595E6241FB14F0A000020410089
:1000900000C84200401C4620BCBE4CCA1B0E5AAED3
:1000A000C59D743E3E205553452045453435394C59
:1000B000203C3C3738393031323334003E3E206109
:1000C000743332382D352E6320203C3C373839309C
:1000D00031323334000011241FBECFEFD8E0DEBF31
:1000E000CDBF12E0A0E0B1E0E8EEFBE102C0059078
:1000F0000D92A030B107D9F722E0A0E0B2E001C034
:100100001D92AA39B207E1F70E94A8060C94F20DDD
:100110000C9400000F931F93CF93DF938C01C0E0EA
:10012000D0E0F80181918F01811105C0DF91CF915D
:100130001F910F9108956C2F8D2F0E94CD00F80113
:10014000319780810E94D500CF5FC83250F3D11122
:10015000EDCFC0E0D1E0E5CF9BB19F709BB99BB1E3
:10016000807F892B8BB985B1837F85B92A9A2A9A9A
:100170002A980895CF93C82F0E94AC008C2F8295A7
:10018000807FCF910C94AC002C980E94BA0086E638
:100190009EE00197F1F7000008958295880F880F7F
:1001A000807C860F80680C94C4002C9A0E94BA0050
:1001B00086E69EE00197F1F700000895CF93DF9364
:1001C000EC01FE0184912196811103C0DF91CF9152
:1001D00008950E94D500F5CFCF93DF93EC0189916C
:1001E000811103C0DF91CF9108950E94D500F7CF10
:1001F0008AB1806F8AB984B18C6184B92C988FEFF1
:100200009BE60197F1F700C0000080E30E94AC007C
:100210008FEF93E20197F1F700C0000080E30E94A6
:10022000AC008DED90E00197F1F780E30E94AC0007
:1002300086E69EE00197F1F7000080E20E94AC00A4
:1002400086E69EE00197F1F7000088E20E94C40074
:100250008FE00C94C40086E69EE00197F1F7000061
:1002600008950F931F93A82F0000000000000000C6
:1002700000004115510509F468C084EA8093BC0070
:100280008091BC0087FFFCCF8091B900887F8830C7
:1002900031F58A2F8E7F8093BB0084E88093BC0069
:1002A0008091BC0087FFFCCF8091B900887F8831A6
:1002B000C9F08032A1F494E99093BC0010C0819100
:1002C0008093BB006093BC008091BC0087FFFCCF93
:1002D0008091B900887F883249F0803361F31F91A3
:1002E0000F910895FB01460F571F64E84E175F07F3
:1002F00031F740E10115110569F514C0F90194ECDD
:100300000130110589F484E88093BC008091BC0021
:1003100087FFFCCF8091B900887F883501F78091F5
:10032000BB00808380E0C7CF9093BC008091BC006D
:1003300087FFFCCF8091B900887F0150110980357B
:1003400071F68091BB008193DBCF80E00115110530
:1003500031F248E084EA8093BC008091BC0087FFC2
:10036000FCCF8091B900887F4813B9CFA160A093DA
:10037000BB0084E88093BC008091BC0087FFFCCF69
:100380008091B900887F803409F4B8CF883409F0AF
:10039000A6CF91CF1092B9008093B80008950F9323
:1003A0001F93CF93DF93CDB7DEB763970FB6F89463
:1003B000DEBF0FBECDBF80EA8A8B83E08B8B10E05F
:1003C00000E030E020E042E050E0BE016E5E7F4F92
:1003D000809100010E943101182F8823E9F060E02C
:1003E00082E00E94CD001F921F938BE891E09F93C3
:1003F0008F931F9281E18F938E010F5F1F4F1F9389
:100400000F930E945609C8010E94EC000FB6F894A1
:10041000DEBF0FBECDBFFFCF63960FB6F894DEBF31
:100420000FBECDBFDF91CF911F910F9108950F9314
:100430001F93CF93DF93CDB7DEB766970FB6F894CF
:10044000DEBF0FBECDBF22E383EB92E021508040A0
:100450009040E1F700C000C084EB8E8B1A8A1B8AA3
:100460001C8A1D8A04E010E09E012E5E3F4F41E091
:1004700050E0BE016A5E7F4F809100010E94310111
:10048000182F8823A1F160E082E00E94CD001F9226
:100490001F938CE991E09F938F931F9281E18F933B
:1004A0008E010F5F1F4F1F930F930E945609C801C3
:1004B0000E94EC002FEF8FEF9CE221508040904093
:1004C000E1F700C000000FB6F894DEBF0FBECDBF4D
:1004D00060E070E080E89FEB66960FB6F894DEBFB0
:1004E0000FBECDBFDF91CF911F910F9108956A8903
:1004F0007B898C899D89681B790B90E080E00E9444
:100500000E0827EE3DE147E25EE30E949C08E4CF3F
:100510000F931F93CF93DF938B01EA012091000289
:10052000309101022230310519F44230510531F584
:10053000219A20E42093800029E020938100B0E0FC
:10054000A0E09C01AD01220F331F441F551F60E046
:1005500070E880E790E00E94D7062150310930937F
:10056000890020938800109303020093020281E027
:1005700080930402D0930102C0930002DF91CF91D7
:100580001F910F9108951092800010928100299878
:10059000109204021092010210920002089520911C
:1005A0000402222379F02091020230910302821783
:1005B000930710F00C94C302281B390B30930302ED
:1005C000209302020895219A299808951092060214
:1005D00082E090E0909301028093000281E080939A
:1005E0000502E1E0F1E06281738142E050E0808148
:1005F00091810C9488020E94CF0280910502882389
:10060000D9F080910402811117C0E0910602EF5FDA
:10061000E0930602E43070F484E0E89FF0011124D6
:10062000EF5FFE4F6281738142E050E080819181F3
:100630000C94880210920502089584B1816884B9EF
:10064000529A0895289A2F9A5A9A089528982F987E
:100650005A980895EF92FF920F931F93CF938C01B6
:1006600080910702882369F18091090290910A0222
:10067000A0910B02B0910C02800F911FA11DB11D22
:10068000803127E29207A105B10570F48093090239
:1006900090930A02A0930B02B0930C02CF911F918A
:1006A0000F91FF90EF9008951092090210920A02A4
:1006B00010920B0210920C02109208021092070284
:1006C000EDCFC091080283E0C89FF0011124EF5ED6
:1006D000FE4FE180F2808081882381F00E94220316
:1006E00080910D0290910E02800F911F8E159F0533
:1006F00040F490930E0280930D02D0CF0E94260307
:10070000EFCF10920E0210920D02CF5FC09308023D
:10071000C23220F20E94260381E080930702BECFFE
:100720000F931F93CF93DF9300D0CDB7DEB786E250
:10073000898388EB8A8310E000E030E020E042E02B
:1007400050E0BE016F5F7F4F80EC0E943101882333
:1007500079F060E081E00E94CD008BEA91E00E9498
:10076000EC000F900F90DF91CF911F910F910895A2
:100770008FE19EE40197F1F700C0000089EB8A83C6
:1007800010E000E030E020E042E050E0BE016F5FAA
:100790007F4F80EC0E943101882339F060E081E0D6
:1007A0000E94CD008CEB91E0DACF9FEF24E38CE048
:1007B000915020408040E1F700C00000D2CF0F935D
:1007C0001F93CF93DF9300D000D0CDB7DEB781E089
:1007D0008C8303E010E09E012F5F3F4F41E050E02B
:1007E000BE016C5F7F4F80EC0E943101882389F04D
:1007F00060E081E00E94CD008DEC91E00E94EC0071
:100800000F900F900F900F90DF91CF911F910F914C
:100810000895698170E090E080E02AE0660F771F1C
:10082000881F991F2A95D1F70A8110E030E020E057
:1008300042E0000F111F221F331F4A95D1F7602B92
:10084000712B822B932B2B81229526952695237035
:10085000622BD6CF0F931F93CF93DF9300D01F92BD
:10086000CDB7DEB784E08B8302E010E09E012F5FFE
:100870003F4F41E050E0BE016D5F7F4F80EC0E9432
:1008800031018823A1F060E081E00E94CD008EED6F
:1008900091E00E94EC0060E070E08AE794EC0F9039
:1008A0000F900F90DF91CF911F910F910895698163
:1008B0007A8176276727762784E0759567958A95EC
:1008C000E1F7072E000C880B990B0E94100820E01E
:1008D00030E040E85DE30E949C08E1CF0F931F9356
:1008E000CF93DF9300D0CDB7DEB780E2898387E571
:1008F0008A8310E000E030E020E042E050E0BE01FA
:100900006F5F7F4F80E30E9431010F900F90DF9166
:10091000CF911F910F910895EF92FF920F931F9324
:10092000CF93DF9300D000D000D01F92CDB7DEB7B9
:100930007C0188EA8F839E012F5F3F4F86E0F9019B
:1009400011928A95E9F706E010E041E050E0BE011F
:10095000695F7F4F80E30E9431018823A1F0F70196
:1009600015821482138212821182108227960FB68A
:10097000F894DEBF0FBECDBFDF91CF911F910F91D5
:10098000FF90EF90089589819A8126E0959587954B
:100990002A95E1F7F701918380838B819C8136E072
:1009A000959587953A95E1F7938382838D819E8112
:1009B00046E0959587954A95E1F795838483D6CF50
:1009C0009C0140911002509111029093110280936A
:1009D000100280910F02882331F09FEF980F9093BF
:1009E0000F0280E00895241B350B225E3F4F2D330C
:1009F000310520F08AE080930F0281E008955B9A30
:100A000008955B980895539A0C9401051092C500BF
:100A10008FE28093C40088E98093C10086E08093D0
:100A2000C20008958091120208951092140210924B
:100A30001302109212021092180208951F920F9240
:100A40000FB60F9211242F934F935F938F939F9321
:100A5000EF93FF932091C600809115028D30C1F471
:100A60002A30B1F4809113029091140218161906DD
:100A70003CF4E0911302F0911402E95EFD4F108204
:100A800081E080931202109214021092130216C099
:100A900080911302909114028F379105A4F78091F1
:100AA000130290911402AC014F5F5F4F50931402F8
:100AB00040931302885E9D4FFC0120832093150212
:100AC000FF91EF919F918F915F914F912F910F9097
:100AD0000FBE0F901F9018952F923F924F925F92EA
:100AE0006F927F928F929F92AF92BF92CF92DF923E
:100AF000EF92FF920F931F93CF93DF93CDB7DEB7A3
:100B0000C25AD1090FB6F894DEBF0FBECDBF7C012B
:100B10008B011A0146E050E06FEE71E00E9412096D
:100B2000892B51F046E050E066EF71E0C7010E946A
:100B30001209892B09F0EEC04FE750E0B701CE0152
:100B400001960E942009C058DF4F1882C058D0403B
:100B50005E0121E9A20EB11C80E1F501282F11925E
:100B60002A95E9F77E0191E8E90EF11CF70111924F
:100B70008A95E9F76DEF71E0CE0101960E940D09AB
:100B8000FEE4CF55DF4FF883C15AD040D12CC12CA1
:100B9000009739F425E4CE55DF4F2883C25AD04060
:100BA00034C02FEFC21AD20AE3E0CE16D10439F4D2
:100BB0004FE050E0BC01C5010E9420090BC0F4E0E9
:100BC000CF16D10471F4FC01F081CF55DF4FF883CB
:100BD000C15AD0406DEF71E090E080E00E940D09B5
:100BE000D7CF25E0C216D10429F44FE050E0BC0174
:100BF000C701E2CFE6E0CE16D10461F7FC01F08137
:100C0000CE55DF4FF883C25AD040C5010E94090972
:100C10004B015C01C7010E9409092B013C0120E046
:100C200030E048EC52E4C501B4010E9466070E941E
:100C3000D8076B0184E68C9DB0018D9D700D112449
:100C4000072E000C880B990B0E9410089B01AC0129
:100C5000C501B4010E94F90620E030E040E752E40B
:100C60000E9466074B015C01B601DD0C880B990BF5
:100C70000E9410089B01AC01C501B4010E94FA0654
:100C8000CF55DF4FE881C15AD040E33509F45CC04D
:100C9000F801608371838283938320E030E048EC25
:100CA00052E4C301B2010E9466070E94D8076B019B
:100CB00084E68C9DB0018D9D700D1124072E000CD3
:100CC000880B990B0E9410089B01AC01C301B20173
:100CD0000E94F90620E030E040E752E40E946607F7
:100CE0004B015C01B601DD0C880B990B0E941008CA
:100CF0009B01AC01C501B4010E94FA06CE55DF4F3D
:100D0000F881C25AD040F73509F1F101608371834F
:100D100082839383CE55DF4F0FB6F894DEBF0FBEAC
:100D2000CDBFDF91CF911F910F91FF90EF90DF909A
:100D3000CF90BF90AF909F908F907F906F905F907B
:100D40004F903F902F9008959058A2CF9058DDCFAC
:100D50000E94F8000E940605789460E080E00E94FE
:100D6000CD0088E791E00E94EC002FEF8FEF9CE22E
:100D7000215080409040E1F700C000000E94120521
:100D80008823E1F381E00E94C40060E080E00E94DB
:100D9000CD0088E192E00E948A000E9415052FEFA5
:100DA0008FE796E1215080409040E1F7E5CFA1E246
:100DB0001A2EAA1BBB1BFD010DC0AA1FBB1FEE1FD5
:100DC000FF1FA217B307E407F50720F0A21BB30B20
:100DD000E40BF50B661F771F881F991F1A9469F79C
:100DE00060957095809590959B01AC01BD01CF01F8
:100DF00008955058BB27AA270E9411070C94620837
:100E00000E94540838F00E945B0820F039F49F3F9C
:100E100019F426F40C9451080EF4E095E7FB0C94B9
:100E20004B08E92F0E94730858F3BA17620773073B
:100E30008407950720F079F4A6F50C9495080EF434
:100E4000E0950B2EBA2FA02D0B01B90190010C01DA
:100E5000CA01A0011124FF27591B99F0593F50F4F2
:100E6000503E68F11A16F040A22F232F342F44274A
:100E7000585FF3CF469537952795A795F040539542
:100E8000C9F77EF41F16BA0B620B730B840BBAF012
:100E90009150A1F0FF0FBB1F661F771F881FC2F77D
:100EA0000EC0BA0F621F731F841F48F48795779591
:100EB0006795B795F7959E3F08F0B0CF9395880F4B
:100EC00008F09927EE0F9795879508950E947A0765
:100ED0000C9462080E945B0858F00E94540840F08D
:100EE00029F45F3F29F00C944B0851110C9496089B
:100EF0000C9451080E94730868F39923B1F35523A9
:100F000091F3951B550BBB27AA276217730784071C
:100F100038F09F5F5F4F220F331F441FAA1FA9F3B2
:100F200035D00E2E3AF0E0E832D091505040E695A0
:100F3000001CCAF72BD0FE2F29D0660F771F881F01
:100F4000BB1F261737074807AB07B0E809F0BB0BF4
:100F5000802DBF01FF2793585F4F3AF09E3F510508
:100F600078F00C944B080C9496085F3FE4F3983E9D
:100F7000D4F3869577956795B795F7959F5FC9F7F1
:100F8000880F911D9695879597F90895E1E0660F72
:100F9000771F881FBB1F621773078407BA0720F0EB
:100FA000621B730B840BBA0BEE1F88F7E095089554
:100FB0000E94DF076894B1110C94960808950E946E
:100FC0007B0888F09F5798F0B92F9927B751B0F058
:100FD000E1F0660F771F881F991F1AF0BA95C9F7BD
:100FE00014C0B13091F00E949508B1E008950C94BE
:100FF0009508672F782F8827B85F39F0B93FCCF371
:10100000869577956795B395D9F73EF49095809539
:10101000709561957F4F8F4F9F4F0895E89409C059
:1010200097FB3EF490958095709561957F4F8F4F1B
:101030009F4F9923A9F0F92F96E9BB279395F69531
:10104000879577956795B795F111F8CFFAF4BB0FAF
:1010500011F460FF1BC06F5F7F4F8F4F9F4F16C013
:10106000882311F096E911C0772321F09EE8872F9D
:10107000762F05C0662371F096E8862F70E060E059
:101080002AF09A95660F771F881FDAF7880F9695D2
:10109000879597F9089597F99F6780E870E060E079
:1010A00008959FEF80EC089500240A941616170601
:1010B00018060906089500240A9412161306140649
:1010C00005060895092E0394000C11F4882352F0AC
:1010D000BB0F40F4BF2B11F460FF04C06F5F7F4F64
:1010E0008F4F9F4F089557FD9058440F551F59F04B
:1010F0005F3F71F04795880F97FB991F61F09F3F05
:1011000079F087950895121613061406551FF2CF2D
:101110004695F1DF08C0161617061806991FF1CF7D
:1011200086957105610508940895E894BB276627A4
:101130007727CB0197F908950E94AF080C946208B5
:101140000E94540838F00E945B0820F0952311F0AB
:101150000C944B080C94510811240C9496080E948E
:10116000730870F3959FC1F3950F50E0551F629F70
:10117000F001729FBB27F00DB11D639FAA27F00DF0
:10118000B11DAA1F649F6627B00DA11D661F829F17
:101190002227B00DA11D621F739FB00DA11D621FFC
:1011A000839FA00D611D221F749F3327A00D611D19
:1011B000231F849F600D211D822F762F6A2F1124FB
:1011C0009F5750409AF0F1F088234AF0EE0FFF1F2E
:1011D000BB1F661F771F881F91505040A9F79E3F85
:1011E000510580F00C944B080C9496085F3FE4F393
:1011F000983ED4F3869577956795B795F795E795DB
:101200009F5FC1F7FE2B880F911D9695879597F9E3
:101210000895662777270C94600B46E152E00E9400
:101220002F090895FB01DC014150504030F08D91B1
:101230000190801919F40020B9F7881B990B0895C3
:10124000FB01DC014150504048F001900D9200201C
:10125000C9F701C01D9241505040E0F70895FA01CE
:10126000A191B081009719F41097E1F0CD01DC0154
:10127000CD010D90002011F4C00113C0FB0121919C
:10128000222319F02015D9F7F3CFFB012191201566
:1012900019F41E92119606C02223C1F70D9000206A
:1012A000A1F7D001FA01A193B0830895AEE0B0E0B8
:1012B000ECE5F9E00C94BA0D0D891E898F89988DA3
:1012C00026E02C831A83098397FF02C080E090E810
:1012D00001979E838D83AE01455E5F4F698D7A8D48
:1012E000CE0101960E9486094D815E8157FD0AC09C
:1012F0002F813885421753070CF49A01020F131FF0
:10130000F80110822E96E4E00C94D60DABE0B0E02C
:10131000ECE8F9E00C94AC0D7C013B018A01FC0186
:1013200017821682838181FFC8C1CE0101965C01BC
:10133000F7019381F30193FD859193FF81913F0123
:10134000882309F453C1853239F493FD859193FFC5
:1013500081913F01853229F4B70190E00E94E70CAA
:10136000E7CF912C212C312CFFE1F31538F08B3293
:1013700011F190F4803209F1833229F137FC3CC03D
:1013800020ED280F2A3050F536FE20C08AE0989EC6
:10139000200D1124922E06C08D3291F0803371F70A
:1013A000689430F8F30193FD859193FF81913F019B
:1013B0008111DACF21C0689431F8689432F8F2CF05
:1013C000689433F8EFCF689434F8ECCFEAE02E9EBF
:1013D000200D1124222E689435F8E4CF8E3229F4A2
:1013E00036FC04C1689436F8DDCF8C3619F4689465
:1013F00037F8D8CF8836B1F2982F9F7D9554933027
:10140000E0F08336A1F18337C1F1833509F063C081
:101410002801F2E04F0E511CF801C080D180692DE7
:1014200070E036FC02C06FEF7FEFC6010E94D10C66
:101430004C01689437F882010AC00C5F1F4FFFE32C
:10144000F98388248394912C6501E89437F833FE5E
:101450002DC0522C8114910471F5552009F468CFE8
:10146000B70180E290E00E94E70C5A94F6CFF801B1
:10147000808189830E5F1F4FE4CF2801F2E04F0E79
:10148000511CF801C080D180692D70E036FC02C08B
:101490006FEF7FEFC6010E94DC0C4C018201D5CFBB
:1014A000B70180E290E00E94E70C2A942814190406
:1014B00009F0B0F7CECFF60137FC859137FE819168
:1014C0006F01B70190E00E94E70C51105A94F1E0CF
:1014D0008F1A9108BFCF843619F0893609F077C08A
:1014E000F80137FE6BC060817181828193810C5F4E
:1014F0001F4FF32DFF763F2E97FF09C090958095E3
:10150000709561957F4F8F4F9F4F689437F82AE011
:1015100030E0A5010E94170DC82ECA188C2C432C50
:1015200036FE0CC0E89440F8C91440F434FE05C0FF
:1015300032FC03C0F32DFE7E4F2E892C44FE95C055
:10154000FE01EC0DF11D8081803309F087C0242D50
:10155000297E422E842D8870582E43FC95C040FE73
:101560008FC09C2C821418F42C0C922C981844FEDA
:1015700091C0B70180E390E00E94E70C42FE09C0F1
:1015800088E790E041FE02C088E590E0B7010E9444
:10159000E70CC91408F48AC0CA94D12C9FEFC91A69
:1015A000D90ACA0CDB1CF60182916F01B70190E0E9
:1015B0000E94E70CAC14BD04B1F74FCF608171817C
:1015C000072E000C880B990B0E5F1F4F92CFD32C68
:1015D000E894D4F82AE030E0853739F1232D297FCB
:1015E000D22E8F3601F148F48835A9F0F7018681B3
:1015F00097812B96E2E10C94C80D803749F088372B
:10160000A9F7D4FE02C06894D2F820E130E00DC002
:101610006894D4F8F6CF34FE03C0822F8660D82EAB
:1016200020E132E002C028E030E0F801D7FE0FC030
:1016300060817181828193810C5F1F4FA5010E949F
:10164000170DC82ECA183D2CE89437F867CF608173
:10165000718190E080E00E5F1F4FF0CF42FC02C02E
:10166000839478CF8394839475CF842D867809F4FE
:1016700071CFF6CFB70180E290E00E94E70C83942F
:101680008214C0F3512C73CF522C5818821408F4D2
:101690006ECFF8CF842D867809F47BCF8BE241FEA4
:1016A00080E247FC8DE2B70190E071CFB70180E3A3
:1016B00090E00E94E70C9A946CCF8FEF9FEF99CF48
:1016C000B0E0A0E0E6E6FBE00C94B20D5C017B012B
:1016D0006115710519F0DB018D939C9385010F5FF6
:1016E0001F4FF501D0818D2F90E00E94B00C6C014E
:1016F000892BB9F5DD32B9F50F5F1F4FD501119672
:10170000DC91C1E05801F1E0AF1AB10843E050E0CC
:1017100060E770E0C5010E94B90C892B69F568018A
:1017200082E0C80ED11C45E050E06BE670E0C601D7
:101730000E94B90C892B21F4680197E0C90ED11CD5
:10174000E114F10419F0D701CD92DC9260E070E071
:1017500080E89FEFC111FFC060E070E080E89FE784
:10176000FAC05801BBCFDB3229F485010E5F1F4F51
:10177000F501D181C0E0C6CF43E050E068E670E0FB
:10178000C5010E94B90C892BE9F0F80110E000E0D6
:1017900020E030E0A9015F01B0ED8B2E8D0E89E0D5
:1017A0008815C8F19C2E689491F88C2F8870C2FF20
:1017B00016C0811102C00F5F1F4F3196D501DC9119
:1017C000C92DE9CFE114F10429F00E5F1F4FF70195
:1017D0001183008360E070E080EC9FE7BCC0882349
:1017E00011F001501109A5E0B0E00E94A10D9B018C
:1017F000AC01220F331F441F551F280D311D411D01
:10180000511D283999E93907490799E15907A8F283
:10181000C6609C2ED2CFAEEF8A1206C0C3FD3CC07C
:101820009C2E689493F8C9CFDF7DD534A9F58081CB
:101830008D3239F4C061DF011296818162E070E07F
:1018400006C0DF018B32C1F3119661E070E0805376
:101850005D01A61AB70A8A30F8F4E0E8CE16ECE08B
:10186000DE065CF4B601660F771F660F771FC60EA3
:10187000D71ECC0CDD1CC80ED11C5D01FFEFAF1ACA
:10188000BF0A8C9180538A30A8F1C4FF03C0D19461
:10189000C194D1080C0D1D1DC1FF09C0E114F10454
:1018A00031F081E0A81AB108D701AD92BC92CA010B
:1018B000B9010E940E08C370C33009F490584B015F
:1018C0005C0120E030E0A9010E94750D882309F435
:1018D00040C0CFE9D0E017FF05C01195019511096F
:1018E000C7E8D0E06E01B8E1CB1AD10880E2E82E5B
:1018F000F12C0FC0D501B1CFFE0125913591459155
:1019000054910E191F09C501B4010E949C084B0196
:101910005C01D501C4010E151F0574F72497F594D9
:10192000E794CC16DD06A9F78A2F880F8B2F881F26
:101930008F3F49F020E030E0A901C501B4010E94C9
:10194000750D811106C082E290E090939902809318
:101950009802C501B401CDB7DEB7ECE00C94CE0D12
:1019600091110C949E0D803219F089508550C8F762
:101970000895FB01DC014150504088F08D91813485
:101980001CF08B350CF4805E659161341CF06B3576
:101990000CF4605E861B611171F3990B0895881B2E
:1019A000FCCFFC010590615070400110D8F7809584
:1019B00090958E0F9F1F0895FC016150704001901B
:1019C0000110D8F7809590958E0F9F1F08950F9363
:1019D0001F93CF93DF93182F092FEB018B8181FD8C
:1019E00009C01FEF0FEF812F902FDF91CF911F9133
:1019F0000F91089582FF14C02E813F818C819D81BB
:101A0000281739073CF4E881F981CF0101969983C1
:101A1000888310838E819F8101969F838E83E3CF7D
:101A2000E885F985812F0995892BA1F3DACFFA0191
:101A3000AA27283051F1203181F1E8946F936E7F0D
:101A40006E5F7F4F8F4F9F4FAF4FB1E03ED0B4E0FE
:101A50003CD0670F781F891F9A1FA11D680F791F3F
:101A60008A1F911DA11D6A0F711D811D911DA11D50
:101A700020D009F468943F912AE0269F1124301960
:101A8000305D3193DEF6CF010895462F4770405DFB
:101A90004193B3E00FD0C9F7F6CF462F4F70405DAA
:101AA0004A3318F0495D31FD4052419302D0A9F705
:101AB000EACFB4E0A6959795879577956795BA95FF
:101AC000C9F700976105710508959B01AC010A2EC5
:101AD00006945795479537952795BA95C9F7620F9C
:101AE000731F841F951FA01D08950E947A0D08F48E
:101AF00081E00895990F0008550FAA0BE0E8FEEF6A
:101B000016161706E807F907C0F012161306E407C1
:101B1000F50798F0621B730B840B950B39F40A26BA
:101B200061F0232B242B252B21F408950A2609F498
:101B3000A140A6958FEF811D811D089599278827C3
:101B400008950E94E30DA59F900DB49F900DA49F52
:101B5000800D911D112408952F923F924F925F9214
:101B60006F927F928F929F92AF92BF92CF92DF92AD
:101B7000EF92FF920F931F93CF93DF93CDB7DEB712
:101B8000CA1BDB0B0FB6F894DEBF0FBECDBF0994A6
:101B90002A88398848885F846E847D848C849B84FD
:101BA000AA84B984C884DF80EE80FD800C811B810B
:101BB000AA81B981CE0FD11D0FB6F894DEBF0FBE3A
:101BC000CDBFED010895A29FB001B39FC001A39FB7
:101BD000700D811D1124911DB29F700D811D112466
:081BE000911D0895F894FFCF58
:101BE800522605640020066400E00696007405C8C5
:101BF8000001C80000C80001C80000C80001580260
:101C080000C80001C80000580201C80000C800014F
:101C1800580200C80001C80000580201C800005856
:101C28000201C80000580201580200C80001580209
:101C380000C80001C80000C80001C800005802011F
:101C4800C80000780501580200C800015802005871
:101C58000201C8000078052257616974696E67201F
:101C6800666F72204750532E2E2E00456E61626CAF
:101C780065204572723A20253032580052656164F9
:101C8800204572723A202530325800416C742E205B
:101C98007772697465206572726F7200416C742E78
:101CA800207374617274206572726F7200493243D6
:101CB8002072656164206572726F7220200054651D
:101CC8006D702072656164206572726F72200024E5
:101CD8004750524D4300244750474741002C0000CD
:00000001FF
