:100000000C9434000C943E000C943E000C943E0082
:100010000C943E000C943E000C943E000C943E0068
:100020000C943E000C943E000C943E000C943E0058
:100030000C943E000C943E000C943E000C943E0048
:100040000C943E000C943E000C943E000C943E0038
:100050000C943E000C943E000C943E000C943E0028
:100060000C943E000C943E0011241FBECFEFD8E04C
:10007000DEBFCDBF0E9459000C9468000C940000B4
:100080009093C5008093C40088E18093C10086E00E
:100090008093C20008959091C00095FFFCCF80939B
:1000A000C60008958091C00087FFFCCF8091C600F4
:1000B00008958FE290E00E9440008AB18C608AB976
:1000C0008BB1837F8BB90E9452000E944B00FBCF03
:0400D000F894FFCFD2
:00000001FF
