:100000000C944D000C946A000C946A000C946A00E5
:100010000C946A000C946A000C946A000C946A00B8
:100020000C946A000C946A000C946A000C946A00A8
:100030000C946A000C946A000C946A000C946A0098
:100040000C946A000C946A000C946A000C946A0088
:100050000C946A000C946A000C946A000C946A0078
:100060000C946A000C946A003E3E2055534520458E
:10007000453435394C203C3C373839303132333413
:10008000003E3E2061743332382D352E6320203CF3
:100090003C37383930313233340011241FBECFEFB2
:1000A000D8E0DEBFCDBF11E0A0E0B1E0E0EBF9E0C9
:1000B00002C005900D92A832B107D9F721E0A8E25D
:1000C000B1E001C01D92A933B207E1F70E9491018E
:1000D0000C94D6040C9400009BB19F709BB99BB10B
:1000E000807F892B8BB985B1837F85B92A9A2A9A1B
:1000F0002A980895CF93C82F0E946C008C2F829568
:10010000807FCF910C946C002C980E947A0086E638
:100110009EE00197F1F7000008958295880F880FFF
:10012000807C860F80680C9484002C9A0E947A0050
:1001300086E69EE00197F1F700000895CF93DF93E4
:10014000EC01FE0184912196811103C0DF91CF91D2
:1001500008950E949500F5CFCF93DF93EC0189912C
:10016000811103C0DF91CF9108950E949500F7CFD0
:100170008AB1806F8AB984B18C6184B92C988FEF71
:100180009BE60197F1F700C0000080E30E946C003D
:100190008FEF93E20197F1F700C0000080E30E9427
:1001A0006C008DED90E00197F1F780E30E946C0008
:1001B00086E69EE00197F1F7000080E20E946C0065
:1001C00086E69EE00197F1F7000088E20E94840035
:1001D0008FE00C94840086E69EE00197F1F7000022
:1001E00008950F931F93A82F000000000000000047
:1001F00000004115510509F468C084EA8093BC00F1
:100200008091BC0087FFFCCF8091B900887F883047
:1002100031F58A2F8E7F8093BB0084E88093BC00E9
:100220008091BC0087FFFCCF8091B900887F883126
:10023000C9F08032A1F494E99093BC0010C0819180
:100240008093BB006093BC008091BC0087FFFCCF13
:100250008091B900887F883249F0803361F31F9123
:100260000F910895FB01460F571F64E84E175F0773
:1002700031F740E10115110569F514C0F90194EC5D
:100280000130110589F484E88093BC008091BC00A2
:1002900087FFFCCF8091B900887F883501F7809176
:1002A000BB00808380E0C7CF9093BC008091BC00EE
:1002B00087FFFCCF8091B900887F015011098035FC
:1002C00071F68091BB008193DBCF80E001151105B1
:1002D00031F248E084EA8093BC008091BC0087FF43
:1002E000FCCF8091B900887F4813B9CFA160A0935B
:1002F000BB0084E88093BC008091BC0087FFFCCFEA
:100300008091B900887F803409F4B8CF883409F02F
:10031000A6CF91CF1092B9008093B800449A459A25
:10032000089500D0CDB7DEB782EB89830E94B80074
:1003300088E40E948A0160E080E00E948D0080E0F5
:1003400091E00E94AC002FEF8FE39BE021508040B2
:100350009040E1F700C0000001E010E09E012E5F38
:100360003F4F41E050E0BE016F5F7F4F82E50E944A
:10037000F100182F60E081E00E948D0011111AC079
:100380008A811F928F938FE091E09F938F931F92AA
:1003900081E18F9388E291E09F938F930E94F30114
:1003A00088E291E00E94AC000FB6F894DEBF0FBE69
:1003B000CDBFFFCF1F921F938CE191E09F938F934E
:1003C0001F9281E18F9388E291E09F938F930E9427
:1003D000F30188E291E00E94AC000FB6F894DEBF12
:1003E0000FBECDBFE6CFAEE0B0E0E9EFF1E00C9498
:1003F000AD040D891E898F89988D26E02C831A8380
:10040000098397FF02C080E090E801979E838D8367
:10041000AE01455E5F4F698D7A8DCE0101960E94D7
:1004200023024D815E8157FD0AC02F813885421716
:1004300053070CF49A01020F131FF80110822E9635
:10044000E4E00C94C904AFE0B0E0E9E2F2E00C941F
:100450009F047C013B018A01DC0117961C921E92CD
:10046000169713968C9181FFC3C19AE0292EFE0145
:1004700031964F01D70113969C91F30193FD85911D
:1004800093FF81913F01882309F448C1853239F4F3
:1004900093FD859193FF81913F01853229F4B70146
:1004A00090E00E941104E6CFB12C412C512CBFE109
:1004B000B51538F08B3209F188F4803201F18332BE
:1004C00021F157FC3AC020ED280F2A3040F556FEA6
:1004D0001FC0B29C200D1124B22E06C08D3291F0A7
:1004E000803379F7689450F8F30193FD859193FF79
:1004F00081913F018111DBCF20C0689451F868944D
:1005000052F8F2CF689453F8EFCF689454F8ECCFD8
:10051000429C200D1124422E689455F8E5CF8E326E
:1005200029F456FCFBC0689456F8DECF8C3619F4DB
:10053000689457F8D9CF8836B9F2982F9F7D955493
:100540009330C0F08336A1F18337C1F1833509F0D0
:100550005BC0D801CD90DD908D016B2D70E056FC15
:1005600002C06FEF7FEFC6010E94FB035C0168943D
:1005700057F80AC00C5F1F4FEFE3E983AA24A39446
:10058000B12C6401E89457F853FC04C04A141B04CE
:1005900009F018F5342CA114B10431F5332009F415
:1005A00069CFB70180E290E00E9411043A94F6CF3F
:1005B000D8018C9189830E5F1F4FE0CFF801C19065
:1005C000D1908F016B2D70E056FC02C06FEF7FEF72
:1005D000C6010E9406045C01D5CFB70180E290E01D
:1005E0000E9411044A94D2CFF60157FC859157FE20
:1005F00081916F01B70190E00E94110431103A948B
:10060000B1E0AB1AB108C7CF843619F0893609F0CA
:1006100074C0F80157FE6AC0619171918191919106
:100620008F01E52DEF76DE2E97FF09C0909580951E
:10063000709561957F4F8F4F9F4F6894D7F82AE050
:1006400030E0A4010E944104C82EC818AC2C5D2CD7
:10065000D6FE0CC0E89450F8CB1440F4D4FE05C08C
:10066000D2FC03C05D2D5E7E552EAB2C54FE98C08F
:10067000FE01EC0DF11D8081803309F08AC0652DEB
:10068000697E562E752D7870372E53FC98C050FE1B
:1006900092C0BC2CA41418F44C0CB42CBA1854FE00
:1006A00094C0B70180E390E00E94110452FE09C09B
:1006B00088E790E051FE02C088E590E0B7010E9413
:1006C0001104CB1408F48DC0CA94D12C8FEFC81A32
:1006D000D80AC80CD91CD6018E916D01B70190E0E3
:1006E0000E9411048C149D04B1F758CF619171914F
:1006F000072E000C880B990B93CFD52CE894D4F8D7
:100700002AE030E0853739F1F52DF97FDF2E80378B
:10071000A9F058F48835A9F08F36D9F0F701868111
:1007200097812F96E2E10C94BB048837B9F7D4FE89
:1007300002C06894D2F820E130E00DC06894D4F88B
:10074000F6CF54FE03C02F2F2660D22E20E132E0D8
:1007500002C028E030E0F801D7FE15C04191519168
:10076000619171914C875D876E877F878F01A401AE
:100770006C857D858E859F850E944104C82EC81892
:10078000E894D7F863CF81919191AC0170E060E07B
:10079000E9CF52FC02C0A39475CFA394A39472CF67
:1007A000852D867809F46ECFF6CFB70180E290E010
:1007B0000E941104A394A414C0F3312C70CF342CE4
:1007C0003A18A41408F46BCFF8CF852D867809F475
:1007D00078CF8BE251FE80E257FC8DE2B70190E0CA
:1007E0006ECFB70180E390E00E941104BA9469CF04
:1007F0008FEF9FEF96CFFC01059061507040011084
:10080000D8F7809590958E0F9F1F0895FC01615039
:10081000704001900110D8F7809590958E0F9F1F22
:1008200008950F931F93CF93DF93182F092FEB0198
:100830008B8181FD09C01FEF0FEF812F902FDF917A
:10084000CF911F910F91089582FF14C02E813F8197
:100850008C819D81281739073CF4E881F981CF010B
:1008600001969983888310838E819F8101969F834F
:100870008E83E3CFE885F985812F0995892BA1F334
:10088000DACFFA01AA27283051F1203181F1E8941A
:100890006F936E7F6E5F7F4F8F4F9F4FAF4FB1E073
:1008A0003ED0B4E03CD0670F781F891F9A1FA11D6E
:1008B000680F791F8A1F911DA11D6A0F711D811D6F
:1008C000911DA11D20D009F468943F912AE0269F34
:1008D00011243019305D3193DEF6CF010895462F93
:1008E0004770405D4193B3E00FD0C9F7F6CF462F74
:1008F0004F70405D4A3318F0495D31FD40524193DD
:1009000002D0A9F7EACFB4E0A69597958795779599
:100910006795BA95C9F700976105710508959B0120
:10092000AC010A2E06945795479537952795BA95A9
:10093000C9F7620F731F841F951FA01D08952F9282
:100940003F924F925F926F927F928F929F92AF925F
:10095000BF92CF92DF92EF92FF920F931F93CF93AC
:10096000DF93CDB7DEB7CA1BDB0B0FB6F894DEBF43
:100970000FBECDBF09942A88398848885F846E8469
:100980007D848C849B84AA84B984C884DF80EE80B3
:10099000FD800C811B81AA81B981CE0FD11D0FB6BC
:1009A000F894DEBF0FBECDBFED010895F894FFCFE0
:1009B00052656164696E67204932432E2E2E0044D1
:1009C0006174613A20307825303258004572723AAD
:0809D000203078253032580078
:00000001FF
