:100000000C9434000C9449000C9449000C94490061
:100010000C9449000C9449000C9449000C9449003C
:100020000C9449000C9449000C9449000C9449002C
:100030000C9449000C9449000C9449000C9449001C
:100040000C9449000C9449000C9449000C9449000C
:100050000C9449000C9449000C9449000C944900FC
:100060000C9449000C94490011241FBECFEFD8E036
:10007000DEBFCDBF11E0A0E0B1E0EAE3F3E002C0F3
:1000800005900D92AA33B107D9F70E9432010C9462
:100090009B010C9400001092B90088E48093B80092
:1000A00084E08093BC00089594EA9093BC0020E122
:1000B00037E29091BC0097FD10C021503109C9F77B
:1000C00080E0089581E09034D9F708959091B900C7
:1000D000987F9831B9F781E008958093BB0084E858
:1000E0008093BC0080E197E22091BC0027FDEECF19
:1000F0000197D1F7E5CF8093BB0084E88093BC00E3
:100100008091BC0087FFFCCF089584E88093BC00F9
:100110008091BC0087FFFCCF8091BB00089584E9EB
:100120008093BC000895CF93DF93EC0181E0888336
:1001300082E50E945400811105C018828FEFDF9183
:10014000CF91089582EB0E947B0083E50E945400CA
:10015000882399F30E94850094E99093BC00EFCF27
:100160009BB19F709BB99BB1807F892B8BB985B167
:10017000837F85B92A9A85E08A95F1F700002A984D
:100180000895CF93C82F0E94B0008C2F8295807F56
:10019000CF910C94B0002C980E94C1008FE39FE196
:1001A0000197F1F700C000000895811180E4860FE7
:1001B00080680C94CB002C9A0E94C1008FE39FE1D1
:1001C0000197F1F700C000000895CF93DF93EC0191
:1001D0008991811103C0DF91CF9108950E94DB00C6
:1001E000F7CF8AB1806F8AB984B18C6184B92C98B9
:1001F0008FE59AEE0197F1F700C0000080E30E94BE
:10020000B0008FE19EE40197F1F700C0000080E3A9
:100210000E94B0008FED91E00197F1F700C000005F
:1002200080E30E94B0008FE39FE10197F1F700C0E7
:10023000000080E20E94B0008FE39FE10197F1F798
:1002400000C0000088E20E94CB008FE00E94CB003B
:1002500081E00E94CB008FE39FE10197F1F700C09E
:1002600000000895CDB7DEB765970FB6F894DEBFEE
:100270000FBECDBF0E94F1000E944B002FEF81EE18
:1002800094E0215080409040E1F700C0000060E021
:1002900080E00E94D50080E091E00E94E5001D8A88
:1002A000CE0145960E949300182F2FEF89E698E122
:1002B000215080409040E1F700C0000060E081E004
:1002C0000E94D5008D89811105C08EE091E00E94C9
:1002D000E500FFCF103529F487E191E00E94E500A9
:1002E000F8CF82E291E00E94E50081E1E9E2F1E0ED
:1002F000DE01119601900D928A95E1F7E12FE295CA
:10030000EF7081E090E08C0F9D1F8E0F911DFC011E
:1003100080818A8BE12FEF7081E090E08C0F9D1F30
:100320008E0F911DFC0180818B8B1C8ACE01429621
:0A0330000E94E500CECFF894FFCF45
:10033A0052656164696E672049442E2E2E00493247
:10034A0043204641494C0054534C32353931204FF1
:10035A004B0049443A203078003031323334353654
:0A036A00373839414243444546004C
:00000001FF
