:100000000C944D000C946A000C946A000C946A00E5
:100010000C946A000C946A000C946A000C946A00B8
:100020000C946A000C946A000C946A000C946A00A8
:100030000C946A000C946A000C946A000C946A0098
:100040000C946A000C946A000C946A000C946A0088
:100050000C946A000C946A000C946A000C946A0078
:100060000C946A000C946A003E3E2055534520458E
:10007000453435394C203C3C373839303132333413
:10008000003E3E2061743332382D352E6320203CF3
:100090003C37383930313233340011241FBECFEFB2
:1000A000D8E0DEBFCDBF11E0A0E0B1E0ECECFAE0BB
:1000B00002C005900D92AE33B107D9F721E0AEE34F
:1000C000B1E001C01D92AF34B207E1F70E948F0189
:1000D0000C9464050C9400009BB19F709BB99BB17C
:1000E000807F892B8BB985B1837F85B92A9A2A9A1B
:1000F0002A980895CF93C82F0E946C008C2F829568
:10010000807FCF910C946C002C980E947A0086E638
:100110009EE00197F1F7000008958295880F880FFF
:10012000807C860F80680C9484002C9A0E947A0050
:1001300086E69EE00197F1F700000895CF93DF93E4
:10014000EC01FE0184912196811103C0DF91CF91D2
:1001500008950E949500F5CFCF93DF93EC0189912C
:10016000811103C0DF91CF9108950E949500F7CFD0
:100170008AB1806F8AB984B18C6184B92C988FEF71
:100180009BE60197F1F700C0000080E30E946C003D
:100190008FEF93E20197F1F700C0000080E30E9427
:1001A0006C008DED90E00197F1F780E30E946C0008
:1001B00086E69EE00197F1F7000080E20E946C0065
:1001C00086E69EE00197F1F7000088E20E94840035
:1001D0008FE00C94840086E69EE00197F1F7000022
:1001E00008950F931F93A82F000000000000000047
:1001F00000004115510509F468C084EA8093BC00F1
:100200008091BC0087FFFCCF8091B900887F883047
:1002100031F58A2F8E7F8093BB0084E88093BC00E9
:100220008091BC0087FFFCCF8091B900887F883126
:10023000C9F08032A1F494E99093BC0010C0819180
:100240008093BB006093BC008091BC0087FFFCCF13
:100250008091B900887F883249F0803361F31F9123
:100260000F910895FB01460F571F64E84E175F0773
:1002700031F740E10115110569F514C0F90194EC5D
:100280000130110589F484E88093BC008091BC00A2
:1002900087FFFCCF8091B900887F883501F7809176
:1002A000BB00808380E0C7CF9093BC008091BC00EE
:1002B00087FFFCCF8091B900887F015011098035FC
:1002C00071F68091BB008193DBCF80E001151105B1
:1002D00031F248E084EA8093BC008091BC0087FF43
:1002E000FCCF8091B900887F4813B9CFA160A0935B
:1002F000BB0084E88093BC008091BC0087FFFCCFEA
:100300008091B900887F803409F4B8CF883409F02F
:10031000A6CF91CF1092B9008093B8000895CF93E3
:10032000DF93CDB7DEB729970FB6F894DEBF0FBEC7
:10033000CDBF0E94B80088E40E948A012FEF8FE3AE
:1003400092E0215080409040E1F700C0000080E240
:100350008F8387E5888710E000E030E020E042E00E
:1003600050E0BE01695F7F4F80E30E94F100182FCB
:1003700060E080E01123D9F00E948D001F921F934E
:1003800080E091E09F938F931F9281E18F938EE3A2
:1003900091E09F938F930E947F028EE391E00E94F1
:1003A000AC000FB6F894DEBF0FBECDBFFFCF0E94EA
:1003B0008D0081E191E00E94AC00FFEF2FE38BE024
:1003C000F15020408040E1F700C0000036E0432EAD
:1003D000FE0131964F014CE2242E41E0342E51E1D2
:1003E000552E6EE3E62E61E0F62E7DE1672E71E07C
:1003F000772EF8EAF987F401242D11922A95E9F76E
:1004000006E010E0940141E050E0BE01675F7F4FDD
:1004100080E30E94F100182F8823C1F060E081E0A2
:100420000E948D001F921F937F926F921F925F9286
:10043000FF92EF920E947F028EE391E00E94AC0057
:100440000FB6F894DEBF0FBECDBFD3CFA980BA8060
:1004500086E0B594A7948A95E1F7CB80DC8096E09E
:10046000D594C7949A95E1F70D811E8126E01595E4
:1004700007952A95E1F760E080E00E948D00BF9229
:10048000AF923F922F921F925F92FF92EF920E9443
:100490007F028EE391E00E94AC0060E081E00E9468
:1004A0008D00DF92CF92E2E3F1E0FF93EF931F9292
:1004B0005F92FF92EF920E947F028EE391E00E9492
:1004C000AC0064E180E00E948D001F930F9388E3ED
:1004D00091E09F938F931F925F92FF92EF920E9401
:1004E0007F028EE391E00E94AC00FFEF2FE985E0F0
:1004F000F15020408040E1F700C00000A1CFAEE005
:10050000B0E0E5E8F2E00C943B050D891E898F8987
:10051000988D26E02C831A83098397FF02C080E020
:1005200090E801979E838D83AE01455E5F4F698D94
:100530007A8DCE0101960E94AF024D815E8157FDFA
:100540000AC02F813885421753070CF49A01020F15
:10055000131FF80110822E96E4E00C945705ABE0CF
:10056000B0E0E5EBF2E00C942D057C013B018A0143
:10057000FC0117821682838181FFC8C1CE010196DA
:100580005C01F7019381F30193FD859193FF8191C4
:100590003F01882309F453C1853239F493FD8591D5
:1005A00093FF81913F01853229F4B70190E00E94C9
:1005B0009F04E7CF912C212C312CFFE1F31538F06B
:1005C0008B3211F190F4803209F1833229F137FC3A
:1005D0003CC020ED280F2A3050F536FE20C08AE0BE
:1005E000989E200D1124922E06C08D3291F08033FA
:1005F00071F7689430F8F30193FD859193FF819131
:100600003F018111DACF21C0689431F8689432F843
:10061000F2CF689433F8EFCF689434F8ECCFEAE087
:100620002E9E200D1124222E689435F8E4CF8E32B0
:1006300029F436FC04C1689436F8DDCF8C3619F401
:10064000689437F8D8CF8836B1F2982F9F7D9554AB
:100650009330E0F08336A1F18337C1F1833509F09F
:1006600063C02801F2E04F0E511CF801C080D18018
:10067000692D70E036FC02C06FEF7FEFC6010E946B
:1006800089044C01689437F882010AC00C5F1F4F3F
:10069000FFE3F98388248394912C6501E89437F86B
:1006A00033FE2DC0522C8114910471F5552009F4AC
:1006B00068CFB70180E290E00E949F045A94F6CF81
:1006C000F801808189830E5F1F4FE4CF2801F2E09B
:1006D0004F0E511CF801C080D180692D70E036FCAE
:1006E00002C06FEF7FEFC6010E9494044C018201AB
:1006F000D5CFB70180E290E00E949F042A9428148D
:10070000190409F0B0F7CECFF60137FC859137FE1A
:1007100081916F01B70190E00E949F0451105A949B
:10072000F1E08F1A9108BFCF843619F0893609F0AD
:1007300077C0F80137FE6BC060817181828193813F
:100740000C5F1F4FF32DFF763F2E97FF09C090954A
:100750008095709561957F4F8F4F9F4F689437F8C4
:100760002AE030E0A5010E94CF04C82ECA188C2CC4
:10077000432C36FE0CC0E89440F8C91440F434FE13
:1007800005C032FC03C0F32DFE7E4F2E892C44FEA3
:1007900095C0FE01EC0DF11D8081803309F087C00A
:1007A000242D297E422E842D8870582E43FC95C01E
:1007B00040FE8FC09C2C821418F42C0C922C98189C
:1007C00044FE91C0B70180E390E00E949F0442FE86
:1007D00009C088E790E041FE02C088E590E0B701DB
:1007E0000E949F04C91408F48AC0CA94D12C9FEFB8
:1007F000C91AD90ACA0CDB1CF60182916F01B70134
:1008000090E00E949F04AC14BD04B1F74FCF60810B
:100810007181072E000C880B990B0E5F1F4F92CF32
:10082000D32CE894D4F82AE030E0853739F1232D31
:10083000297FD22E8F3601F148F48835A9F0F701CF
:10084000868197812B96E2E10C944905803749F027
:100850008837A9F7D4FE02C06894D2F820E130E0CE
:100860000DC06894D4F8F6CF34FE03C0822F8660A2
:10087000D82E20E132E002C028E030E0F801D7FEB7
:100880000FC060817181828193810C5F1F4FA50130
:100890000E94CF04C82ECA183D2CE89437F867CFC1
:1008A0006081718190E080E00E5F1F4FF0CF42FCCD
:1008B00002C0839478CF8394839475CF842D8678F7
:1008C00009F471CFF6CFB70180E290E00E949F0457
:1008D00083948214C0F3512C73CF522C5818821475
:1008E00008F46ECFF8CF842D867809F47BCF8BE2A5
:1008F00041FE80E247FC8DE2B70190E071CFB70185
:1009000080E390E00E949F049A946CCF8FEF9FEF5A
:1009100099CFFC010590615070400110D8F7809587
:1009200090958E0F9F1F0895FC01615070400190BB
:100930000110D8F7809590958E0F9F1F08950F9303
:100940001F93CF93DF93182F092FEB018B8181FD2C
:1009500009C01FEF0FEF812F902FDF91CF911F91D3
:100960000F91089582FF14C02E813F818C819D815B
:10097000281739073CF4E881F981CF010196998362
:10098000888310838E819F8101969F838E83E3CF1E
:10099000E885F985812F0995892BA1F3DACFFA0132
:1009A000AA27283051F1203181F1E8946F936E7FAE
:1009B0006E5F7F4F8F4F9F4FAF4FB1E03ED0B4E09F
:1009C0003CD0670F781F891F9A1FA11D680F791FE0
:1009D0008A1F911DA11D6A0F711D811D911DA11DF1
:1009E00020D009F468943F912AE0269F1124301901
:1009F000305D3193DEF6CF010895462F4770405D9C
:100A00004193B3E00FD0C9F7F6CF462F4F70405D4A
:100A10004A3318F0495D31FD4052419302D0A9F7A5
:100A2000EACFB4E0A6959795879577956795BA959F
:100A3000C9F700976105710508959B01AC010A2E65
:100A400006945795479537952795BA95C9F7620F3C
:100A5000731F841F951FA01D08952F923F924F92E0
:100A60005F926F927F928F929F92AF92BF92CF923E
:100A7000DF92EF92FF920F931F93CF93DF93CDB747
:100A8000DEB7CA1BDB0B0FB6F894DEBF0FBECDBFBF
:100A900009942A88398848885F846E847D848C8490
:100AA0009B84AA84B984C884DF80EE80FD800C8199
:100AB0001B81AA81B981CE0FD11D0FB6F894DEBF7C
:0C0AC0000FBECDBFED010895F894FFCFEC
:100ACC00496E6974204572726F723A202530325823
:100ADC0000416363656C2052656164790052656105
:100AEC0064204572723A202530325800583A253429
:0E0AFC006400593A253464005A3A25346400E7
:00000001FF
