:100000000C944C000C9456000C9456000C94560022
:100010000C9456000C9456000C9456000C94560008
:100020000C9456000C9456000C9456000C945600F8
:100030000C9456000C9456000C9456000C945600E8
:100040000C9456000C9456000C9456000C945600D8
:100050000C9456000C9456000C9456000C945600C8
:100060000C9456000C9456003E3E205553432045B8
:10007000453435394C203C3C3738393045464748C3
:10008000003E3E2061743332382D352E6320203CF3
:100090003C37380A3930000011241FBECFEFD8E0BA
:1000A000DEBFCDBF0E94DD000C94EE000C9400007A
:1000B0009BB19F709BB99BB1807F892B8BB985B118
:1000C000837F85B92A9A2A9A2A980895CF93C82FB0
:1000D0000E9458008C2F8295807FCF910C945800FD
:1000E0002C980E94660086E69EE00197F1F70000DA
:1000F00008958295880F880F807C860F80680C9405
:1001000070002C9A0E94660086E69EE00197F1F747
:1001100000000895CF93DF93EC01FE0184912196B6
:10012000811103C0DF91CF9108950E948100F5CF26
:10013000CF93DF93EC018991811103C0DF91CF91BF
:1001400008950E948100F7CF8AB1806F8AB984B187
:100150008C6184B92C988FEF9BE60197F1F700C072
:10016000000080E30E9458008FEF93E20197F1F7BF
:1001700000C0000080E30E9458008DED90E00197E0
:10018000F1F780E30E94580086E69EE00197F1F7C0
:10019000000080E20E94580086E69EE00197F1F799
:1001A000000088E20E9470008FE00C94700086E6E8
:1001B0009EE00197F1F7000008950E94A40080E8F6
:1001C0000E94700081E890E00E948A0080EC0E940A
:1001D000700088E690E00E948A00FFCFF894FFCF7D
:00000001FF
